:04226A004101150019
:1021ED00D2907F011213E5BF0114900115E004F0A8
:1021FD00B2907F327E001221BB7F011218EF7F1447
:07220D007E001221BB80DB03
:10221400D2917F647E001221BB7F011213E5BF01BE
:10222400F1B2917F147E001221BB7F011218EF805E
:01223400E1C8
:102143007F01121FCAEF6401600280FE7E217FEDD2
:102153009000EA7405F07B037D0112105CEF6401CB
:10216300600280FE7E227F149000EA7405F07B06F5
:0D2173007D0212105CEF6401600280FE220C
:10105C009000E6EEF0A3EFF0A3EDF0A3EBF0900020
:10106C00EEE4F03008037FFF229000E9E0FFD39418
:10107C000A40037FFE229000E9E0FF64097003023E
:10108C0013A4E0640A70030213C89000E8E0FFD3D5
:10109C00941140037FFD229000E6E0FEA3E0FF4E9A
:1010AC0070037FFC229000E9E0FFC394085022A358
:1010BC00E0FF940640037FFB229000E8E0FF740001
:1010CC002FF582E43402F583E0FF60127FFA228070
:1010DC000D9000EAE0FFD3941940037FF9229000B1
:1010EC00EAE004F0A3E4F09000EBE0FFC3941E40B0
:1010FC00030211EFE0131313541FFF9000EDF09057
:10110C0000EBE0FF5407F531FFF87480088002C350
:10111C0013D8FCFF9000EDE0FE74102EF582E43441
:10112C0003F583E0FEEF5EFF9000EDF0E0FF60085A
:10113C009000EC7401F080059000ECE4F09000EC71
:10114C00E0FF70709000EEE004F09000EAE0FF9099
:10115C0000EEE0FEC39F50030211E6E0FF9000EBAF
:10116C00E0FE9FFF04FFA3F09000EBE0FFA3E0FE86
:10117C00D39F506FE0FF131313541FFFA3F0900085
:10118C00ECE0FF5407F531A3E0FF74102FF582E477
:10119C003403F583E0FFAE31A8067480088002C3E7
:1011AC0013D8FCFEEF4EFFF09000ECE004F080B89A
:1011BC00803180269000EEE4F09000EBE0FF7E00A2
:1011CC009000EAE0FD7C002FFFEC33FEC3EF941E91
:1011DC00EE6480948040037FF8229000EBE004F0F2
:1011EC000210F39000EEE0FF9000EBE0FEC39FFFD7
:1011FC0025E0FF2443FFF0E0FF90033FE0FEC39F98
:10120C0050249000EAE0FF25E0FFA3E0FEEF2EFF64
:10121C0090033FF0E0FFD3947F400BE094804006B6
:10122C009000007400739000E9E0FFC39408400341
:10123C000212EB9000EBE0FF2402FF9000E8E0FECE
:10124C0074102EF582E43402F583EFF09000EBE09D
:10125C00FF9000E8E0FE74202EF582E43403F58361
:10126C00EFF09000E9E0FF25E0FF9000E8E0FE746D
:10127C00002EF582E43402F583EFF09000E8E0FFF5
:10128C0074002FF582E43402F583E004F09000E85A
:10129C00E0FF74002FF582E43402F583C083C08232
:1012AC00E0FF9000EAE0FEC454F0FEEF4EFFD08267
:1012BC00D083F08581319000EBE0FFF5819000E662
:1012CC00E0FEA3E0FFF532C0329000E6E0FEA3E0C2
:1012DC00FFEEFF7E00F532C0328531810213E290C1
:1012EC0000E9E0FFC39409400302139C9000E8E07E
:1012FC00FF5401FFF09000EBE0FF2402FF9000E8A8
:10130C00E0FE74202EF582E43402F583EFF09000B9
:10131C00EBE0FF9000E8E0FE74402EF582E434032D
:10132C00F583EFF09000EAE0FF9000E8E0FE7442F5
:10133C002EF582E43403F583EFF09000E8E0FF70C3
:10134C0004D2068002D2079000E8E0FF04FF33339A
:10135C003354F8FFE0FE75F005A42430F582E43434
:10136C0002F583EFF08581319000EBE0FFF5819081
:10137C0000E6E0FEA3E0FFF532C0329000E6E0FEAE
:10138C00A3E0FFEEFF7E00F532C03285318180464E
:10139C009000E9E0FFB4091C9000E6E0FEA3E0FF3A
:0313AC0090033576
:1013AF00F09000E6E0A3E0EEFF7E00900336F080C1
:1013BF00229000E9E0FFB40A1A9000E6E0FEA3E0F5
:1013CF00FF900337F09000E6E0A3E0EEFF7E009081
:0613DF000338F07F01223B
:101FCA00900106EFF0E0FFC3648094804007E0646C
:101FDA0080948840037FFF22900106E0FF3395E05A
:101FEA00FE7C007D06121E6074AC2FF974003EFA66
:101FFA007B01A3EBF0A3EAF0A3E9F0900107E0FB71
:10200A00A3E0FAA3E0F97401121E2C900107E0FB89
:10201A00A3E0FAA3E0F975820175830074FF121E2A
:10202A003E900107E0FBA3E0FAA3E0F9758203758D
:10203A008300E4F5F0121ED6900107E0FBA3E0FA54
:10204A00A3E0F9758202758300E4121E3E7F012225
:1013E5009000F7EFF0E0FFC3648094804007E0646D
:1013F50080948840037FFF2278E3E6FF9000FBF0AE
:101405009000F7E0FF3395E0FE7C007D06121E603C
:1014150074AC2FF974003EFA7B01A3EBF0A3EAF05C
:10142500A3E9F0C2AF9000F8E0FBA3E0FAA3E0F96E
:10143500758201758300121DFFFF9000FBE0FEB56C
:101445000705D2AF7FFF229000F8E0FBA3E0FAA3E7
:10145500E0F9758201758300121DFFFFF460030238
:1014650014FA9000FBE0FF9000F8E0A3E0A3E0751C
:101475008201758300EF121E3E9000FBE0FF33955D
:10148500E0FE74002FF58274023EF583E0FF540EF2
:10149500FFC313FF9000FBE0FEFD3395E0FC9000D9
:1014A5000175F009ED121F03EC75F009A42583F50C
:1014B50083EFF09000FBE0FF3395E0FE90000175AF
:1014C500F009EF121F03EE75F009A42583F583E0FB
:1014D500FF9000FBE0FEFD3395E0FC90000275F007
:1014E50009ED121F03EC75F009A42583F583EFF0D0
:1014F500D2AF7F01229000FBE0FF3395E0FE740040
:101505002FF58274023EF583E0FF540EFFC313FFEF
:101515009000FBE0FEFD3395E0FC90000175F009BD
:10152500ED121F03EC75F009A42583F583EFF09008
:1015350000FBE0FF3395E0FE90000175F009EF1226
:101545001F03EE75F009A42583F583E0FF9000FBEA
:10155500E0FEFD3395E0FC90000275F009ED121FE9
:1015650003EC75F009A42583F583EFF09000F8E00E
:10157500FBA3E0FAA3E0F9758201758300121DFF54
:10158500FF75F009A42402F582E43400F583E0FF39
:101595009000FBE0FEFD3395E0FC90000275F0093C
:1015A500ED121F03EC75F009A42583F583E0FED346
:1015B5009F50030216719000FBE0FF3395E0FE900B
:1015C500000275F009EF121F03EE75F009A42583DB
:1015D500F583E0FF9000F8E0A3E0A3E075820175D4
:1015E5008300121DFFFE75F009A42402F582E43480
:1015F50000F583EFF09000F8E0FBA3E0FAA3E0F933
:10160500758201758300121DFFFF74002FF582E4BA
:101615003402F583E0FF54F1FFF09000F8E0FBA3FE
:10162500E0FAA3E0F9758201758300121DFFFF74CE
:10163500002FF582E43402F583C083C082E0FF9079
:1016450000FBE0FEFD3395E0FC90000275F009ED2E
:10165500121F03EC75F009A42583F583E0FE5407FA
:10166500FE25E0FEEF4EFFD082D083F0D2AF900092
:0F167500F7E0FD7B007A007F031216847F0122CD
:1018EF009000DCEFF0E0FFC3648094804007E06479
:1018FF0080948840037FFF2278E3E6FF9000E0F0BA
:10190F009000DCE0FF3395E0FE7C007D06121E6048
:10191F0074AC2FF974003EFA7B01A3EBF0A3EAF04D
:10192F00A3E9F0C2AF9000DDE0FBA3E0FAA3E0F97A
:10193F00758201758300121DFFFF9000E0E0FE6FBE
:10194F006005D2AF7FFF229000E0E0FF3395E0FE0D
:10195F0090000175F009EF121F03EE75F009A42531
:10196F0083F583E0FF9000E0E0FEFD3395E0FC900F
:10197F00000275F009ED121F03EC75F009A4258321
:10198F00F583EFF09000E0E0FF3395E0FE74002F59
:10199F00F58274023EF583E0FF54F1FFF09000E012
:1019AF00E0FF3395E0FE74002FF58274023EF5835D
:1019BF00C083C082E0FF9000E0E0FEFD3395E0FCC5
:1019CF0090000275F009ED121F03EC75F009A425C4
:1019DF0083F583E0FE5407FE25E0FEEF4EFFD08235
:1019EF00D083F09000DDE0FBA3E0FAA3E0F975826D
:1019FF0003758300121E9EFFAEF04E7003021B3B59
:101A0F009000E274FFF0A3F09000DDE0A3E0A3E00C
:101A1F00758203758300121E9EFFAEF09000E4EEF8
:101A2F00F0A3EFF09000E1E4F09000E1E0FFC36479
:101A3F008094904003021AD2E07E007401A8070838
:101A4F008005C333CE33CED8F9FF9000E4E0FCA37A
:101A5F00E0FDEE5CFEEF5DFF4E605F9000E1E0FFAA
:101A6F003395E0FE90000275F009EF121F03EE753B
:101A7F00F009A42583F583E0FF7E009000E3E0FDED
:101A8F003395E0FCD3EF9DEC6480F8EE74809840C2
:101A9F00299000E1E0FF3395E0FE90000275F00918
:101AAF00EF121F03EE75F009A42583F583E0FF9075
:101ABF0000E3F09000E1E0FFA3F09000E1E004F01C
:101ACF00021A389000E2E0FF3395E0FEEFF44E701B
:101ADF00329000DDE0FBA3E0FAA3E0F97582037515
:101AEF008300E4F5F0121ED69000DDE0FBA3E0FAD0
:101AFF00A3E0F975820175830074FF121E3ED2AF09
:101B0F007F00229000E2E0FF9000DDE0FBA3E0FA0F
:101B1F00A3E0F9758201758300EF121E3E9000E27B
:101B2F00E0FF7D02121CB7D2AF7F01229000DDE0F3
:101B3F00FBA3E0FAA3E0F975820175830074FF122D
:071B4F001E3ED2AF7F002211
:1021BB00900113EEF0A3EFF0900113E0FEA3E0FF0C
:1021CB004E601E78E3E6FFC394125015758A667550
:1021DB008CFC900113E0FAA3E0FB7DFF7F0112164C
:0221EB0084224C
:0800030053A87F7530002101B4
:08000B0053A87F7530012101AB
:0800130053A87F7530022101A2
:08001B0053A87F753003210199
:0800230053A87F753004210190
:08002B0053A87F753005210187
:0800330053A87F75300621017E
:08003B0053A87F753007210175
:0800430053A87F75300821016C
:08004B0053A87F753009210163
:0800530053A87F75300A21015A
:08005B0053A87F75300B210151
:0800630053A87F75300C210148
:08006B0053A87F75300D21013F
:0800730053A87F75300E210136
:08007B0053A87F75300F21012D
:0800830053A87F753010210124
:08008B0053A87F75301121011B
:0800930053A87F753012210112
:08009B0053A87F753013210109
:0800A30053A87F753014210100
:0800AB0053A87F7530152101F7
:0800B30053A87F7530162101EE
:0800BB0053A87F7530172101E5
:0800C30053A87F7530182101DC
:0800CB0053A87F7530192101D3
:0800D30053A87F75301A2101CA
:0800DB0053A87F75301B2101C1
:0800E30053A87F75301C2101B8
:0800EB0053A87F75301D2101AF
:0800F30053A87F75301E2101A6
:0F00FB0053A87F75301F20050302010A022180E0
:10218000858132758135C0D0C0E0C0F0C083C08287
:10219000858134900336E0FFF533900335E0FFF599
:1021A0008285338375D018740073853481D082D0D2
:0B21B00083D0F0D0E0D2AFD0D03222BC
:102254003001123005030221AA300006C200020137
:0622640054220201A92230
:10010A0030010BC0D0D20085304121288010858172
:10011A0032758135C0D08831D201D2AF217F75D0F6
:10012A001078DBF608A6F008A68308A682E58114F3
:10013A00FF08F6D0E078E0F6900337E0FFF515A364
:10014A00E0FFF58385158274007375D01078DCE6BC
:10015A00FFF5F008E6FFF58308E6FFF58208E6FFFB
:10016A00F58108E6FFF51578DBE6FF8515D08541B0
:10017A003043A88032C0E0C0F0C083C08275D01876
:10018A0078E5E6FFE5306F6016D20B900336E0FFA4
:10019A00F533900335E0FFF5828533837400737578
:1001AA00D01875813A300B062002030205A3C28DCE
:1001BA00C20B753300E533C39408400302033DAF15
:1001CA0033EF75F006A424B1F582E43400F583E038
:1001DA00FF7003020338AF33EF75F006A424B1F5BC
:1001EA0082E43400F583E0FFD3940050030203381D
:1001FA00753400E534C394104003020317AF34EF9B
:10020A0075F009A42406F582E43400F583E0FF655D
:10021A00336003020312AF34EF75F009A42404F526
:10022A0082E43400F583E0FF64047003020312AF32
:10023A0033EF75F006A424AFF582E43400F583C0E9
:10024A0083C082E0FCA3E0FDAF347E007401A807FE
:10025A00088005C333CE33CED8F9FFF4FFEEF4FE9F
:10026A00EC5EFEED5FFFD082D083EEF0A3EFF0AF3D
:10027A0033EF75F006A424AEF582E43400F583E08A
:10028A00FF6013AF33EF75F006A424AEF582E434B1
:10029A0000F583E014F0AF34EF75F009A42405F5F6
:1002AA0082E43400F5837402F0AF34EF75F009A4E8
:1002BA002403F582E43400F583E4F0AF34EF75F0FB
:1002CA0009A42404F582E43400F583E4F0AF34EFA2
:1002DA0075F009A42406F582E43400F58374FFF06E
:1002EA00AF34EF75F009A42407F582E43400F583EE
:1002FA00E4F0A3F0AF3474002FF582E43402F583FE
:10030A00E0FF4401FFF0800505340201FDE5346495
:10031A0010601BAF33EF75F006A424B1F582E43404
:10032A0000F583E014F00201E080030201E00533E6
:10033A000201BF7534032004067534030204083031
:10034A0006067534010204083007067534010204F2
:10035A0008300C0675340102040878E3E6FFC394FA
:10036A00104003020405E6FF74002FF582E434020C
:10037A00F583E0FF20E006753401020408753300B6
:10038A00E533C394105042AF3374002FF582E4343E
:10039A0002F583E0FF30E02D78E3E6FF74002FF5E5
:1003AA0082E43402F583E0FF540FFFAE3374002E6B
:1003BA00F582E43402F583E0FE540FFED39F400534
:1003CA007534018039053380B7753301E533C39439
:1003DA00105023AF3374002FF582E43402F583E022
:1003EA00FF30E00E78E3E6FFE5336F60057534030E
:1003FA00800C053380D67534028003753401E534E8
:10040A00B4010A900330E0FF78E6F68016E534B4CA
:10041A00020678E67600800BE534B4030620020370
:10042A0078E60630020302059F78E1E6FFF58A08BE
:10043A00E6FFF58C90033AE004F07006900339E089
:10044A0004F0900339E0FEA3E0FF4E700E90033CE7
:10045A00E004F0700690033BE004F0753300E533E6
:10046A00C39410400302054FAF33EF75F009A4247B
:0D047A0003F582E43400F583E0FF640160C7
:100487000302054AAF33EF75F009A42407F582E4A8
:100497003400F583E0FEA3E0FFD39400EE94005010
:1004A7000302054AAF33EF75F009A42407F582E488
:1004B7003400F58374FFF5F0121E72AF33EF75F059
:1004C70009A42407F582E43400F583E0FEA3E0FFE6
:1004D7004E7070AF33EF75F009A42405F582E4344C
:1004E70000F5837401F0AF33EF75F009A42404F528
:1004F70082E43400F583E4F0AF33EF75F009A42408
:1005070006F582E43400F58374FFF0AF33EF75F03E
:1005170009A42407F582E43400F583E4F0A3F0AFDF
:1005270033EF75F009A42403F582E43400F583E47E
:10053700F0AF3374002FF582E43402F583E0FF4413
:1005470001FFF00533020468900331E0FEA3E0FFEA
:10055700D39400EE94004018900332E024FFF0900B
:100567000331E034FFF0E0FEA3E0FF4E7002D20655
:10057700900333E0FEA3E0FFD39400EE940040180D
:10058700900334E024FFF0900333E034FFF0E0FE03
:10059700A3E0FF4E7002D207C2028005C20B020C15
:1005A7008C900330E0FF78E6E6FE6F6003020C8A6A
:1005B700F6E532C3947F4006021FC10207AF300C35
:1005C700030206C078E3E6FFC394105044E6FF74C5
:1005D700002FF582E43402F583E0FFC4540FFF7E59
:1005E700028EF0A4FFAEF0E6FD74202DF582E43410
:1005F70003F583E0FD7C00EF2DFFEE3CFEAD32D32B
:10060700ED9FEE6480F8EC7480984045021FC1802E
:100617004078E3E6FF74302FF582E43403F583E096
:10062700FF7E028EF0A4FFAEF0E6FD74302DF5825A
:10063700E43403F583E0FD7C00EF2DFFEE3CFEADD7
:1006470032C3ED9FEE6480F8EC7480984003021F7C
:10065700C178E3E6FFC39410400302074DE6FF7538
:10066700F00DA42445F582E43402F583E531F0C2A8
:10067700AF858133758107753001E530C394085024
:1006870030D031AF307E00C3740D9FFFE49EFE78FB
:10069700E3E6FD75F00DA42440F582E43402F5830A
:1006A700E5822FF582E5833EF583E531F00530805D
:1006B700C9853381D2AF02074D78E4E6FFC39410B2
:1006C7005044E6FF74002FF582E43402F583E0FF1F
:1006D700C4540FFF7E028EF0A4FFAEF0E6FD742037
:1006E7002DF582E43403F583E0FD7C00EF2DFFEE6A
:1006F7003CFEAD32D3ED9FEE6480F8EC74809840F9
:1007070045021FC1804078E4E6FF74302FF582E48C
:100717003403F583E0FF7E028EF0A4FFAEF0E6FD22
:1007270074302DF582E43403F583E0FD7C00EF2D72
:10073700FFEE3CFEAD32C3ED9FEE6480F8EC7480B3
:10074700984003021FC178E4E6FFC394105059E6AE
:10075700FF75F00DA42445F582E43402F583E531F5
:10076700F0C2AF858133758107753001E530C394D9
:10077700085030D031AF307E00C3740D9FFFE49E28
:10078700FE78E4E6FD75F00DA42440F582E434021A
:10079700F583E5822FF582E5833EF583E531F005A4
:1007A7003080C9853381D2AF300C03020989753196
:1007B7000078E3E6FF08F63007034331023006030B
:1007C700433101E5316030E53164036017300607D6
:1007D70078E3761002098B20070302098B78E3760A
:1007E7001102098B78E3E6FFB41005761102098B35
:0D07F70078E3761002098B2004030208D17C
:10080400753300753100E531C394105034AF317441
:10081400002FF582E43402F583E0FF30E015AF31B8
:1008240074002FF582E43402F583E0FFC313FF5410
:1008340007F530E530D395334003853033053180F7
:10084400C578E4E6FF04F531E531C394105036AFC2
:100854003174002FF582E43402F583E0FFC313FF03
:100864005407F530E533B53018AF3174002FF582F5
:10087400E43402F583E0FF30E00778E3A6310209AF
:100884008B053180C375310078E4E6FFE531D39FF1
:10089400400302098BAF3174002FF582E43402F572
:1008A40083E0FFC313FF5407F530E533B53017AFCA
:1008B4003174002FF582E43402F583E0FF30E00662
:1008C40018A63102098B053180BE02098B78E4E653
:1008D400FF04F531E531C39410504EAF3174002F4D
:1008E400F582E43402F583E0FF30E039AF3174007F
:1008F4002FF582E43402F583E0FFC313FF5407FFAE
:10090400602378E3A631AF3174002FF582E434021A
:10091400F583E0FFC313FF5407F530E53004FF907F
:100924000330F08062053180AB75310078E4E6FF76
:10093400E531D39F5051AF3174002FF582E4340276
:10094400F583E0FF30E038AF3174002FF582E434F2
:1009540002F583E0FFC313FF5407FF602218A6319A
:10096400AF3174002FF582E43402F583E0FFC31342
:10097400FF5407F530E53004FF900330F08008059C
:100984003180A98002C20CC209C20A78E4E6FFC31E
:1009940094104002D20978E3E6FFC394104002D2D7
:1009A4000AA20A82094003020A3F78E4E6FF24F01F
:1009B400F530AF3074202FF582E43402F583E5324C
:1009C400F0753105E531D394004025D032AF31AE16
:1009D40030EE75F005A4242FF582E43402F583E5A6
:1009E400822FF582E43583F583E532F0153180D426
:1009F40078E3E6FF24F0F530753100E531C3940562
:100A04005026AF31AE30EE75F005A42430F582E403
:100A14003402F583E5822FF582E43583F583E0FF24
:100A2400F532C032053180D3AF3074202FF582E423
:100A34003402F583E0FFF532020C00A20A72095079
:100A440003020ACF78E4E6FF74102FF582E434023F
:100A5400F583E532F0753105E531D394004026D0B5
:100A640032AF3178E4E6FE75F00DA4243FF582E45C
:100A74003402F583E5822FF582E43583F583E5328C
:100A8400F0153180D3753100E531C394055027AF9B
:100A94003178E3E6FE75F00DA42440F582E43402D7
:100AA400F583E5822FF582E43583F583E0FFF532A3
:100AB400C032053180D278E3E6FF74102FF582E46A
:100AC4003402F583E0FFF532020C00A20AB00940BB
:100AD40003020B6478E4E6FF74102FF582E4340219
:100AE400F583E532F0753105E531D394004026D025
:100AF40032AF3178E4E6FE75F00DA4243FF582E4CC
:100B04003402F583E5822FF582E43583F583E532FB
:100B1400F0153180D378E3E6FF24F0F53075310029
:100B2400E531C394055026AF31AE30EE75F005A41F
:100B34002430F582E43402F583E5822FF582E4352E
:100B440083F583E0FFF532C032053180D3AF3074D2
:100B5400202FF582E43402F583E0FFF532020C0025
:100B6400A209B00A4003020C0078E4E6FF24F0F581
:0D0B740030AF3074202FF582E43402F58399
:100B8100E532F0753100E531C39405502FD032AF15
:100B9100317E00C374059FFFE49EFEAD30ED75F01C
:100BA10005A4242FF582E43402F583E5822FF58232
:100BB100E5833EF583E532F0053180CA753100E504
:100BC10031C394055027AF3178E3E6FE75F00DA4EB
:100BD1002440F582E43402F583E5822FF582E43581
:100BE10083F583E0FFF532C032053180D278E3E648
:100BF100FF74102FF582E43402F583E0FFF5323003
:100C01000A03020C8878E3E6FF75F00DA42445F58C
:100C110082E43402F583E0FFF532C03278E3E6FF87
:100C210075F00DA42446F582E43402F583E0FFF566
:100C310032C032C2AF858130758102753107E5312D
:100C4100C3940D5027AF3178E3E6FE75F00DA4246F
:100C510040F582E43402F583E5822FF582E43583A1
:100C6100F583E0FFF532D032053180D2853081D273
:100C7100AF78E3E6FF74102FF582E43402F583E0E8
:100C8100FFF532D001D000C20AC209D082D083D090
:100C9100F0D0E053A87FC201D0D085328143A88033
:020CA1003222FD
:1020E6009000EFEBF0A3EAF0A3E9F0A3EDF0900087
:1020F600EFE0FBA3E0FAA3E0F9AE02FF9000F5EEF5
:10210600F0A3EFF09000F3E0FEA3E0FFD39400EE1F
:10211600940040289000F2E0FF9000F5E475F0018D
:10212600121E88ADF0FC8D82F583EFF09000F4E08E
:0D21360024FFF09000F3E034FFF080C82299
:101F1500787FE4F6D8FD7B017A0279009000F374AE
:101F250001F0A374FFF07D001220E678E5760178D4
:101F3500E276D81876EFC205C20178E37600D204BE
:101F45007530009003307405F0900339E4F0A3F088
:101F550090033BF0A3F078E7F67BFF7A1B7956AE4A
:101F650002AF019000EA7402F07B007D0012105C64
:101F75007BFF7A227954AE02AF019000EAE4F07B50
:101F850009FD12105C7BFF7A227954AE02AF0190F5
:101F950000EAE4F07B0AFD12105C900320E0FF24C8
:101FA500FEF58178E2E6FFF58C18E6FFF58A4389B0
:101FB50001D2A9D28CD2AF121B5680FE12223580D7
:051FC500FE122254226F
:101684009000FCEFF0A3EDF0A3EAF0A3EBF0C2AFFF
:1016940078E3E6FFA3F09000FCE0FF64016003023E
:1016A40017B69000FEE0FEA3E0FF4E7005D2AF7FB8
:1016B4000122900100E0FFC39410404E9000FCE032
:1016C400FF64017042900100E0FFB4101AC206905A
:1016D40000FEE0FEA3E0FF900331EEF0A3EFF0D2B2
:1016E40002D2AFD28D8020900100E0FFB41118C265
:1016F400079000FEE0FEA3E0FF900333EEF0A3EFBB
:10170400F0D202D2AFD28D7F01229000FCE0FF9094
:101714000100E0FE75F009A42404F582E43400F528
:1017240083EFF09000FDE0FF900100E0FE75F0090A
:10173400A42406F582E43400F583EFF09000FEE083
:10174400FEA3E0FFA3E0FD75F009A42407F582E4FD
:101754003400F583EEF0A3EFF0900100E0FF75F0A4
:1017640009A42405F582E43400F583E4F090010033
:10177400E0FF75F009A42403F582E43400F58374D2
:1017840001F0900100E0FF74002FF582E43402F5CB
:1017940083E0FF54FEFFF0D202D2AFD28D9001005D
:1017A400E0FF75F009A42405F582E43400F583E034
:1017B400FF22900100E0FF75F009A42404F582E4FF
:1017C4003400F583E0FF6005D2AF7F00229000FC77
:1017D400E0FF6401600DA3E0FFC394084005D2AFAD
:1017E4007F00229000FCE0FF900100E0FE75F0090C
:1017F400A42404F582E43400F583EFF09000FDE0C6
:10180400FF900100E0FE75F009A42406F582E4349B
:1018140000F583EFF09000FEE0FEA3E0FFA3E0FDFF
:1018240075F009A42407F582E43400F583EEF0A3EF
:10183400EFF0900100E0FF75F009A42405F582E4BF
:101844003400F583E4F09000FCE0FF64016057A3EA
:10185400E0FFF46051E075F006A424AFF582E434AF
:1018640000F583C083C082E0FCA3E0FD900100E0AA
:10187400FF7E007401A807088005C333CE33CED899
:10188400F9FFEC4EFEED4FFFD082D083EEF0A3EFD4
:10189400F09000FDE0FF75F006A424AEF582E43478
:1018A40000F583E004F0900100E0FF75F009A42442
:1018B40003F582E43400F5837401F0900100E0FF45
:1018C40074002FF582E43402F583E0FF54FEFFF048
:1018D400D202D2AFD28D900100E0FF75F009A424AA
:0B18E40005F582E43400F583E0FF22EC
:101CB70090010AEFF0A3EDF0C2AF90010AE0FF75C3
:101CC700F009A42406F582E43400F583E0FF9001CF
:101CD7000CF0E0FFF4606CE075F006A424AFF58229
:101CE700E43400F583C083C082E0FCA3E0FD9001EB
:101CF7000AE0FF7E007401A807088005C333CE33CE
:101D0700CED8F9FFF4FFEEF4FEEC5EFEED5FFFD0F8
:101D170082D083EEF0A3EFF090010CE0FF75F006A0
:101D2700A424AEF582E43400F583E0FF601590014A
:101D37000CE0FF75F006A424AEF582E43400F583C9
:101D4700E014F090010AE0FF74002FF582E43402FA
:101D5700F583E0FF7003D2AF2290010AE0FF7444DD
:101D67002FF582E43403F583E0FF30E003D2AF229E
:101D770090010BE0FF90010AE0FE75F009A424052D
:101D8700F582E43400F583EFF090010AE0FF75F087
:101D970009A42404F582E43400F583E4F090010AF1
:101DA700E0FF75F009A42406F582E43400F5837496
:101DB700FFF090010AE0FF75F009A42407F582E41B
:101DC7003400F583E4F0A3F090010AE0FF75F00911
:101DD700A42403F582E43400F583E4F090010AE0DB
:101DE700FF74002FF582E43402F583E0FF4401FF1E
:081DF700F0D202D2AFD28D221E
:101B5600C2AF7B007A00790090010DEBF0A3F0A3F1
:101B6600F0900110F0A3F0A3F0C202C20890011693
:101B760004F0900116E0FFC394105043E075F0099D
:101B8600A42404F582E43400F583E4F0900116E021
:101B9600FF75F009A42403F582E43400F583740488
:101BA600F0900116E0FF75F009A42407F582E434ED
:101BB60000F583E4F0A3F0900116E004F080B39002
:101BC6000331E4F0A3F0A3F0A3F0900116F0900126
:101BD60016E0FFC39408506BE075F006A424ACF53C
:101BE60082E43400F583E4F0900116E0FF75F00618
:101BF600A424ADF582E43400F58374FFF090011659
:101C0600E0FF75F006A424AEF582E43400F583E423
:101C1600F0900116E0FF75F006A424AFF582E434D7
:101C260000F583E4F0A3F0900116E0FF75F006A43A
:101C360024B1F582E43400F583E4F0900116E00463
:101C4600F0808B122143D208D2AFC2AF9001167436
:101C560001F0900116E0FFC394125035E074442F52
:101C6600F582E43403F583E0FF30E01D900116E0D1
:101C7600FF74442FF582E43403F583E0FF54FEFF3E
:101C8600F0900116E0FF120CA3900116E004F0801C
:101C9600C1D2AF90010DE0FBA3E0FAA3E0F9EA4957
:101CA6004B60A790010DE0A3E0A3E0121F0F809AFE
:011CB600220B
:10223500900110E0FBA3E0FAA3E0F9EA494B600C3A
:0F224500900110E0A3E0A3E0121F0F2280FE2201
:100CA300900101EFF0E0FFD3941140037FFF229006
:100CB3000101E0FF70037FFF22900104E533F09010
:100CC3000101E0FFC394104003020DA8E074202F3C
:100CD300F582E43403F583E0FF70037FFF22900184
:100CE30001E0FF74202FF582E43403F583E024FE52
:100CF300F0900101E0FF74002FF582E43402F583E4
:100D0300E0FFC4540FFF900102F0900101E0FF7473
:100D1300202FF582E43403F583E0FF04F53374BE3A
:100D23002533F533C313FF04F533900102E0FF5479
:100D330007FFF0E02533F0900101E0FF74002FF589
:100D430082E43402F583E4F0900101E0FF74102F94
:100D5300F582E43402F583E4F0900101E0FF7420AE
:100D63002FF582E43403F583E4F0900105F090015C
:100D730005E0FFC3940D4003020E87E0900101E0FC
:100D8300FE75F00DA42440F582E43402F583E58278
:100D93002FF582E43583F583E4F0900105E004F058
:100DA30080CC020E87900101E0FF6410706990030C
:100DB30040E0FF70037FFF22900342E024FEF0E057
:100DC300FF900102F0900340E0FF04F53374BE2569
:100DD30033F533C313FF04F533900102E02533F0F9
:100DE300C206900340E4F0900342F0900220F0909A
:100DF3000105F0900105E0FFC394054003020E874F
:100E0300E074302FF582E43402F583E4F0900105B9
:100E1300E004F080DE806D900101E0FF64117064F6
:100E2300900341E0FF70037FFF22900343E024FE21
:100E3300F0E0FF900102F0900341E0FF04F533740A
:100E4300BE2533F533C313FF04F533900102E025C8
:100E530033F0C207900341E4F0900343F090022182
:100E6300F0900105F0900105E0FFC394055015E0F3
:100E730074352FF582E43402F583E4F0900105E044
:100E830004F080E1900102E0FFE533C39F5044E5A5
:100E930033131313541FF532E5335407F531FFF8B9
:100EA3007480088002C313D8FCFFF4FF900103F0A1
:100EB300AF3274102FF582E43403F583C083C0820C
:100EC300E0FF900103E0FEEF5EFFD082D083F005E8
:100ED3003380B1900101E0FFB41009900331E4F0D5
:100EE300A3F0800F900101E0FFB41107900333E4F6
:100EF300F0A3F0900105E4F0900105E0FFC394082E
:100F03004003020FE9900101E0FF7E007401A8078E
:100F1300088005C333CE33CED8F9FF900105E0FD39
:100F230075F006A424AFF582E43400F583E0FCA356
:100F3300E0FDEE5CFEEF5DFF4E6070900105E0FFAB
:100F430075F006A424AFF582E43400F583C083C0B2
:100F530082E0FCA3E0FD900101E0FF7E007401A8A4
:100F630007088005C333CE33CED8F9FFF4FFEEF480
:100F7300FEEC5EFEED5FFFD082D083EEF0A3EFF0D8
:100F8300900105E0FF75F006A424AEF582E4340079
:100F9300F583E0FF6015900105E0FF75F006A424DA
:100FA300AEF582E43400F583E014F0900105E0FF30
:100FB30075F006A424ADF582E43400F583E0FF90D8
:100FC3000101E0FEEFB50615900105E0FF75F0069F
:100FD300A424ADF582E43400F58374FFF090010599
:100FE300E004F0020EFB900101E0FF75F009A42478
:100FF30004F582E43400F583E4F0900101E0FF7529
:10100300F009A42405F582E43400F5837401F0901B
:101013000101E0FF75F009A42406F582E43400F52C
:101023008374FFF0900101E0FF75F009A42407F534
:1010330082E43400F583E4F0A3F0900101E0FF754E
:10104300F009A42403F582E43400F5837404F090DA
:091053000104E0FFF5337F0122E6
:0300000002205A81
:0C205A00787FE4F6D8FD7581E70220A134
:101DFF00BB010CE58229F582E5833AF583E0225099
:101E0F0006E92582F8E622BBFE06E92582F8E222E2
:0D1E1F00E58229F582E5833AF583E49322FC
:101E2C00BB010689828A83F0225002F722BBFE0195
:021E3C00F3228F
:101E3E00F8BB010DE58229F582E5833AF583E8F0DA
:101E4E00225006E92582C8F622BBFE05E92582C886
:021E5E00F2226E
:101E6000EF8DF0A4A8F0CF8CF0A428CE8DF0A42E96
:021E7000FE2250
:101E7200C5F0F8A3E028F0C5F0F8E58215827002FB
:061E82001583E038F02298
:101E8800A3F8E0C5F025F0F0E5821582700215830D
:061E9800E0C838F0E8226A
:101E9E00BB0110E58229F582E5833AF583E0F5F082
:101EAE00A3E0225009E92582F886F008E622BBFE5F
:101EBE000AE92582F8E2F5F008E222E5832AF583A5
:081ECE00E993F5F0A3E993226A
:101ED600F8BB0111E58229F582E5833AF583E8F03E
:101EE600E5F0A3F0225009E92582C8F608A6F022FB
:0D1EF600BBFE09E92582C8F2E5F008F222E2
:0C1F0300A42582F582E5F03583F58322E9
:061F0F008A838982E4735D
:10206600021F15E493A3F8E493A34003F68001F25C
:1020760008DFF48029E493A3F85407240CC8C3337B
:10208600C4540F4420C8834004F456800146F6DF4A
:10209600E4800B010204081020408090226AE47E4E
:1020A600019360BCA3FF543F30E509541FFEE4933F
:1020B600A360010ECF54C025E060A840B8E493A306
:1020C600FAE493A3F8E493A3C8C582C8CAC583CA31
:1020D600F0A3C8C582C8CAC583CADFE9DEE780BEE9
:01226E00006F
:00000001FF
