:10205700121B42900121EEF0A3EFF07F0A7E0012DF
:052067001FE680EC22E1
:101E6900900121E0FEA3E0FF90011FEEF0A3EFF047
:101E790090011FE0FEA3E0FF7C037DE8121227AD6D
:101E8900077F00121F3990011FE0FEA3E0FF7C00CD
:101E99007D641212277C007D0A1212277F01121F0E
:101EA9003990011FE0FEA3E0FF7C007D0A12122792
:101EB9007C007D0A1212277F02121F3990011FE050
:101EC900FEA3E0FF7C007D0A1212277F03121F394F
:021ED900808EF9
:011EDB0022E4
:101FB10012208012208F7BFF7A207957AE02AF0169
:101FC1009000F07404F07B027D021213ED7BFF7A26
:101FD1001E7969AE02AF019000F07404F07B027DBE
:051FE100031213ED22C4
:1013ED009000ECEEF0A3EFF0A3EDF0A3EBF0900086
:1013FD00F4E4F03008037FFF229000EFE0FFD39478
:10140D000A40037FFE229000EFE0FF6409700302A3
:10141D001735E0640A70030217599000EEE0FFD310
:10142D00941140037FFD229000ECE0FEA3E0FF4EFF
:10143D0070037FFC229000EFE0FFC394085022A3BD
:10144D00E0FF940640037FFB229000EEE0FF740066
:10145D002FF582E43402F583E0FF60127FFA2280DB
:10146D000D9000F0E0FFD3941940037FF922900016
:10147D00F0E004F0A3E4F09000F1E0FFC3941E400F
:10148D0003021580E0131313541FFF9000F3F09027
:10149D0000F1E0FF5407F531FFF87480088002C3B6
:1014AD0013D8FCFF9000F3E0FE74102EF582E434A7
:1014BD0003F583E0FEEF5EFF9000F3F0E0FF6008C0
:1014CD009000F27401F080059000F2E4F09000F2CB
:1014DD00E0FF70709000F4E004F09000F0E0FF90F9
:1014ED0000F4E0FEC39F5003021577E0FF9000F17A
:1014FD00E0FE9FFF04FFA3F09000F1E0FFA3E0FEEC
:10150D00D39F506FE0FF131313541FFFA3F09000F0
:10151D00F2E0FF5407F531A3E0FF74102FF582E4DC
:10152D003403F583E0FFAE31A8067480088002C352
:10153D0013D8FCFEEF4EFFF09000F2E004F080B8FF
:10154D00803180269000F4E4F09000F1E0FF7E0001
:10155D009000F0E0FD7C002FFFEC33FEC3EF941EF6
:10156D00EE6480948040037FF8229000F1E004F057
:10157D000214849000F4E0FF9000F1E0FEC39FFFA1
:10158D0025E0FF2443FFF0E0FF90033FE0FEC39F03
:10159D0050249000F0E0FF25E0FFA3E0FEEF2EFFCA
:1015AD0090033FF0E0FFD3947F400BE09480400622
:1015BD009000007400739000EFE0FFC394084003A7
:1015CD0002167C9000F1E0FF2402FF9000EEE0FE99
:1015DD0074102EF582E43402F583EFF09000F1E003
:1015ED00FF9000EEE0FE74202EF582E43403F583C7
:1015FD00EFF09000EFE0FF25E0FF9000EEE0FE74CD
:10160D00002EF582E43402F583EFF09000EEE0FF5A
:10161D0074002FF582E43402F583E004F09000EEBF
:10162D00E0FF74002FF582E43402F583C083C0829D
:10163D00E0FF9000F0E0FEC454F0FEEF4EFFD082CC
:10164D00D083F08581319000F1E0FFF5819000ECC1
:10165D00E0FEA3E0FFF532C0329000ECE0FEA3E027
:10166D00FFEEFF7E00F532C0328531810217739097
:10167D0000EFE0FFC39409400302172D9000EEE048
:10168D00FF5401FFF09000F1E0FF2402FF9000EE07
:10169D00E0FE74202EF582E43402F583EFF0900025
:1016AD00F1E0FF9000EEE0FE74402EF582E434038D
:1016BD00F583EFF09000F0E0FF9000EEE0FE744255
:1016CD002EF582E43403F583EFF09000EEE0FF7029
:1016DD0004D2068002D2079000EEE0FF04FF333300
:1016ED003354F8FFE0FE75F005A42430F582E434A0
:1016FD0002F583EFF08581319000F1E0FFF58190E7
:10170D0000ECE0FEA3E0FFF532C0329000ECE0FE0D
:10171D00A3E0FFEEFF7E00F532C0328531818046B9
:10172D009000EFE0FFB4091C9000ECE0FEA3E0FF99
:03173D00900335E1
:10174000F09000ECE0A3E0EEFF7E00900336F08026
:10175000229000EFE0FFB40A1A9000ECE0FEA3E054
:10176000FF900337F09000ECE0A3E0EEFF7E0090E6
:061770000338F07F0122A6
:101FE600900123EEF0A3EFF0900123E0FEA3E0FFC3
:101FF6004E601E78E3E6FFC394125015758A667527
:102006008CFC900123E0FAA3E0FB7DFF7F01121711
:02201600762230
:0800030053A87F7530002101B4
:08000B0053A87F7530012101AB
:0800130053A87F7530022101A2
:08001B0053A87F753003210199
:0800230053A87F753004210190
:08002B0053A87F753005210187
:0800330053A87F75300621017E
:08003B0053A87F753007210175
:0800430053A87F75300821016C
:08004B0053A87F753009210163
:0800530053A87F75300A21015A
:08005B0053A87F75300B210151
:0800630053A87F75300C210148
:08006B0053A87F75300D21013F
:0800730053A87F75300E210136
:08007B0053A87F75300F21012D
:0800830053A87F753010210124
:08008B0053A87F75301121011B
:0800930053A87F753012210112
:08009B0053A87F753013210109
:0800A30053A87F753014210100
:0800AB0053A87F7530152101F7
:0800B30053A87F7530162101EE
:0800BB0053A87F7530172101E5
:0800C30053A87F7530182101DC
:0800CB0053A87F7530192101D3
:0800D30053A87F75301A2101CA
:0800DB0053A87F75301B2101C1
:0800E30053A87F75301C2101B8
:0800EB0053A87F75301D2101AF
:0800F30053A87F75301E2101A6
:0F00FB0053A87F75301F20050302010A021F76EC
:101F7600858132758135C0D0C0E0C0F0C083C08293
:101F8600858134900336E0FFF533900335E0FFF5A5
:101F96008285338375D018740073853481D082D0DE
:0B1FA60083D0F0D0E0D2AFD0D03222C8
:10206C00300110300503021FA03000040201582279
:04207C000201AF228C
:10010A003000013230010BC0D0D200853041212CA1
:10011A008010858132758135C0D08831D201D2AF45
:10012A00218575D01078DBF608A6F008A68308A604
:10013A0082E58114FF08F6D0E078E0F6900337E014
:10014A00FFF515A3E0FFF58385158274007375D05A
:10015A001078DCE6FFF5F008E6FFF58308E6FFF520
:10016A008208E6FFF58108E6FFF51578DBE6FF85EC
:10017A0015D0854130C20043A88032C0E0C0F0C02B
:10018A0083C08275D01878E5E6FFE5306F6016D235
:10019A000B900336E0FFF533900335E0FFF58285D7
:1001AA00338374007375D01875813A300B062002B8
:1001BA00030205A9C28DC20B753300E533C3940847
:1001CA004003020343AF33EF75F006A424B1F5826E
:1001DA00E43400F583E0FF700302033EAF33EF75AA
:1001EA00F006A424B1F582E43400F583E0FFD39449
:1001FA0000500302033E753400E534C394104003F3
:10020A0002031DAF34EF75F009A42406F582E43425
:10021A0000F583E0FF65336003020318AF34EF751E
:10022A00F009A42404F582E43400F583E0FF6404B1
:10023A007003020318AF33EF75F006A424AFF582FA
:10024A00E43400F583C083C082E0FCA3E0FDAF3450
:10025A007E007401A807088005C333CE33CED8F9CF
:10026A00FFF4FFEEF4FEEC5EFEED5FFFD082D0837A
:10027A00EEF0A3EFF0AF33EF75F006A424AEF582EB
:10028A00E43400F583E0FF6013AF33EF75F006A4A2
:10029A0024AEF582E43400F583E014F0AF34EF7550
:1002AA00F009A42405F582E43400F5837402F0AF62
:1002BA0034EF75F009A42403F582E43400F583E4ED
:1002CA00F0AF34EF75F009A42404F582E43400F5A4
:1002DA0083E4F0AF34EF75F009A42406F582E43420
:1002EA0000F58374FFF0AF34EF75F009A42407F525
:1002FA0082E43400F583E4F0A3F0AF3474002FF500
:10030A0082E43402F583E0FF4401FFF080050534FE
:10031A00020203E5346410601BAF33EF75F006A4E4
:10032A0024B1F582E43400F583E014F00201E6809A
:10033A00030201E605330201C5753403200406757C
:10034A00340302040E30060675340102040E300727
:10035A000675340102040E300C0675340102040ECF
:10036A0078E3E6FFC39410400302040BE6FF74002F
:10037A002FF582E43402F583E0FF20E006753401AC
:10038A0002040E753300E533C394105042AF337440
:10039A00002FF582E43402F583E0FF30E02D78E3A4
:1003AA00E6FF74002FF582E43402F583E0FF540F70
:1003BA00FFAE3374002EF582E43402F583E0FE5476
:1003CA000FFED39F40057534018039053380B77518
:1003DA003301E533C394105023AF3374002FF582F1
:1003EA00E43402F583E0FF30E00E78E3E6FFE5331C
:1003FA006F6005753403800C053380D6753402802E
:10040A0003753401E534B4010A900330E0FF78E65D
:10041A00F68016E534B4020678E67600800BE534F9
:10042A00B4030620020378E6063002030205A57823
:10043A00E1E6FFF58A08E6FFF58C90033AE004F05E
:10044A007006900339E004F0900339E0FEA3E0FF60
:10045A004E700E90033CE004F0700690033BE004FB
:10046A00F0753300E533C394104003020555AF33EA
:0D047A00EF75F009A42403F582E43400F5C9
:1004870083E0FF64016003020550AF33EF75F009A5
:10049700A42407F582E43400F583E0FEA3E0FFD34C
:1004A7009400EE94005003020550AF33EF75F00946
:1004B700A42407F582E43400F58374FFF5F01212E3
:1004C7007CAF33EF75F009A42407F582E43400F517
:1004D70083E0FEA3E0FF4E7070AF33EF75F009A421
:1004E7002405F582E43400F5837401F0AF33EF752A
:1004F700F009A42404F582E43400F583E4F0AF3373
:10050700EF75F009A42406F582E43400F58374FF3F
:10051700F0AF33EF75F009A42407F582E43400F552
:1005270083E4F0A3F0AF33EF75F009A42403F58259
:10053700E43400F583E4F0AF3374002FF582E4343C
:1005470002F583E0FF4401FFF0053302046E9003D8
:1005570031E0FEA3E0FFD39400EE9400401890032F
:1005670032E024FFF0900331E034FFF0E0FEA3E037
:10057700FF4E7002D206900333E0FEA3E0FFD39450
:1005870000EE94004018900334E024FFF09003330A
:10059700E034FFF0E0FEA3E0FF4E7002D207C20294
:1005A7008005C20B020C92900330E0FF78E6E6FE6E
:1005B7006F6003020C90F6E532C3947F4006021D7C
:1005C700BF0207B5300C030206C678E3E6FFC39403
:1005D700105044E6FF74002FF582E43402F583E0FF
:1005E700FFC4540FFF7E028EF0A4FFAEF0E6FD7449
:1005F700202DF582E43403F583E0FD7C00EF2DFF29
:10060700EE3CFEAD32D3ED9FEE6480F8EC7480983B
:100617004045021DBF804078E3E6FF74302FF58226
:10062700E43403F583E0FF7E028EF0A4FFAEF0E62C
:10063700FD74302DF582E43403F583E0FD7C00EF93
:100647002DFFEE3CFEAD32C3ED9FEE6480F8EC74F7
:1006570080984003021DBF78E3E6FFC39410400370
:10066700020753E6FF75F00DA42445F582E4340232
:10067700F583E531F0C2AF858133758107753001A8
:10068700E530C394085030D031AF307E00C3740DCD
:100697009FFFE49EFE78E3E6FD75F00DA42440F588
:1006A70082E43402F583E5822FF582E5833EF58304
:1006B700E531F0053080C9853381D2AF0207537821
:1006C700E4E6FFC394105044E6FF74002FF582E47C
:1006D7003402F583E0FFC4540FFF7E028EF0A4FFBF
:1006E700AEF0E6FD74202DF582E43403F583E0FDDA
:1006F7007C00EF2DFFEE3CFEAD32D3ED9FEE648024
:10070700F8EC7480984045021DBF804078E4E6FF0E
:1007170074302FF582E43403F583E0FF7E028EF018
:10072700A4FFAEF0E6FD74302DF582E43403F583C3
:10073700E0FD7C00EF2DFFEE3CFEAD32C3ED9FEEFA
:100747006480F8EC7480984003021DBF78E4E6FFEC
:10075700C394105059E6FF75F00DA42445F582E4C3
:100767003402F583E531F0C2AF85813375810775B2
:100777003001E530C394085030D031AF307E00C32C
:10078700740D9FFFE49EFE78E4E6FD75F00DA4244A
:1007970040F582E43402F583E5822FF582E5833E56
:1007A700F583E531F0053080C9853381D2AF300C50
:1007B7000302098F75310078E3E6FF08F630070377
:1007C700433102300603433101E5316030E53164DE
:1007D70003601730060778E37610020991200703B4
:1007E70002099178E3761102099178E3E6FFB410E4
:0D07F70005761102099178E3761002099150
:100804002004030208D7753300753100E531C39421
:10081400105034AF3174002FF582E43402F583E0D4
:10082400FF30E015AF3174002FF582E43402F58314
:10083400E0FFC313FF5407F530E530D3953340038D
:10084400853033053180C578E4E6FF04F531E531C0
:10085400C394105036AF3174002FF582E43402F59E
:1008640083E0FFC313FF5407F530E533B53018AF09
:100874003174002FF582E43402F583E0FF30E007A1
:1008840078E3A631020991053180C375310078E41B
:10089400E6FFE531D39F4003020991AF3174002F85
:1008A400F582E43402F583E0FFC313FF5407F53007
:1008B400E533B53017AF3174002FF582E43402F517
:1008C40083E0FF30E00618A631020991053180BEAD
:1008D40002099178E4E6FF04F531E531C394105040
:1008E4004EAF3174002FF582E43402F583E0FF301B
:1008F400E039AF3174002FF582E43402F583E0FF70
:10090400C313FF5407FF602378E3A631AF317400AB
:100914002FF582E43402F583E0FFC313FF5407F597
:1009240030E53004FF900330F08062053180AB7510
:10093400310078E4E6FFE531D39F5051AF317400C4
:100944002FF582E43402F583E0FF30E038AF3174F0
:10095400002FF582E43402F583E0FFC313FF54074C
:10096400FF602218A631AF3174002FF582E43402FF
:10097400F583E0FFC313FF5407F530E53004FF901F
:100984000330F08008053180A98002C20CC209C27C
:100994000A78E4E6FFC394104002D20978E3E6FF44
:1009A400C394104002D20AA20A82094003020A45F3
:1009B40078E4E6FF24F0F530AF3074202FF582E4BC
:1009C4003402F583E532F0753105E531D394004006
:1009D40025D032AF31AE30EE75F005A4242FF58268
:1009E400E43402F583E5822FF582E43583F583E56B
:1009F40032F0153180D478E3E6FF24F0F530753118
:100A040000E531C394055026AF31AE30EE75F005E4
:100A1400A42430F582E43402F583E5822FF582E4E0
:100A24003583F583E0FFF532C032053180D3AF3032
:100A340074202FF582E43402F583E0FFF532020CD2
:100A440006A20A72095003020AD578E4E6FF74107C
:100A54002FF582E43402F583E532F0753105E53192
:100A6400D394004026D032AF3178E4E6FE75F00D21
:100A7400A4243FF582E43402F583E5822FF582E471
:100A84003583F583E532F0153180D3753100E531D6
:100A9400C394055027AF3178E3E6FE75F00DA42426
:100AA40040F582E43402F583E5822FF582E4358350
:100AB400F583E0FFF532C032053180D278E3E6FFFA
:100AC40074102FF582E43402F583E0FFF532020C52
:100AD40006A20AB0094003020B6A78E4E6FF741028
:100AE4002FF582E43402F583E532F0753105E53102
:100AF400D394004026D032AF3178E4E6FE75F00D91
:100B0400A4243FF582E43402F583E5822FF582E4E0
:100B14003583F583E532F0153180D378E3E6FF249D
:100B2400F0F530753100E531C394055026AF31AE90
:100B340030EE75F005A42430F582E43402F583E543
:100B4400822FF582E43583F583E0FFF532C0320568
:100B54003180D3AF3074202FF582E43402F583E082
:100B6400FFF532020C06A209B00A4003020C067813
:0D0B7400E4E6FF24F0F530AF3074202FF5DB
:100B810082E43402F583E532F0753100E531C39436
:100B910005502FD032AF317E00C374059FFFE49E14
:100BA100FEAD30ED75F005A4242FF582E43402F595
:100BB10083E5822FF582E5833EF583E532F0053149
:100BC10080CA753100E531C394055027AF3178E310
:100BD100E6FE75F00DA42440F582E43402F583E5C8
:100BE100822FF582E43583F583E0FFF532C03205CB
:100BF1003180D278E3E6FF74102FF582E43402F5F8
:100C010083E0FFF532300A03020C8E78E3E6FF75CC
:100C1100F00DA42445F582E43402F583E0FFF532BA
:100C2100C03278E3E6FF75F00DA42446F582E43482
:100C310002F583E0FFF532C032C2AF8581307581A4
:100C410002753107E531C3940D5027AF3178E3E6E2
:100C5100FE75F00DA42440F582E43402F583E582AB
:100C61002FF582E43583F583E0FFF532D03205318B
:100C710080D2853081D2AF78E3E6FF74102FF58200
:100C8100E43402F583E0FFF532D001D000C20AC29C
:100C910009D082D083D0F0D0E053A87FC201D0D058
:080CA10085328143A880322254
:101EDC009000FEEBF0A3EAF0A3E9F0A3EDF0900084
:101EEC00FEE0FBA3E0FAA3E0F9AE02FF900104EEE2
:101EFC00F0A3EFF0900102E0FEA3E0FFD39400EE1C
:101F0C0094004028900101E0FF900104E475F00179
:101F1C00121292ADF0FC8D82F583EFF0900103E08C
:0D1F2C0024FFF0900102E034FFF080C82295
:101D1300787FE4F6D8FD7B017A02790090010274A2
:101D230001F0A374FFF07D00121EDC78E5760178E4
:101D3300E276D81876EFC205C20178E37600D204C2
:101D43007530009003307405F0900339E4F0A3F08C
:101D530090033BF0A3F078E7F67BFF7A1979E1AEC5
:101D630002AF019000F07402F07B007D001213EDCE
:101D73007BFF7A20796CAE02AF019000F0E4F07B38
:101D830009FD1213ED7BFF7A20796CAE02AF01904F
:101D930000F0E4F07B0AFD1213ED900320E0FF2432
:101DA300FEF58178E2E6FFF58C18E6FFF58A4389B4
:101DB30001D2A9D28CD2AF1219E180FE1220388051
:051DC300FE12206C225D
:10177600900106EFF0A3EDF0A3EAF0A3EBF0C2AF01
:1017860078E3E6FFA3F0900106E0FF640160030240
:1017960018A8900108E0FEA3E0FF4E7005D2AF7FC7
:1017A600012290010AE0FFC39410404E900106E02A
:1017B600FF6401704290010AE0FFB4101AC206905D
:1017C6000108E0FEA3E0FF900331EEF0A3EFF0D2B4
:1017D60002D2AFD28D802090010AE0FFB41118C268
:1017E60007900108E0FEA3E0FF900333EEF0A3EFBD
:1017F600F0D202D2AFD28D7F0122900106E0FF9097
:10180600010AE0FE75F009A42404F582E43400F52B
:1018160083EFF0900107E0FF90010AE0FE75F00902
:10182600A42406F582E43400F583EFF0900108E085
:10183600FEA3E0FFA3E0FD75F009A42407F582E40A
:101846003400F583EEF0A3EFF090010AE0FF75F0A7
:1018560009A42405F582E43400F583E4F090010A36
:10186600E0FF75F009A42403F582E43400F58374DF
:1018760001F090010AE0FF74002FF582E43402F5CE
:1018860083E0FF54FEFFF0D202D2AFD28D90010A60
:10189600E0FF75F009A42405F582E43400F583E041
:1018A600FF2290010AE0FF75F009A42404F582E402
:1018B6003400F583E0FF6005D2AF7F002290010679
:1018C600E0FF6401600DA3E0FFC394084005D2AFBA
:1018D6007F0022900106E0FF90010AE0FE75F00904
:1018E600A42404F582E43400F583EFF0900107E0C8
:1018F600FF90010AE0FE75F009A42406F582E4349F
:1019060000F583EFF0900108E0FEA3E0FFA3E0FD01
:1019160075F009A42407F582E43400F583EEF0A3FC
:10192600EFF090010AE0FF75F009A42405F582E4C2
:101936003400F583E4F0900106E0FF64016057A3EC
:10194600E0FFF46051E075F006A424AFF582E434BC
:1019560000F583C083C082E0FCA3E0FD90010AE0AD
:10196600FF7E007401A807088005C333CE33CED8A6
:10197600F9FFEC4EFEED4FFFD082D083EEF0A3EFE1
:10198600F0900107E0FF75F006A424AEF582E4347A
:1019960000F583E004F090010AE0FF75F009A42445
:1019A60003F582E43400F5837401F090010AE0FF48
:1019B60074002FF582E43402F583E0FF54FEFFF055
:1019C600D202D2AFD28D90010AE0FF75F009A424AD
:0B19D60005F582E43400F583E0FF22F9
:1019E100C2AF7B007A007900900119EBF0A3F0A35C
:1019F100F090011CF0A3F0A3F0C202C208900127ED
:101A010004F0900127E0FFC394105043E075F00902
:101A1100A42404F582E43400F583E4F0900127E086
:101A2100FF75F009A42403F582E43400F5837404FE
:101A3100F0900127E0FF75F009A42407F582E43452
:101A410000F583E4F0A3F0900127E004F080B39067
:101A51000331E4F0A3F0A3F0A3F0900127F090018B
:101A610027E0FFC39408506BE075F006A424ACF5A1
:101A710082E43400F583E4F0900127E0FF75F0067D
:101A8100A424ADF582E43400F58374FFF0900127BE
:101A9100E0FF75F006A424AEF582E43400F583E49A
:101AA100F0900127E0FF75F006A424AFF582E4343D
:101AB10000F583E4F0A3F0900127E0FF75F006A4A0
:101AC10024B1F582E43400F583E4F0900127E004C9
:101AD100F0808B121FB1D208D2AFC2AF9001277430
:101AE10001F0900127E0FFC394125035E074442FB8
:101AF100F582E43403F583E0FF30E01D900127E037
:101B0100FF74442FF582E43403F583E0FF54FEFFB4
:101B1100F0900127E0FF120CA9900127E004F0806A
:101B2100C1D2AF900119E0FBA3E0FAA3E0F9EA49C1
:101B31004B60A7900119E0A3E0A3E01213E7809A9C
:011B41002281
:1020380090011CE0FBA3E0FAA3E0F9EA494B600C2D
:0F20480090011CE0A3E0A3E01213E72280FE2228
:100CA90090010BEFF0E0FFD3941140037FFF2290F6
:100CB900010BE0FF70037FFF2290010EE533F090F6
:100CC900010BE0FFC394104003020DAEE074202F26
:100CD900F582E43403F583E0FF70037FFF2290017E
:100CE9000BE0FF74202FF582E43403F583E024FE42
:100CF900F090010BE0FF74002FF582E43402F583D4
:100D0900E0FFC4540FFF90010CF090010BE0FF7459
:100D1900202FF582E43403F583E0FF04F53374BE34
:100D29002533F533C313FF04F53390010CE0FF5469
:100D390007FFF0E02533F090010BE0FF74002FF579
:100D490082E43402F583E4F090010BE0FF74102F84
:100D5900F582E43402F583E4F090010BE0FF74209E
:100D69002FF582E43403F583E4F090010FF090014C
:100D79000FE0FFC3940D4003020E8DE090010BE0DC
:100D8900FE75F00DA42440F582E43402F583E58272
:100D99002FF582E43583F583E4F090010FE004F048
:100DA90080CC020E8D90010BE0FF641070699003F6
:100DB90040E0FF70037FFF22900342E024FEF0E051
:100DC900FF90010CF0900340E0FF04F53374BE2559
:100DD90033F533C313FF04F53390010CE02533F0E9
:100DE900C206900340E4F0900342F0900220F09094
:100DF900010FF090010FE0FFC394054003020E8D2F
:100E0900E074302FF582E43402F583E4F090010FA9
:100E1900E004F080DE806D90010BE0FF64117064E6
:100E2900900341E0FF70037FFF22900343E024FE1B
:100E3900F0E0FF90010CF0900341E0FF04F53374FA
:100E4900BE2533F533C313FF04F53390010CE025B8
:100E590033F0C207900341E4F0900343F09002217C
:100E6900F090010FF090010FE0FFC394055015E0D9
:100E790074352FF582E43402F583E4F090010FE034
:100E890004F080E190010CE0FFE533C39F5044E595
:100E990033131313541FF532E5335407F531FFF8B3
:100EA9007480088002C313D8FCFFF4FF90010DF091
:100EB900AF3274102FF582E43403F583C083C08206
:100EC900E0FF90010DE0FEEF5EFFD082D083F005D8
:100ED9003380B190010BE0FFB41009900331E4F0C5
:100EE900A3F0800F90010BE0FFB41107900333E4E6
:100EF900F0A3F090010FE4F090010FE0FFC3940814
:100F09004003020FEF90010BE0FF7E007401A80778
:100F1900088005C333CE33CED8F9FF90010FE0FD29
:100F290075F006A424AFF582E43400F583E0FCA350
:100F3900E0FDEE5CFEEF5DFF4E607090010FE0FF9B
:100F490075F006A424AFF582E43400F583C083C0AC
:100F590082E0FCA3E0FD90010BE0FF7E007401A894
:100F690007088005C333CE33CED8F9FFF4FFEEF47A
:100F7900FEEC5EFEED5FFFD082D083EEF0A3EFF0D2
:100F890090010FE0FF75F006A424AEF582E4340069
:100F9900F583E0FF601590010FE0FF75F006A424CA
:100FA900AEF582E43400F583E014F090010FE0FF20
:100FB90075F006A424ADF582E43400F583E0FF90D2
:100FC900010BE0FEEFB5061590010FE0FF75F00685
:100FD900A424ADF582E43400F58374FFF090010F89
:100FE900E004F0020F0190010BE0FF75F009A42461
:100FF90004F582E43400F583E4F090010BE0FF7519
:10100900F009A42405F582E43400F5837401F09015
:10101900010BE0FF75F009A42406F582E43400F51C
:101029008374FFF090010BE0FF75F009A42407F524
:1010390082E43400F583E4F0A3F090010BE0FF753E
:10104900F009A42403F582E43400F5837404F090D4
:09105900010EE0FFF5337F0122D6
:0F20800053890F438910758D00758B00C28E2216
:101B42009000F5E4F09000F5E0FFC39408503F12D6
:101B52001DC89000F5E0FD25E024DCF582E43400A8
:101B6200F583EEF0A3EFF09000F5E0FF25E024DC32
:101B7200F582E43400F583E0FEA3E0FF4E600690B8
:101B820000F5E004F07F017E00121FE680B7121C10
:101B9200469000F6121390000000009000F57402C7
:101BA200F09000F5E0FFC39406503DA3E0F8A3E0F7
:101BB200F9A3E0FAA3E0FB9000F5E025E024DCF5D0
:101BC20082E43400F583E0FEA3E0FFE4FCFDEB2FAA
:101BD200FFEA3EFEE93DFDE83CFC9000F61213846C
:101BE2009000F5E004F080B97B047A007900780077
:101BF2009000F6E0FCA3E0FDA3E0FEA3E0FF1212DA
:101C0200E49000FAEEF0A3EFF09000FAE0FCA3E01B
:101C1200FDE412116D7BF97A147948783E12106254
:101C22001211A69000FCEEF0A3EFF09000FCE0FE93
:101C3200A3E0FF4E7003021B429000FCE0A3E022EF
:031C4200021B4240
:011C4500227C
:101DC800A2AFE433FF900110F0C2AF758D00758BA0
:101DD80000C292900113E4F0A3740AF09001137406
:101DE800FFF5F0121292AFF0FEEF4E60030080ECA8
:101DF800D292900113E4F0A37402F090011374FFDF
:101E0800F5F0121292AFF0FEEF4E60030080ECC2C4
:101E1800923091FDD28E900113E4F0A304F030913A
:101E280011900113E475F001121292AFF0FEEF4E1B
:101E380070ECC28EAF8D7E00EF7F00FEAD8B7C0014
:101E4800EFEDFF900111EEF0A3EFF0758D00758BAB
:101E580000900110E0FF24FF92AFA3E0FEA3E0FF93
:011E68002257
:101C4600900115E4F0900115E0FFC39407400302EC
:101C56001D12A3E4F0900115E0FFC374079FFFA3D4
:101C6600E0FEC39F4003021D09E0FF25E024DEF5E8
:101C760082E43400F583E0FEA3E0FF900116E0FD68
:101C860025E024DCF582E43400F583E0FCA3E0FDE6
:101C9600D39FEC9E4064900116E0FF25E024DCF51E
:101CA60082E43400F583E0FEA3E0FF900117EEF036
:101CB600A3EFF0900116E0FF25E024DEF582E43480
:101CC60000F583E0FEA3E0FF900116E0FD25E02489
:101CD600DCF582E43400F583EEF0A3EFF090011713
:101CE600E0FEA3E0FF900116E0FD25E024DEF5828C
:101CF600E43400F583EEF0A3EFF0900116E004F073
:0C1D0600021C5B900115E004F0021C4B75
:011D120022AE
:101F3900900125EFF0A3EDF0D2A0D2A1D2A2D2A3B5
:101F4900E0FF90202893FFF580900125E0FF121310
:101F5900C11F6A001F6D011F70021F730300001F5C
:0D1F690075C2A022C2A122C2A222C2A322E0
:102018003F065B4F666D7D077F6F777C395E797110
:10202800C0F9A4B0999282F880908883C6A1868E60
:0C208F00758000D2A0D2A1D2A2D2A32260
:10106200EC4D6011E8497017ED33EC3304600DE488
:10107200FCFFFEFD22E933E8330470F8021212127B
:1010820011DD58046009E4CC24815006285009027D
:10109200121C284003021219C0E0EB4A7044B980C6
:1010A20006D0E0FB021208EF4E701CBD8008EBFF79
:1010B200EAFEE9FD80EBE98DF0A4FEE5F002114BBA
:1010C200E9CDF9EAFEEBFFEF89F0A4FCE5F0CE8969
:1010D200F0A42EFFE435F0CD89F0A42DFEE435F026
:1010E2008067EF4E7005BD80D780C3EF8BF0A4AC54
:1010F200F0EE8BF0A42CFCE435F0F8EF8AF0A42C8F
:10110200E5F038FCE433CB8DF0A42CFCE5F03BF8A1
:10111200EE8AF0A42CFCE5F038F8E433CF89F0A491
:101122002CFCE5F038CF3400CE89F0A42FFFE5F097
:101132003EFEE433C98DF0A42EFEE5F039CD8AF0EF
:10114200A42FFFE5F03EFEE43DFD33D0E0FB500767
:101152000BBB000F02121CEC2CFCEF33FFEE33FE34
:06116200ED33FD0211F463
:1011680075F020800E75F010800575F0087D007E02
:10117800007F003392D530D503121376EC3340103C
:10118800EF33FFEE33FEED33FDEC33FCD5F0ED220B
:0E119800E5F0247EA2D513CC92E7CDCEFF2247
:1011A600EDD2E7CD33EC3392D524814006E4FFFE41
:1011B600FDFC22FCE4CFCECDCC24E0501174FF80A0
:1011C600EDC3CC13CCCD13CDCE13CECF13CF04703D
:0711D600F030D5DE021376B4
:1011DD00E9D2E7C933E833F892D5EDD2E7CD33EC58
:0711ED0033FC5002B2D522D1
:1011F400EC30E7100FBF000C0EBE00080DBD00045C
:101204000BEB6014A2D5EB13FCED92E7FD2274FF07
:10121400FCFDFEFF22E480F8A2D574FF13FC7D8060
:03122400E480EF74
:0300000002209B40
:0C209B00787FE4F6D8FD7581E7021D1384
:10122700BC000BBE0029EF8DF084FFADF022E4CCAB
:10123700F875F008EF2FFFEE33FEEC33FCEE9DEC74
:10124700984005FCEE9DFE0FD5F0E9E4CEFD22EDBA
:10125700F8F5F0EE8420D21CFEADF075F008EF2F04
:10126700FFED33FD4007985006D5F0F222C398FDF5
:051277000FD5F0EA2292
:10127C00C5F0F8A3E028F0C5F0F8E58215827002FD
:06128C001583E038F0229A
:10129200A3F8E0C5F025F0F0E5821582700215830F
:0612A200E0C838F0E8226C
:1012A80075F008758200EF2FFFEE33FECD33CDCCFD
:1012B80033CCC58233C5829BED9AEC99E582984080
:1012C8000CF582EE9BFEED9AFDEC99FC0FD5F0D65D
:1012D800E4CEFBE4CDFAE4CCF9A88222B800C1B987
:1012E8000059BA002DEC8BF084CFCECDFCE5F0CBC5
:1012F800F97818EF2FFFEE33FEED33FDEC33FCEBFE
:1013080033FB10D703994004EB99FB0FD8E5E4F9B8
:10131800FA227818EF2FFFEE33FEED33FDEC33FCA5
:10132800C933C910D7059BE99A4007EC9BFCE99A99
:10133800F90FD8E0E4C9FAE4CCFB2275F010EF2FDE
:10134800FFEE33FEED33FDCC33CCC833C810D707DE
:101358009BEC9AE899400AED9BFDEC9AFCE899F819
:0E1368000FD5F0DAE4CDFBE4CCFAE4C8F922AC
:0E137600C3E49FFFE49EFEE49DFDE49CFC2288
:0C138400ECF0A3EDF0A3EEF0A3EFF022DC
:10139000A8828583F0D083D0821213A71213A712DC
:1013A00013A71213A7E473E493A3C583C5F0C58301
:1013B000C8C582C8F0A3C583C5F0C583C8C582C8A7
:0113C000220A
:1013C100D083D082F8E4937012740193700DA3A3BB
:1013D10093F8740193F5828883E4737402936860CF
:0613E100EFA3A3A380DFCF
:0613E7008A838982E47391
:00000001FF
