:0F1AF8004200EF00004200F100004200ED00004C
:101A7D00D2909000F0E004F070069000EFE004F0DA
:0C1A8D00B2907F147E001219FA80E7224C
:101A9900D2919000F2E004F070069000F1E004F0B9
:0C1AA900B2917F147E001219FA80E7222F
:101ACF0053890F438910758DFC758B18C28FD2AB5C
:051ADF00D2BBD28E22F3
:101AB5009000EEE004F070069000EDE004F0758D06
:0A1AC500FC758B18B292121AE4228D
:1018F800121ACF7BFF7A1A797DAE02AF019000E011
:101908007405F07B047D01121062EF6401600280AF
:10191800FE7BFF7A1A7999AE02AF019000E0740558
:10192800F07B047D02121062EF6401600280FE7B8E
:10193800FF7A1A79B5AE02AF019000E0E4F07B09B6
:10194800FD1210627BFF7A1A79B5AE02AF019000E2
:0A195800E0E4F07B0AFD12106222A9
:0800030053A87F7530002101B4
:08000B0053A87F7530012101AB
:0800130053A87F7530022101A2
:08001B0053A87F753003210199
:0800230053A87F753004210190
:08002B0053A87F753005210187
:0800330053A87F75300621017E
:08003B0053A87F753007210175
:0800430053A87F75300821016C
:08004B0053A87F753009210163
:0800530053A87F75300A21015A
:08005B0053A87F75300B210151
:0800630053A87F75300C210148
:08006B0053A87F75300D21013F
:0800730053A87F75300E210136
:08007B0053A87F75300F21012D
:0800830053A87F753010210124
:08008B0053A87F75301121011B
:0800930053A87F753012210112
:08009B0053A87F753013210109
:0800A30053A87F753014210100
:0800AB0053A87F7530152101F7
:0800B30053A87F7530162101EE
:0800BB0053A87F7530172101E5
:0800C30053A87F7530182101DC
:0800CB0053A87F7530192101D3
:0800D30053A87F75301A2101CA
:0800DB0053A87F75301B2101C1
:0800E30053A87F75301C2101B8
:0800EB0053A87F75301D2101AF
:0800F30053A87F75301E2101A6
:0F00FB0053A87F75301F20050302010A0219BFA9
:1019BF00858132758135C0D0C0E0C0F0C083C08250
:1019CF00858134900336E0FFF533900335E0FFF562
:1019DF008285338375D018740073853481D082D09B
:0B19EF0083D0F0D0E0D2AFD0D0322285
:101AE4003001103005030219E930000402015822C4
:041AF4000201AF221A
:10010A003000013230010BC0D0D200853041212CA1
:10011A008010858132758135C0D08831D201D2AF45
:10012A00218575D01078DBF608A6F008A68308A604
:10013A0082E58114FF08F6D0E078E0F6900337E014
:10014A00FFF515A3E0FFF58385158274007375D05A
:10015A001078DCE6FFF5F008E6FFF58308E6FFF520
:10016A008208E6FFF58108E6FFF51578DBE6FF85EC
:10017A0015D0854130C20043A88032C0E0C0F0C02B
:10018A0083C08275D01878E5E6FFE5306F6016D235
:10019A000B900336E0FFF533900335E0FFF58285D7
:1001AA00338374007375D01875813A300B062002B8
:1001BA00030205A9C28DC20B753300E533C3940847
:1001CA004003020343AF33EF75F006A424B1F5826E
:1001DA00E43400F583E0FF700302033EAF33EF75AA
:1001EA00F006A424B1F582E43400F583E0FFD39449
:1001FA0000500302033E753400E534C394104003F3
:10020A0002031DAF34EF75F009A42406F582E43425
:10021A0000F583E0FF65336003020318AF34EF751E
:10022A00F009A42404F582E43400F583E0FF6404B1
:10023A007003020318AF33EF75F006A424AFF582FA
:10024A00E43400F583C083C082E0FCA3E0FDAF3450
:10025A007E007401A807088005C333CE33CED8F9CF
:10026A00FFF4FFEEF4FEEC5EFEED5FFFD082D0837A
:10027A00EEF0A3EFF0AF33EF75F006A424AEF582EB
:10028A00E43400F583E0FF6013AF33EF75F006A4A2
:10029A0024AEF582E43400F583E014F0AF34EF7550
:1002AA00F009A42405F582E43400F5837402F0AF62
:1002BA0034EF75F009A42403F582E43400F583E4ED
:1002CA00F0AF34EF75F009A42404F582E43400F5A4
:1002DA0083E4F0AF34EF75F009A42406F582E43420
:1002EA0000F58374FFF0AF34EF75F009A42407F525
:1002FA0082E43400F583E4F0A3F0AF3474002FF500
:10030A0082E43402F583E0FF4401FFF080050534FE
:10031A00020203E5346410601BAF33EF75F006A4E4
:10032A0024B1F582E43400F583E014F00201E6809A
:10033A00030201E605330201C5753403200406757C
:10034A00340302040E30060675340102040E300727
:10035A000675340102040E300C0675340102040ECF
:10036A0078E3E6FFC39410400302040BE6FF74002F
:10037A002FF582E43402F583E0FF20E006753401AC
:10038A0002040E753300E533C394105042AF337440
:10039A00002FF582E43402F583E0FF30E02D78E3A4
:1003AA00E6FF74002FF582E43402F583E0FF540F70
:1003BA00FFAE3374002EF582E43402F583E0FE5476
:1003CA000FFED39F40057534018039053380B77518
:1003DA003301E533C394105023AF3374002FF582F1
:1003EA00E43402F583E0FF30E00E78E3E6FFE5331C
:1003FA006F6005753403800C053380D6753402802E
:10040A0003753401E534B4010A900330E0FF78E65D
:10041A00F68016E534B4020678E67600800BE534F9
:10042A00B4030620020378E6063002030205A57823
:10043A00E1E6FFF58A08E6FFF58C90033AE004F05E
:10044A007006900339E004F0900339E0FEA3E0FF60
:10045A004E700E90033CE004F0700690033BE004FB
:10046A00F0753300E533C394104003020555AF33EA
:0D047A00EF75F009A42403F582E43400F5C9
:1004870083E0FF64016003020550AF33EF75F009A5
:10049700A42407F582E43400F583E0FEA3E0FFD34C
:1004A7009400EE94005003020550AF33EF75F00946
:1004B700A42407F582E43400F58374FFF5F0121ADB
:1004C7002CAF33EF75F009A42407F582E43400F567
:1004D70083E0FEA3E0FF4E7070AF33EF75F009A421
:1004E7002405F582E43400F5837401F0AF33EF752A
:1004F700F009A42404F582E43400F583E4F0AF3373
:10050700EF75F009A42406F582E43400F58374FF3F
:10051700F0AF33EF75F009A42407F582E43400F552
:1005270083E4F0A3F0AF33EF75F009A42403F58259
:10053700E43400F583E4F0AF3374002FF582E4343C
:1005470002F583E0FF4401FFF0053302046E9003D8
:1005570031E0FEA3E0FFD39400EE9400401890032F
:1005670032E024FFF0900331E034FFF0E0FEA3E037
:10057700FF4E7002D206900333E0FEA3E0FFD39450
:1005870000EE94004018900334E024FFF09003330A
:10059700E034FFF0E0FEA3E0FF4E7002D207C20294
:1005A7008005C20B020C92900330E0FF78E6E6FE6E
:1005B7006F6003020C90F6E532C3947F4006021881
:1005C700630207B5300C030206C678E3E6FFC3945F
:1005D700105044E6FF74002FF582E43402F583E0FF
:1005E700FFC4540FFF7E028EF0A4FFAEF0E6FD7449
:1005F700202DF582E43403F583E0FD7C00EF2DFF29
:10060700EE3CFEAD32D3ED9FEE6480F8EC7480983B
:100617004045021863804078E3E6FF74302FF58287
:10062700E43403F583E0FF7E028EF0A4FFAEF0E62C
:10063700FD74302DF582E43403F583E0FD7C00EF93
:100647002DFFEE3CFEAD32C3ED9FEE6480F8EC74F7
:100657008098400302186378E3E6FFC394104003D1
:10066700020753E6FF75F00DA42445F582E4340232
:10067700F583E531F0C2AF858133758107753001A8
:10068700E530C394085030D031AF307E00C3740DCD
:100697009FFFE49EFE78E3E6FD75F00DA42440F588
:1006A70082E43402F583E5822FF582E5833EF58304
:1006B700E531F0053080C9853381D2AF0207537821
:1006C700E4E6FFC394105044E6FF74002FF582E47C
:1006D7003402F583E0FFC4540FFF7E028EF0A4FFBF
:1006E700AEF0E6FD74202DF582E43403F583E0FDDA
:1006F7007C00EF2DFFEE3CFEAD32D3ED9FEE648024
:10070700F8EC7480984045021863804078E4E6FF6F
:1007170074302FF582E43403F583E0FF7E028EF018
:10072700A4FFAEF0E6FD74302DF582E43403F583C3
:10073700E0FD7C00EF2DFFEE3CFEAD32C3ED9FEEFA
:100747006480F8EC748098400302186378E4E6FF4D
:10075700C394105059E6FF75F00DA42445F582E4C3
:100767003402F583E531F0C2AF85813375810775B2
:100777003001E530C394085030D031AF307E00C32C
:10078700740D9FFFE49EFE78E4E6FD75F00DA4244A
:1007970040F582E43402F583E5822FF582E5833E56
:1007A700F583E531F0053080C9853381D2AF300C50
:1007B7000302098F75310078E3E6FF08F630070377
:1007C700433102300603433101E5316030E53164DE
:1007D70003601730060778E37610020991200703B4
:1007E70002099178E3761102099178E3E6FFB410E4
:0D07F70005761102099178E3761002099150
:100804002004030208D7753300753100E531C39421
:10081400105034AF3174002FF582E43402F583E0D4
:10082400FF30E015AF3174002FF582E43402F58314
:10083400E0FFC313FF5407F530E530D3953340038D
:10084400853033053180C578E4E6FF04F531E531C0
:10085400C394105036AF3174002FF582E43402F59E
:1008640083E0FFC313FF5407F530E533B53018AF09
:100874003174002FF582E43402F583E0FF30E007A1
:1008840078E3A631020991053180C375310078E41B
:10089400E6FFE531D39F4003020991AF3174002F85
:1008A400F582E43402F583E0FFC313FF5407F53007
:1008B400E533B53017AF3174002FF582E43402F517
:1008C40083E0FF30E00618A631020991053180BEAD
:1008D40002099178E4E6FF04F531E531C394105040
:1008E4004EAF3174002FF582E43402F583E0FF301B
:1008F400E039AF3174002FF582E43402F583E0FF70
:10090400C313FF5407FF602378E3A631AF317400AB
:100914002FF582E43402F583E0FFC313FF5407F597
:1009240030E53004FF900330F08062053180AB7510
:10093400310078E4E6FFE531D39F5051AF317400C4
:100944002FF582E43402F583E0FF30E038AF3174F0
:10095400002FF582E43402F583E0FFC313FF54074C
:10096400FF602218A631AF3174002FF582E43402FF
:10097400F583E0FFC313FF5407F530E53004FF901F
:100984000330F08008053180A98002C20CC209C27C
:100994000A78E4E6FFC394104002D20978E3E6FF44
:1009A400C394104002D20AA20A82094003020A45F3
:1009B40078E4E6FF24F0F530AF3074202FF582E4BC
:1009C4003402F583E532F0753105E531D394004006
:1009D40025D032AF31AE30EE75F005A4242FF58268
:1009E400E43402F583E5822FF582E43583F583E56B
:1009F40032F0153180D478E3E6FF24F0F530753118
:100A040000E531C394055026AF31AE30EE75F005E4
:100A1400A42430F582E43402F583E5822FF582E4E0
:100A24003583F583E0FFF532C032053180D3AF3032
:100A340074202FF582E43402F583E0FFF532020CD2
:100A440006A20A72095003020AD578E4E6FF74107C
:100A54002FF582E43402F583E532F0753105E53192
:100A6400D394004026D032AF3178E4E6FE75F00D21
:100A7400A4243FF582E43402F583E5822FF582E471
:100A84003583F583E532F0153180D3753100E531D6
:100A9400C394055027AF3178E3E6FE75F00DA42426
:100AA40040F582E43402F583E5822FF582E4358350
:100AB400F583E0FFF532C032053180D278E3E6FFFA
:100AC40074102FF582E43402F583E0FFF532020C52
:100AD40006A20AB0094003020B6A78E4E6FF741028
:100AE4002FF582E43402F583E532F0753105E53102
:100AF400D394004026D032AF3178E4E6FE75F00D91
:100B0400A4243FF582E43402F583E5822FF582E4E0
:100B14003583F583E532F0153180D378E3E6FF249D
:100B2400F0F530753100E531C394055026AF31AE90
:100B340030EE75F005A42430F582E43402F583E543
:100B4400822FF582E43583F583E0FFF532C0320568
:100B54003180D3AF3074202FF582E43402F583E082
:100B6400FFF532020C06A209B00A4003020C067813
:0D0B7400E4E6FF24F0F530AF3074202FF5DB
:100B810082E43402F583E532F0753100E531C39436
:100B910005502FD032AF317E00C374059FFFE49E14
:100BA100FEAD30ED75F005A4242FF582E43402F595
:100BB10083E5822FF582E5833EF583E532F0053149
:100BC10080CA753100E531C394055027AF3178E310
:100BD100E6FE75F00DA42440F582E43402F583E5C8
:100BE100822FF582E43583F583E0FFF532C03205CB
:100BF1003180D278E3E6FF74102FF582E43402F5F8
:100C010083E0FFF532300A03020C8E78E3E6FF75CC
:100C1100F00DA42445F582E43402F583E0FFF532BA
:100C2100C03278E3E6FF75F00DA42446F582E43482
:100C310002F583E0FFF532C032C2AF8581307581A4
:100C410002753107E531C3940D5027AF3178E3E6E2
:100C5100FE75F00DA42440F582E43402F583E582AB
:100C61002FF582E43583F583E0FFF532D03205318B
:100C710080D2853081D2AF78E3E6FF74102FF58200
:100C8100E43402F583E0FFF532D001D000C20AC29C
:100C910009D082D083D0F0D0E053A87FC201D0D058
:080CA10085328143A880322254
:101962009000E5EBF0A3EAF0A3E9F0A3EDF090001C
:10197200E5E0FBA3E0FAA3E0F9AE02FF9000EBEE94
:10198200F0A3EFF09000E9E0FEA3E0FFD39400EEB5
:10199200940040289000E8E0FF9000EBE475F0012D
:1019A200121A42ADF0FC8D82F583EFF09000EAE06E
:0D19B20024FFF09000E9E034FFF080C8222F
:1017B700787FE4F6D8FD7B017A0279009000E9741E
:1017C70001F0A374FFF07D0012196278E5760178C5
:1017D700E276D81876EFC205C20178E37600D20424
:1017E7007530009003307405F0900339E4F0A3F0EE
:1017F70090033BF0A3F078E7F67BFF7A167956AEB5
:1018070002AF019000E07402F07B007D00121062CD
:101817007BFF7A1A79E4AE02AF019000E0E4F07B37
:1018270009FD1210627BFF7A1A79E4AE02AF0190CC
:1018370000E0E4F07B0AFD121062900320E0FF2431
:10184700FEF58178E2E6FFF58C18E6FFF58A438915
:1018570001D2A9D28CD2AF12165680FE121A5E8020
:05186700FE121AE4224C
:101062009000DCEEF0A3EFF0A3EDF0A3EBF0900024
:10107200E4E4F03008037FFF229000DFE0FFD39426
:101082000A40037FFE229000DFE0FF640970030242
:1010920013AAE0640A70030213CE9000DEE0FFD3CD
:1010A200941140037FFD229000DCE0FEA3E0FF4E9E
:1010B20070037FFC229000DFE0FFC394085022A35C
:1010C200E0FF940640037FFB229000DEE0FF740005
:1010D2002FF582E43402F583E0FF60127FFA22806A
:1010E2000D9000E0E0FFD3941940037FF9229000B5
:1010F200E0E004F0A3E4F09000E1E0FFC3941E40BE
:10110200030211F5E0131313541FFF9000E3F09054
:1011120000E1E0FF5407F531FFF87480088002C354
:1011220013D8FCFF9000E3E0FE74102EF582E43445
:1011320003F583E0FEEF5EFF9000E3F0E0FF60085E
:101142009000E27401F080059000E2E4F09000E289
:10115200E0FF70709000E4E004F09000E0E0FF90A7
:1011620000E4E0FEC39F50030211ECE0FF9000E1B7
:10117200E0FE9FFF04FFA3F09000E1E0FFA3E0FE8A
:10118200D39F506FE0FF131313541FFFA3F090007F
:10119200E2E0FF5407F531A3E0FF74102FF582E47B
:1011A2003403F583E0FFAE31A8067480088002C3E1
:1011B20013D8FCFEEF4EFFF09000E2E004F080B89E
:1011C200803180269000E4E4F09000E1E0FF7E00B0
:1011D2009000E0E0FD7C002FFFEC33FEC3EF941E95
:1011E200EE6480948040037FF8229000E1E004F0F6
:1011F2000210F99000E4E0FF9000E1E0FEC39FFFDF
:1012020025E0FF2443FFF0E0FF90033FE0FEC39F91
:1012120050249000E0E0FF25E0FFA3E0FEEF2EFF68
:1012220090033FF0E0FFD3947F400BE094804006B0
:101232009000007400739000DFE0FFC39408400345
:101242000212F19000E1E0FF2402FF9000DEE0FED6
:1012520074102EF582E43402F583EFF09000E1E0A1
:10126200FF9000DEE0FE74202EF582E43403F58365
:10127200EFF09000DFE0FF25E0FF9000DEE0FE747B
:10128200002EF582E43402F583EFF09000DEE0FFF9
:1012920074002FF582E43402F583E004F09000DE5E
:1012A200E0FF74002FF582E43402F583C083C0822C
:1012B200E0FF9000E0E0FEC454F0FEEF4EFFD0826B
:1012C200D083F08581319000E1E0FFF5819000DC70
:1012D200E0FEA3E0FFF532C0329000DCE0FEA3E0C6
:1012E200FFEEFF7E00F532C0328531810213E890B5
:1012F20000DFE0FFC3940940030213A29000DEE086
:10130200FF5401FFF09000E1E0FF2402FF9000DEB5
:10131200E0FE74202EF582E43402F583EFF09000B3
:10132200E1E0FF9000DEE0FE74402EF582E434033B
:10133200F583EFF09000E0E0FF9000DEE0FE744203
:101342002EF582E43403F583EFF09000DEE0FF70C7
:1013520004D2068002D2079000DEE0FF04FF33339E
:101362003354F8FFE0FE75F005A42430F582E4342E
:1013720002F583EFF08581319000E1E0FFF5819085
:1013820000DCE0FEA3E0FFF532C0329000DCE0FEBC
:10139200A3E0FFEEFF7E00F532C032853181804648
:1013A2009000DFE0FFB4091C9000DCE0FEA3E0FF48
:0313B20090033570
:1013B500F09000DCE0A3E0EEFF7E00900336F080C5
:1013C500229000DFE0FFB40A1A9000DCE0FEA3E003
:1013D500FF900337F09000DCE0A3E0EEFF7E009085
:0613E5000338F07F012235
:1019FA00900103EEF0A3EFF0900103E0FEA3E0FFF5
:101A0A004E601E78E3E6FFC394125015758A667518
:101A1A008CFC900103E0FAA3E0FB7DFF7F01121327
:021A2A00EB22AD
:10165600C2AF7B007A0079009000FDEBF0A3F0A307
:10166600F0900100F0A3F0A3F0C202C208900105B9
:1016760004F0900105E0FFC394105043E075F009B3
:10168600A42404F582E43400F583E4F0900105E037
:10169600FF75F009A42403F582E43400F58374048D
:1016A600F0900105E0FF75F009A42407F582E43403
:1016B60000F583E4F0A3F0900105E004F080B39018
:1016C6000331E4F0A3F0A3F0A3F0900105F090013C
:1016D60005E0FFC39408506BE075F006A424ACF552
:1016E60082E43400F583E4F0900105E0FF75F0062E
:1016F600A424ADF582E43400F58374FFF09001056F
:10170600E0FF75F006A424AEF582E43400F583E428
:10171600F0900105E0FF75F006A424AFF582E434ED
:1017260000F583E4F0A3F0900105E0FF75F006A450
:1017360024B1F582E43400F583E4F0900105E00479
:10174600F0808B1218F8D208D2AFC2AF90010574A0
:1017560001F0900105E0FFC394125035E074442F68
:10176600F582E43403F583E0FF30E01D900105E0E7
:10177600FF74442FF582E43403F583E0FF54FEFF43
:10178600F0900105E0FF120CA9900105E004F0803D
:10179600C1D2AF9000FDE0FBA3E0FAA3E0F9EA496D
:1017A6004B60A79000FDE0A3E0A3E0121A58809AD0
:0117B6002210
:101A5E00900100E0FBA3E0FAA3E0F9EA494B600C29
:0F1A6E00900100E0A3E0A3E0121A582280FE22AC
:1013EB009000F3EFF0A3EDF0A3EAF0A3EBF0C2AFA4
:1013FB0078E3E6FFA3F09000F3E0FF6401600302E3
:10140B00151D9000F5E0FEA3E0FF4E7005D2AF7FF7
:10141B0001229000F7E0FFC39410404E9000F3E0E0
:10142B00FF640170429000F7E0FFB4101AC20690FF
:10143B0000F5E0FEA3E0FF900331EEF0A3EFF0D256
:10144B0002D2AFD28D80209000F7E0FFB41118C20A
:10145B00079000F5E0FEA3E0FF900333EEF0A3EF5F
:10146B00F0D202D2AFD28D7F01229000F3E0FF9039
:10147B0000F7E0FE75F009A42404F582E43400F5CE
:10148B0083EFF09000F4E0FF9000F7E0FE75F009B9
:10149B00A42406F582E43400F583EFF09000F5E028
:1014AB00FEA3E0FFA3E0FD75F009A42407F582E499
:1014BB003400F583EEF0A3EFF09000F7E0FF75F04A
:1014CB0009A42405F582E43400F583E4F09000F7D9
:1014DB00E0FF75F009A42403F582E43400F583746E
:1014EB0001F09000F7E0FF74002FF582E43402F571
:1014FB0083E0FF54FEFFF0D202D2AFD28D9000F703
:10150B00E0FF75F009A42405F582E43400F583E0CF
:10151B00FF229000F7E0FF75F009A42404F582E4A4
:10152B003400F583E0FF6005D2AF7F00229000F31B
:10153B00E0FF6401600DA3E0FFC394084005D2AF48
:10154B007F00229000F3E0FF9000F7E0FE75F009BA
:10155B00A42404F582E43400F583EFF09000F4E06A
:10156B00FF9000F7E0FE75F009A42406F582E43441
:10157B0000F583EFF09000F5E0FEA3E0FFA3E0FDA4
:10158B0075F009A42407F582E43400F583EEF0A38B
:10159B00EFF09000F7E0FF75F009A42405F582E465
:1015AB003400F583E4F09000F3E0FF64016057A38F
:1015BB00E0FFF46051E075F006A424AFF582E4344B
:1015CB0000F583C083C082E0FCA3E0FD9000F7E050
:1015DB00FF7E007401A807088005C333CE33CED835
:1015EB00F9FFEC4EFEED4FFFD082D083EEF0A3EF70
:1015FB00F09000F4E0FF75F006A424AEF582E4341D
:10160B0000F583E004F09000F7E0FF75F009A424E7
:10161B0003F582E43400F5837401F09000F7E0FFEA
:10162B0074002FF582E43402F583E0FF54FEFFF0E3
:10163B00D202D2AFD28D9000F7E0FF75F009A4244F
:0B164B0005F582E43400F583E0FF2287
:100CA9009000F8EFF0E0FFD3941140037FFF22900A
:100CB90000F8E0FF70037FFF229000FBE533F0901E
:100CC90000F8E0FFC394104003020DAEE074202F3A
:100CD900F582E43403F583E0FF70037FFF2290007F
:100CE900F8E0FF74202FF582E43403F583E024FE55
:100CF900F09000F8E0FF74002FF582E43402F583E8
:100D0900E0FFC4540FFF9000F9F09000F8E0FF7481
:100D1900202FF582E43403F583E0FF04F53374BE34
:100D29002533F533C313FF04F5339000F9E0FF547D
:100D390007FFF0E02533F09000F8E0FF74002FF58D
:100D490082E43402F583E4F09000F8E0FF74102F98
:100D5900F582E43402F583E4F09000F8E0FF7420B2
:100D69002FF582E43403F583E4F09000FCF0900061
:100D7900FCE0FFC3940D4003020E8DE09000F8E003
:100D8900FE75F00DA42440F582E43402F583E58272
:100D99002FF582E43583F583E4F09000FCE004F05C
:100DA90080CC020E8D9000F8E0FF6410706990030A
:100DB90040E0FF70037FFF22900342E024FEF0E051
:100DC900FF9000F9F0900340E0FF04F53374BE256D
:100DD90033F533C313FF04F5339000F9E02533F0FD
:100DE900C206900340E4F0900342F0900220F09094
:100DF90000FCF09000FCE0FFC394054003020E8D57
:100E0900E074302FF582E43402F583E4F09000FCBD
:100E1900E004F080DE806D9000F8E0FF64117064FA
:100E2900900341E0FF70037FFF22900343E024FE1B
:100E3900F0E0FF9000F9F0900341E0FF04F533740E
:100E4900BE2533F533C313FF04F5339000F9E025CC
:100E590033F0C207900341E4F0900343F09002217C
:100E6900F09000FCF09000FCE0FFC394055015E001
:100E790074352FF582E43402F583E4F09000FCE048
:100E890004F080E19000F9E0FFE533C39F5044E5A9
:100E990033131313541FF532E5335407F531FFF8B3
:100EA9007480088002C313D8FCFFF4FF9000FAF0A5
:100EB900AF3274102FF582E43403F583C083C08206
:100EC900E0FF9000FAE0FEEF5EFFD082D083F005EC
:100ED9003380B19000F8E0FFB41009900331E4F0D9
:100EE900A3F0800F9000F8E0FFB41107900333E4FA
:100EF900F0A3F09000FCE4F09000FCE0FFC394083C
:100F09004003020FEF9000F8E0FF7E007401A8078C
:100F1900088005C333CE33CED8F9FF9000FCE0FD3D
:100F290075F006A424AFF582E43400F583E0FCA350
:100F3900E0FDEE5CFEEF5DFF4E60709000FCE0FFAF
:100F490075F006A424AFF582E43400F583C083C0AC
:100F590082E0FCA3E0FD9000F8E0FF7E007401A8A8
:100F690007088005C333CE33CED8F9FFF4FFEEF47A
:100F7900FEEC5EFEED5FFFD082D083EEF0A3EFF0D2
:100F89009000FCE0FF75F006A424AEF582E434007D
:100F9900F583E0FF60159000FCE0FF75F006A424DE
:100FA900AEF582E43400F583E014F09000FCE0FF34
:100FB90075F006A424ADF582E43400F583E0FF90D2
:100FC90000F8E0FEEFB506159000FCE0FF75F006AD
:100FD900A424ADF582E43400F58374FFF09000FC9D
:100FE900E004F0020F019000F8E0FF75F009A42475
:100FF90004F582E43400F583E4F09000F8E0FF752D
:10100900F009A42405F582E43400F5837401F09015
:1010190000F8E0FF75F009A42406F582E43400F530
:101029008374FFF09000F8E0FF75F009A42407F538
:1010390082E43400F583E4F0A3F09000F8E0FF7552
:10104900F009A42403F582E43400F5837404F090D4
:0910590000FBE0FFF5337F0122EA
:0300000002186C77
:0C186C00787FE4F6D8FD7581E70218B320
:101A2C00C5F0F8A3E028F0C5F0F8E5821582700245
:061A3C001583E038F022E2
:101A4200A3F8E0C5F025F0F0E58215827002158357
:061A5200E0C838F0E822B4
:061A58008A838982E47319
:101878000217B7E493A3F8E493A34003F68001F2B8
:1018880008DFF48029E493A3F85407240CC8C33371
:10189800C4540F4420C8834004F456800146F6DF40
:1018A800E4800B0102040810204080901AF8E47EBE
:1018B800019360BCA3FF543F30E509541FFEE49335
:1018C800A360010ECF54C025E060A840B8E493A3FC
:1018D800FAE493A3F8E493A3C8C582C8CAC583CA27
:1018E800F0A3C8C582C8CAC583CADFE9DEE780BEDF
:011B070000DD
:00000001FF
