:041F6D00410113001B
:101EEC00D2907F01121D5ABF0214900113E004F02E
:101EFC00B2907F327E00121EBA7F011216567F0AF4
:071F0C007E00121EBA80DB0B
:101F1300D2917F01121D5ABF0214900113E004F005
:101F2300B2917F327E00121EBA7F011216567F0ACB
:071F33007E00121EBA80DBE4
:101E3C007D017F01121C40EF6401600280FE7E1E5A
:101E4C007FEC9000E07405F07B037D01121062EFD3
:101E5C006401600280FE7E1F7F139000E07405F029
:101E6C007B047D02121062EF6401600280FE7F0130
:031E7C00021656F5
:101062009000DCEEF0A3EFF0A3EDF0A3EBF0900024
:10107200E4E4F03008037FFF229000DFE0FFD39426
:101082000A40037FFE229000DFE0FF640970030242
:1010920013AAE0640A70030213CE9000DEE0FFD3CD
:1010A200941140037FFD229000DCE0FEA3E0FF4E9E
:1010B20070037FFC229000DFE0FFC394085022A35C
:1010C200E0FF940640037FFB229000DEE0FF740005
:1010D2002FF582E43402F583E0FF60127FFA22806A
:1010E2000D9000E0E0FFD3941940037FF9229000B5
:1010F200E0E004F0A3E4F09000E1E0FFC3941E40BE
:10110200030211F5E0131313541FFF9000E3F09054
:1011120000E1E0FF5407F531FFF87480088002C354
:1011220013D8FCFF9000E3E0FE74102EF582E43445
:1011320003F583E0FEEF5EFF9000E3F0E0FF60085E
:101142009000E27401F080059000E2E4F09000E289
:10115200E0FF70709000E4E004F09000E0E0FF90A7
:1011620000E4E0FEC39F50030211ECE0FF9000E1B7
:10117200E0FE9FFF04FFA3F09000E1E0FFA3E0FE8A
:10118200D39F506FE0FF131313541FFFA3F090007F
:10119200E2E0FF5407F531A3E0FF74102FF582E47B
:1011A2003403F583E0FFAE31A8067480088002C3E1
:1011B20013D8FCFEEF4EFFF09000E2E004F080B89E
:1011C200803180269000E4E4F09000E1E0FF7E00B0
:1011D2009000E0E0FD7C002FFFEC33FEC3EF941E95
:1011E200EE6480948040037FF8229000E1E004F0F6
:1011F2000210F99000E4E0FF9000E1E0FEC39FFFDF
:1012020025E0FF2443FFF0E0FF90033FE0FEC39F91
:1012120050249000E0E0FF25E0FFA3E0FEEF2EFF68
:1012220090033FF0E0FFD3947F400BE094804006B0
:101232009000007400739000DFE0FFC39408400345
:101242000212F19000E1E0FF2402FF9000DEE0FED6
:1012520074102EF582E43402F583EFF09000E1E0A1
:10126200FF9000DEE0FE74202EF582E43403F58365
:10127200EFF09000DFE0FF25E0FF9000DEE0FE747B
:10128200002EF582E43402F583EFF09000DEE0FFF9
:1012920074002FF582E43402F583E004F09000DE5E
:1012A200E0FF74002FF582E43402F583C083C0822C
:1012B200E0FF9000E0E0FEC454F0FEEF4EFFD0826B
:1012C200D083F08581319000E1E0FFF5819000DC70
:1012D200E0FEA3E0FFF532C0329000DCE0FEA3E0C6
:1012E200FFEEFF7E00F532C0328531810213E890B5
:1012F20000DFE0FFC3940940030213A29000DEE086
:10130200FF5401FFF09000E1E0FF2402FF9000DEB5
:10131200E0FE74202EF582E43402F583EFF09000B3
:10132200E1E0FF9000DEE0FE74402EF582E434033B
:10133200F583EFF09000E0E0FF9000DEE0FE744203
:101342002EF582E43403F583EFF09000DEE0FF70C7
:1013520004D2068002D2079000DEE0FF04FF33339E
:101362003354F8FFE0FE75F005A42430F582E4342E
:1013720002F583EFF08581319000E1E0FFF5819085
:1013820000DCE0FEA3E0FFF532C0329000DCE0FEBC
:10139200A3E0FFEEFF7E00F532C032853181804648
:1013A2009000DFE0FFB4091C9000DCE0FEA3E0FF48
:0313B20090033570
:1013B500F09000DCE0A3E0EEFF7E00900336F080C5
:1013C500229000DFE0FFB40A1A9000DCE0FEA3E003
:1013D500FF900337F09000DCE0A3E0EEFF7E009085
:0613E5000338F07F012235
:101C40009000F4EFF0A3EDF09000F4E0FFC39408EF
:101C500040037FFF229000F4E0FF7E068EF0A4FF99
:101C6000AEF074AC2FF974003EFA7B019000F6EBF5
:101C7000F0A3EAF0A3E9F09000F5E0FFA3E0FBA3F6
:101C8000E0FAA3E0F9EF121AA29000F6E0FBA3E05D
:101C9000FAA3E0F975820175830074FF121AB490FB
:101CA00000F6E0FBA3E0FAA3E0F975820375830078
:101CB000E4F5F0121B4C9000F6E0FBA3E0FAA3E081
:0E1CC000F9758202758300E4121AB47F0122C6
:101656009000EDEFF0E0FFC3648094804007E06403
:1016660080948840037FFF22C2AF9000F374FFF09E
:101676009000F1F09000EDE0FF3395E0FE7C007DF8
:1016860006121AD674AC2FF974003EFA7B01A3EB4E
:10169600F0A3EAF0A3E9F09000EEE0FBA3E0FAA3E2
:1016A600E0F9758203758300121B14FFAEF04E70CD
:1016B600030217869000F2E4F09000F2E0FFC364A4
:1016C600809490400302176D9000EEE0FBA3E0FAD1
:1016D600A3E0F9758203758300121B14FDACF0902C
:1016E60000F2E07E007401A807088005C333CE33FC
:1016F600CED8F9FFEE5CFEEF5DFF4E60619000F222
:10170600E0FF3395E0FE90000275F009EF121B79B9
:10171600EE75F009A42583F583E0FF7E009000F3C3
:10172600E0FD3395E0FCD3EF9DEC6480F8EE748029
:1017360098402B9000F2E0FF3395E0FE9000027592
:10174600F009EF121B79EE75F009A42583F583E005
:10175600FF9000F3F09000F2E0FF9000F1F09000AF
:10176600F2E004F00216BF9000F1E0FF3395E0FED0
:10177600EFF44E6006E07D0212191FD2AF7F012200
:101786009000EDE0FF3395E0FE9000AC75F006EFBB
:10179600121B79EE75F006A42583F583E0FFC3944A
:1017A600FF50109000EEE0FBA3E0FAA3E0F974010D
:0817B600121A80D2AF7F00225D
:101D5A009000F9EFF0E0FFC3940840037F0022C22D
:101D6A00AF9000F9E0FF7E068EF0A4FFAEF074ACEF
:101D7A002FF974003EFA7B01A3EBF0A3EAF0A3E982
:101D8A00F09000FAE0FBA3E0FAA3E0F9121A67FF69
:101D9A007015D2AF9000F9E0FD7B007A007F021245
:101DAA0013EB9000FDEFF09000FAE0FBA3E0FAA33A
:101DBA00E0F9121A67FFD3940040129000FAE0A3E8
:101DCA00E0A3E074FF121A80D2AF7F0222D2AF9052
:051DDA0000FDE0FF2206
:101EBA00900111EEF0A3EFF0900111E0FEA3E0FF14
:101ECA004E601E78E3E6FFC394125015758A667554
:101EDA008CFC900111E0FAA3E0FB7DFF7F01121355
:021EEA00EB22E9
:0800030053A87F7530002101B4
:08000B0053A87F7530012101AB
:0800130053A87F7530022101A2
:08001B0053A87F753003210199
:0800230053A87F753004210190
:08002B0053A87F753005210187
:0800330053A87F75300621017E
:08003B0053A87F753007210175
:0800430053A87F75300821016C
:08004B0053A87F753009210163
:0800530053A87F75300A21015A
:08005B0053A87F75300B210151
:0800630053A87F75300C210148
:08006B0053A87F75300D21013F
:0800730053A87F75300E210136
:08007B0053A87F75300F21012D
:0800830053A87F753010210124
:08008B0053A87F75301121011B
:0800930053A87F753012210112
:08009B0053A87F753013210109
:0800A30053A87F753014210100
:0800AB0053A87F7530152101F7
:0800B30053A87F7530162101EE
:0800BB0053A87F7530172101E5
:0800C30053A87F7530182101DC
:0800CB0053A87F7530192101D3
:0800D30053A87F75301A2101CA
:0800DB0053A87F75301B2101C1
:0800E30053A87F75301C2101B8
:0800EB0053A87F75301D2101AF
:0800F30053A87F75301E2101A6
:0F00FB0053A87F75301F20050302010A021E7FE4
:101E7F00858132758135C0D0C0E0C0F0C083C0828B
:101E8F00858134900336E0FFF533900335E0FFF59D
:101E9F008285338375D018740073853481D082D0D6
:0B1EAF0083D0F0D0E0D2AFD0D03222C0
:101F5900300110300503021EA93000040201582285
:041F69000201AF22A0
:10010A003000013230010BC0D0D200853041212CA1
:10011A008010858132758135C0D08831D201D2AF45
:10012A00218575D01078DBF608A6F008A68308A604
:10013A0082E58114FF08F6D0E078E0F6900337E014
:10014A00FFF515A3E0FFF58385158274007375D05A
:10015A001078DCE6FFF5F008E6FFF58308E6FFF520
:10016A008208E6FFF58108E6FFF51578DBE6FF85EC
:10017A0015D0854130C20043A88032C0E0C0F0C02B
:10018A0083C08275D01878E5E6FFE5306F6016D235
:10019A000B900336E0FFF533900335E0FFF58285D7
:1001AA00338374007375D01875813A300B062002B8
:1001BA00030205A9C28DC20B753300E533C3940847
:1001CA004003020343AF33EF75F006A424B1F5826E
:1001DA00E43400F583E0FF700302033EAF33EF75AA
:1001EA00F006A424B1F582E43400F583E0FFD39449
:1001FA0000500302033E753400E534C394104003F3
:10020A0002031DAF34EF75F009A42406F582E43425
:10021A0000F583E0FF65336003020318AF34EF751E
:10022A00F009A42404F582E43400F583E0FF6404B1
:10023A007003020318AF33EF75F006A424AFF582FA
:10024A00E43400F583C083C082E0FCA3E0FDAF3450
:10025A007E007401A807088005C333CE33CED8F9CF
:10026A00FFF4FFEEF4FEEC5EFEED5FFFD082D0837A
:10027A00EEF0A3EFF0AF33EF75F006A424AEF582EB
:10028A00E43400F583E0FF6013AF33EF75F006A4A2
:10029A0024AEF582E43400F583E014F0AF34EF7550
:1002AA00F009A42405F582E43400F5837402F0AF62
:1002BA0034EF75F009A42403F582E43400F583E4ED
:1002CA00F0AF34EF75F009A42404F582E43400F5A4
:1002DA0083E4F0AF34EF75F009A42406F582E43420
:1002EA0000F58374FFF0AF34EF75F009A42407F525
:1002FA0082E43400F583E4F0A3F0AF3474002FF500
:10030A0082E43402F583E0FF4401FFF080050534FE
:10031A00020203E5346410601BAF33EF75F006A4E4
:10032A0024B1F582E43400F583E014F00201E6809A
:10033A00030201E605330201C5753403200406757C
:10034A00340302040E30060675340102040E300727
:10035A000675340102040E300C0675340102040ECF
:10036A0078E3E6FFC39410400302040BE6FF74002F
:10037A002FF582E43402F583E0FF20E006753401AC
:10038A0002040E753300E533C394105042AF337440
:10039A00002FF582E43402F583E0FF30E02D78E3A4
:1003AA00E6FF74002FF582E43402F583E0FF540F70
:1003BA00FFAE3374002EF582E43402F583E0FE5476
:1003CA000FFED39F40057534018039053380B77518
:1003DA003301E533C394105023AF3374002FF582F1
:1003EA00E43402F583E0FF30E00E78E3E6FFE5331C
:1003FA006F6005753403800C053380D6753402802E
:10040A0003753401E534B4010A900330E0FF78E65D
:10041A00F68016E534B4020678E67600800BE534F9
:10042A00B4030620020378E6063002030205A57823
:10043A00E1E6FFF58A08E6FFF58C90033AE004F05E
:10044A007006900339E004F0900339E0FEA3E0FF60
:10045A004E700E90033CE004F0700690033BE004FB
:10046A00F0753300E533C394104003020555AF33EA
:0D047A00EF75F009A42403F582E43400F5C9
:1004870083E0FF64016003020550AF33EF75F009A5
:10049700A42407F582E43400F583E0FEA3E0FFD34C
:1004A7009400EE94005003020550AF33EF75F00946
:1004B700A42407F582E43400F58374FFF5F0121ADB
:1004C700E8AF33EF75F009A42407F582E43400F5AB
:1004D70083E0FEA3E0FF4E7070AF33EF75F009A421
:1004E7002405F582E43400F5837401F0AF33EF752A
:1004F700F009A42404F582E43400F583E4F0AF3373
:10050700EF75F009A42406F582E43400F58374FF3F
:10051700F0AF33EF75F009A42407F582E43400F552
:1005270083E4F0A3F0AF33EF75F009A42403F58259
:10053700E43400F583E4F0AF3374002FF582E4343C
:1005470002F583E0FF4401FFF0053302046E9003D8
:1005570031E0FEA3E0FFD39400EE9400401890032F
:1005670032E024FFF0900331E034FFF0E0FEA3E037
:10057700FF4E7002D206900333E0FEA3E0FFD39450
:1005870000EE94004018900334E024FFF09003330A
:10059700E034FFF0E0FEA3E0FF4E7002D207C20294
:1005A7008005C20B020C92900330E0FF78E6E6FE6E
:1005B7006F6003020C90F6E532C3947F4006021C7D
:1005C700370207B5300C030206C678E3E6FFC3948B
:1005D700105044E6FF74002FF582E43402F583E0FF
:1005E700FFC4540FFF7E028EF0A4FFAEF0E6FD7449
:1005F700202DF582E43403F583E0FD7C00EF2DFF29
:10060700EE3CFEAD32D3ED9FEE6480F8EC7480983B
:100617004045021C37804078E3E6FF74302FF582AF
:10062700E43403F583E0FF7E028EF0A4FFAEF0E62C
:10063700FD74302DF582E43403F583E0FD7C00EF93
:100647002DFFEE3CFEAD32C3ED9FEE6480F8EC74F7
:1006570080984003021C3778E3E6FFC394104003F9
:10066700020753E6FF75F00DA42445F582E4340232
:10067700F583E531F0C2AF858133758107753001A8
:10068700E530C394085030D031AF307E00C3740DCD
:100697009FFFE49EFE78E3E6FD75F00DA42440F588
:1006A70082E43402F583E5822FF582E5833EF58304
:1006B700E531F0053080C9853381D2AF0207537821
:1006C700E4E6FFC394105044E6FF74002FF582E47C
:1006D7003402F583E0FFC4540FFF7E028EF0A4FFBF
:1006E700AEF0E6FD74202DF582E43403F583E0FDDA
:1006F7007C00EF2DFFEE3CFEAD32D3ED9FEE648024
:10070700F8EC7480984045021C37804078E4E6FF97
:1007170074302FF582E43403F583E0FF7E028EF018
:10072700A4FFAEF0E6FD74302DF582E43403F583C3
:10073700E0FD7C00EF2DFFEE3CFEAD32C3ED9FEEFA
:100747006480F8EC7480984003021C3778E4E6FF75
:10075700C394105059E6FF75F00DA42445F582E4C3
:100767003402F583E531F0C2AF85813375810775B2
:100777003001E530C394085030D031AF307E00C32C
:10078700740D9FFFE49EFE78E4E6FD75F00DA4244A
:1007970040F582E43402F583E5822FF582E5833E56
:1007A700F583E531F0053080C9853381D2AF300C50
:1007B7000302098F75310078E3E6FF08F630070377
:1007C700433102300603433101E5316030E53164DE
:1007D70003601730060778E37610020991200703B4
:1007E70002099178E3761102099178E3E6FFB410E4
:0D07F70005761102099178E3761002099150
:100804002004030208D7753300753100E531C39421
:10081400105034AF3174002FF582E43402F583E0D4
:10082400FF30E015AF3174002FF582E43402F58314
:10083400E0FFC313FF5407F530E530D3953340038D
:10084400853033053180C578E4E6FF04F531E531C0
:10085400C394105036AF3174002FF582E43402F59E
:1008640083E0FFC313FF5407F530E533B53018AF09
:100874003174002FF582E43402F583E0FF30E007A1
:1008840078E3A631020991053180C375310078E41B
:10089400E6FFE531D39F4003020991AF3174002F85
:1008A400F582E43402F583E0FFC313FF5407F53007
:1008B400E533B53017AF3174002FF582E43402F517
:1008C40083E0FF30E00618A631020991053180BEAD
:1008D40002099178E4E6FF04F531E531C394105040
:1008E4004EAF3174002FF582E43402F583E0FF301B
:1008F400E039AF3174002FF582E43402F583E0FF70
:10090400C313FF5407FF602378E3A631AF317400AB
:100914002FF582E43402F583E0FFC313FF5407F597
:1009240030E53004FF900330F08062053180AB7510
:10093400310078E4E6FFE531D39F5051AF317400C4
:100944002FF582E43402F583E0FF30E038AF3174F0
:10095400002FF582E43402F583E0FFC313FF54074C
:10096400FF602218A631AF3174002FF582E43402FF
:10097400F583E0FFC313FF5407F530E53004FF901F
:100984000330F08008053180A98002C20CC209C27C
:100994000A78E4E6FFC394104002D20978E3E6FF44
:1009A400C394104002D20AA20A82094003020A45F3
:1009B40078E4E6FF24F0F530AF3074202FF582E4BC
:1009C4003402F583E532F0753105E531D394004006
:1009D40025D032AF31AE30EE75F005A4242FF58268
:1009E400E43402F583E5822FF582E43583F583E56B
:1009F40032F0153180D478E3E6FF24F0F530753118
:100A040000E531C394055026AF31AE30EE75F005E4
:100A1400A42430F582E43402F583E5822FF582E4E0
:100A24003583F583E0FFF532C032053180D3AF3032
:100A340074202FF582E43402F583E0FFF532020CD2
:100A440006A20A72095003020AD578E4E6FF74107C
:100A54002FF582E43402F583E532F0753105E53192
:100A6400D394004026D032AF3178E4E6FE75F00D21
:100A7400A4243FF582E43402F583E5822FF582E471
:100A84003583F583E532F0153180D3753100E531D6
:100A9400C394055027AF3178E3E6FE75F00DA42426
:100AA40040F582E43402F583E5822FF582E4358350
:100AB400F583E0FFF532C032053180D278E3E6FFFA
:100AC40074102FF582E43402F583E0FFF532020C52
:100AD40006A20AB0094003020B6A78E4E6FF741028
:100AE4002FF582E43402F583E532F0753105E53102
:100AF400D394004026D032AF3178E4E6FE75F00D91
:100B0400A4243FF582E43402F583E5822FF582E4E0
:100B14003583F583E532F0153180D378E3E6FF249D
:100B2400F0F530753100E531C394055026AF31AE90
:100B340030EE75F005A42430F582E43402F583E543
:100B4400822FF582E43583F583E0FFF532C0320568
:100B54003180D3AF3074202FF582E43402F583E082
:100B6400FFF532020C06A209B00A4003020C067813
:0D0B7400E4E6FF24F0F530AF3074202FF5DB
:100B810082E43402F583E532F0753100E531C39436
:100B910005502FD032AF317E00C374059FFFE49E14
:100BA100FEAD30ED75F005A4242FF582E43402F595
:100BB10083E5822FF582E5833EF583E532F0053149
:100BC10080CA753100E531C394055027AF3178E310
:100BD100E6FE75F00DA42440F582E43402F583E5C8
:100BE100822FF582E43583F583E0FFF532C03205CB
:100BF1003180D278E3E6FF74102FF582E43402F5F8
:100C010083E0FFF532300A03020C8E78E3E6FF75CC
:100C1100F00DA42445F582E43402F583E0FFF532BA
:100C2100C03278E3E6FF75F00DA42446F582E43482
:100C310002F583E0FFF532C032C2AF8581307581A4
:100C410002753107E531C3940D5027AF3178E3E6E2
:100C5100FE75F00DA42440F582E43402F583E582AB
:100C61002FF582E43583F583E0FFF532D03205318B
:100C710080D2853081D2AF78E3E6FF74102FF58200
:100C8100E43402F583E0FFF532D001D000C20AC29C
:100C910009D082D083D0F0D0E053A87FC201D0D058
:080CA10085328143A880322254
:101DDF009000E5EBF0A3EAF0A3E9F0A3EDF090009B
:101DEF00E5E0FBA3E0FAA3E0F9AE02FF9000EBEE13
:101DFF00F0A3EFF09000E9E0FEA3E0FFD39400EE34
:101E0F00940040289000E8E0FF9000EBE475F001AB
:101E1F00121AFEADF0FC8D82F583EFF09000EAE030
:0D1E2F0024FFF09000E9E034FFF080C822AD
:101B8B00787FE4F6D8FD7B017A0279009000E97446
:101B9B0001F0A374FFF07D00121DDF78E57601786C
:101BAB00E276D81876EFC205C20178E37600D2044C
:101BBB007530009003307405F0900339E4F0A3F016
:101BCB0090033BF0A3F078E7F67BFF7A1779BEAE74
:101BDB0002AF019000E07402F07B007D00121062F6
:101BEB007BFF7A1F7959AE02AF019000E0E4F07BE6
:101BFB0009FD1210627BFF7A1F7959AE02AF01907B
:101C0B0000E0E4F07B0AFD121062900320E0FF2459
:101C1B00FEF58178E2E6FFF58C18E6FFF58A43893D
:101C2B0001D2A9D28CD2AF1217BE80FE121F3A80FE
:051C3B00FE121F5922FA
:1013EB009000FEEFF0A3EDF0A3EAF0A3EBF0C2AF99
:1013FB0078E3E6FFA3F09000FEE0FF6401600302D8
:10140B00151D900100E0FEA3E0FF4E7005D2AF7FEB
:10141B000122900102E0FFC39410404E9000FEE0C9
:10142B00FF64017042900102E0FFB4101AC20690F3
:10143B000100E0FEA3E0FF900331EEF0A3EFF0D24A
:10144B0002D2AFD28D8020900102E0FFB41118C2FE
:10145B0007900100E0FEA3E0FF900333EEF0A3EF53
:10146B00F0D202D2AFD28D7F01229000FEE0FF902E
:10147B000102E0FE75F009A42404F582E43400F5C2
:10148B0083EFF09000FFE0FF900102E0FE75F009A2
:10149B00A42406F582E43400F583EFF0900100E01C
:1014AB00FEA3E0FFA3E0FD75F009A42407F582E499
:1014BB003400F583EEF0A3EFF0900102E0FF75F03E
:1014CB0009A42405F582E43400F583E4F0900102CD
:1014DB00E0FF75F009A42403F582E43400F583746E
:1014EB0001F0900102E0FF74002FF582E43402F565
:1014FB0083E0FF54FEFFF0D202D2AFD28D900102F7
:10150B00E0FF75F009A42405F582E43400F583E0CF
:10151B00FF22900102E0FF75F009A42404F582E498
:10152B003400F583E0FF6005D2AF7F00229000FE10
:10153B00E0FF6401600DA3E0FFC394084005D2AF48
:10154B007F00229000FEE0FF900102E0FE75F009A3
:10155B00A42404F582E43400F583EFF09000FFE05F
:10156B00FF900102E0FE75F009A42406F582E43435
:10157B0000F583EFF0900100E0FEA3E0FFA3E0FD98
:10158B0075F009A42407F582E43400F583EEF0A38B
:10159B00EFF0900102E0FF75F009A42405F582E459
:1015AB003400F583E4F09000FEE0FF64016057A384
:1015BB00E0FFF46051E075F006A424AFF582E4344B
:1015CB0000F583C083C082E0FCA3E0FD900102E044
:1015DB00FF7E007401A807088005C333CE33CED835
:1015EB00F9FFEC4EFEED4FFFD082D083EEF0A3EF70
:1015FB00F09000FFE0FF75F006A424AEF582E43412
:10160B0000F583E004F0900102E0FF75F009A424DB
:10161B0003F582E43400F5837401F0900102E0FFDE
:10162B0074002FF582E43402F583E0FF54FEFFF0E3
:10163B00D202D2AFD28D900102E0FF75F009A42443
:0B164B0005F582E43400F583E0FF2287
:10191F00900108EFF0A3EDF0C2AF900108E0FF7562
:10192F00F009A42406F582E43400F583E0FF90016A
:10193F000AF0E0FFF4606CE075F006A424AFF582C6
:10194F00E43400F583C083C082E0FCA3E0FD900186
:10195F0008E0FF7E007401A807088005C333CE336B
:10196F00CED8F9FFF4FFEEF4FEEC5EFEED5FFFD094
:10197F0082D083EEF0A3EFF090010AE0FF75F0063E
:10198F00A424AEF582E43400F583E0FF60159001E6
:10199F000AE0FF75F006A424AEF582E43400F58367
:1019AF00E014F0900108E0FF74002FF582E4340298
:1019BF00F583E0FF7003D2AF22900108E0FF74447B
:1019CF002FF582E43403F583E0FF30E003D2AF223A
:1019DF00900109E0FF900108E0FE75F009A42405CD
:1019EF00F582E43400F583EFF0900108E0FF75F025
:1019FF0009A42404F582E43400F583E4F09001088F
:101A0F00E0FF75F009A42406F582E43400F5837431
:101A1F00FFF0900108E0FF75F009A42407F582E4B8
:101A2F003400F583E4F0A3F0900108E0FF75F009AE
:101A3F00A42403F582E43400F583E4F0900108E078
:101A4F00FF74002FF582E43402F583E0FF4401FFB9
:081A5F00F0D202D2AFD28D22B9
:1017BE00C2AF7B007A00790090010BEBF0A3F0A38F
:1017CE00F090010EF0A3F0A3F0C202C20890011433
:1017DE0004F0900114E0FFC394105043E075F0093B
:1017EE00A42404F582E43400F583E4F0900114E0BF
:1017FE00FF75F009A42403F582E43400F583740424
:10180E00F0900114E0FF75F009A42407F582E4348A
:10181E0000F583E4F0A3F0900114E004F080B3909F
:10182E000331E4F0A3F0A3F0A3F0900114F09001C3
:10183E0014E0FFC39408506BE075F006A424ACF5D9
:10184E0082E43400F583E4F0900114E0FF75F006B5
:10185E00A424ADF582E43400F58374FFF0900114F6
:10186E00E0FF75F006A424AEF582E43400F583E4BF
:10187E00F0900114E0FF75F006A424AFF582E43475
:10188E0000F583E4F0A3F0900114E0FF75F006A4D8
:10189E0024B1F582E43400F583E4F0900114E00401
:1018AE00F0808B121E3CD208D2AFC2AF90011474DE
:1018BE0001F0900114E0FFC394125035E074442FF0
:1018CE00F582E43403F583E0FF30E01D900114E06F
:1018DE00FF74442FF582E43403F583E0FF54FEFFDA
:1018EE00F0900114E0FF120CA9900114E004F080B6
:1018FE00C1D2AF90010BE0FBA3E0FAA3E0F9EA49F5
:10190E004B60A790010BE0A3E0A3E0121B85809A29
:01191E0022A6
:101F3A0090010EE0FBA3E0FAA3E0F9EA494B600C3A
:0F1F4A0090010EE0A3E0A3E0121B852280FE228F
:100CA900900103EFF0E0FFD3941140037FFF2290FE
:100CB9000103E0FF70037FFF22900106E533F09006
:100CC9000103E0FFC394104003020DAEE074202F2E
:100CD900F582E43403F583E0FF70037FFF2290017E
:100CE90003E0FF74202FF582E43403F583E024FE4A
:100CF900F0900103E0FF74002FF582E43402F583DC
:100D0900E0FFC4540FFF900104F0900103E0FF7469
:100D1900202FF582E43403F583E0FF04F53374BE34
:100D29002533F533C313FF04F533900104E0FF5471
:100D390007FFF0E02533F0900103E0FF74002FF581
:100D490082E43402F583E4F0900103E0FF74102F8C
:100D5900F582E43402F583E4F0900103E0FF7420A6
:100D69002FF582E43403F583E4F0900107F0900154
:100D790007E0FFC3940D4003020E8DE0900103E0EC
:100D8900FE75F00DA42440F582E43402F583E58272
:100D99002FF582E43583F583E4F0900107E004F050
:100DA90080CC020E8D900103E0FF641070699003FE
:100DB90040E0FF70037FFF22900342E024FEF0E051
:100DC900FF900104F0900340E0FF04F53374BE2561
:100DD90033F533C313FF04F533900104E02533F0F1
:100DE900C206900340E4F0900342F0900220F09094
:100DF9000107F0900107E0FFC394054003020E8D3F
:100E0900E074302FF582E43402F583E4F0900107B1
:100E1900E004F080DE806D900103E0FF64117064EE
:100E2900900341E0FF70037FFF22900343E024FE1B
:100E3900F0E0FF900104F0900341E0FF04F5337402
:100E4900BE2533F533C313FF04F533900104E025C0
:100E590033F0C207900341E4F0900343F09002217C
:100E6900F0900107F0900107E0FFC394055015E0E9
:100E790074352FF582E43402F583E4F0900107E03C
:100E890004F080E1900104E0FFE533C39F5044E59D
:100E990033131313541FF532E5335407F531FFF8B3
:100EA9007480088002C313D8FCFFF4FF900105F099
:100EB900AF3274102FF582E43403F583C083C08206
:100EC900E0FF900105E0FEEF5EFFD082D083F005E0
:100ED9003380B1900103E0FFB41009900331E4F0CD
:100EE900A3F0800F900103E0FFB41107900333E4EE
:100EF900F0A3F0900107E4F0900107E0FFC3940824
:100F09004003020FEF900103E0FF7E007401A80780
:100F1900088005C333CE33CED8F9FF900107E0FD31
:100F290075F006A424AFF582E43400F583E0FCA350
:100F3900E0FDEE5CFEEF5DFF4E6070900107E0FFA3
:100F490075F006A424AFF582E43400F583C083C0AC
:100F590082E0FCA3E0FD900103E0FF7E007401A89C
:100F690007088005C333CE33CED8F9FFF4FFEEF47A
:100F7900FEEC5EFEED5FFFD082D083EEF0A3EFF0D2
:100F8900900107E0FF75F006A424AEF582E4340071
:100F9900F583E0FF6015900107E0FF75F006A424D2
:100FA900AEF582E43400F583E014F0900107E0FF28
:100FB90075F006A424ADF582E43400F583E0FF90D2
:100FC9000103E0FEEFB50615900107E0FF75F00695
:100FD900A424ADF582E43400F58374FFF090010791
:100FE900E004F0020F01900103E0FF75F009A42469
:100FF90004F582E43400F583E4F0900103E0FF7521
:10100900F009A42405F582E43400F5837401F09015
:101019000103E0FF75F009A42406F582E43400F524
:101029008374FFF0900103E0FF75F009A42407F52C
:1010390082E43400F583E4F0A3F0900103E0FF7546
:10104900F009A42403F582E43400F5837404F090D4
:091059000106E0FFF5337F0122DE
:03000000021CCE11
:0C1CCE00787FE4F6D8FD7581E7021D1553
:101A6700BB010689828A83E0225002E722BBFE027D
:091A7700E32289828A83E49322B0
:101A8000BB010989828A83F8E028F022500327F7F6
:101A900022BBFE05F8E328F3228A838982F8E493C7
:021AA0002822FA
:101AA200BB010689828A83F0225002F722BBFE0123
:021AB200F3221D
:101AB400F8BB010DE58229F582E5833AF583E8F068
:101AC400225006E92582C8F622BBFE05E92582C814
:021AD400F222FC
:101AD600EF8DF0A4A8F0CF8CF0A428CE8DF0A42E24
:021AE600FE22DE
:101AE800C5F0F8A3E028F0C5F0F8E5821582700289
:061AF8001583E038F02226
:101AFE00A3F8E0C5F025F0F0E5821582700215839B
:061B0E00E0C838F0E822F7
:101B1400BB0110E58229F582E5833AF583E0F5F00F
:101B2400A3E0225009E92582F886F008E622BBFEEC
:101B34000AE92582F8E2F5F008E222E5832AF58332
:081B4400E993F5F0A3E99322F7
:101B4C00F8BB0111E58229F582E5833AF583E8F0CB
:101B5C00E5F0A3F0225009E92582C8F608A6F02288
:0D1B6C00BBFE09E92582C8F2E5F008F2226F
:0C1B7900A42582F582E5F03583F5832277
:061B85008A838982E473EB
:101CDA00021B8BE493A3F8E493A34003F68001F27A
:101CEA0008DFF48029E493A3F85407240CC8C3330B
:101CFA00C4540F4420C8834004F456800146F6DFDA
:101D0A00E4800B0102040810204080901F6DE47EDD
:101D1A00019360BCA3FF543F30E509541FFEE493CE
:101D2A00A360010ECF54C025E060A840B8E493A395
:101D3A00FAE493A3F8E493A3C8C582C8CAC583CAC0
:101D4A00F0A3C8C582C8CAC583CADFE9DEE780BE78
:011F7100006F
:00000001FF
