:041C23004101020079
:0D1C1600D290B2907F147E00121B4D80F51D
:101B1500D2917F01121958EF640170237F32FE12B2
:101B25001B4D7F011217B1EF900102700604F0B250
:101B35009180037402F07F327E00121B4D80F77F87
:081B4500327E00121B4D80CA24
:101BB1007E1C7F169000E07405F0FB7D0112105C25
:101BC100EF6401600280FE7E1B7F159000E07405CA
:101BD100F07B047D0212105CEF6401600280FE2242
:10105C009000DCEEF0A3EFF0A3EDF0A3EBF090002A
:10106C00E4E4F03008037FFF229000DFE0FFD3942C
:10107C000A40037FFE229000DFE0FF640970030248
:10108C0013A4E0640A70030213C89000DEE0FFD3DF
:10109C00941140037FFD229000DCE0FEA3E0FF4EA4
:1010AC0070037FFC229000DFE0FFC394085022A362
:1010BC00E0FF940640037FFB229000DEE0FF74000B
:1010CC002FF582E43402F583E0FF60127FFA228070
:1010DC000D9000E0E0FFD3941940037FF9229000BB
:1010EC00E0E004F0A3E4F09000E1E0FFC3941E40C4
:1010FC00030211EFE0131313541FFF9000E3F09061
:10110C0000E1E0FF5407F531FFF87480088002C35A
:10111C0013D8FCFF9000E3E0FE74102EF582E4344B
:10112C0003F583E0FEEF5EFF9000E3F0E0FF600864
:10113C009000E27401F080059000E2E4F09000E28F
:10114C00E0FF70709000E4E004F09000E0E0FF90AD
:10115C0000E4E0FEC39F50030211E6E0FF9000E1C3
:10116C00E0FE9FFF04FFA3F09000E1E0FFA3E0FE90
:10117C00D39F506FE0FF131313541FFFA3F0900085
:10118C00E2E0FF5407F531A3E0FF74102FF582E481
:10119C003403F583E0FFAE31A8067480088002C3E7
:1011AC0013D8FCFEEF4EFFF09000E2E004F080B8A4
:1011BC00803180269000E4E4F09000E1E0FF7E00B6
:1011CC009000E0E0FD7C002FFFEC33FEC3EF941E9B
:1011DC00EE6480948040037FF8229000E1E004F0FC
:1011EC000210F39000E4E0FF9000E1E0FEC39FFFEB
:1011FC0025E0FF2443FFF0E0FF90033FE0FEC39F98
:10120C0050249000E0E0FF25E0FFA3E0FEEF2EFF6E
:10121C0090033FF0E0FFD3947F400BE094804006B6
:10122C009000007400739000DFE0FFC3940840034B
:10123C000212EB9000E1E0FF2402FF9000DEE0FEE2
:10124C0074102EF582E43402F583EFF09000E1E0A7
:10125C00FF9000DEE0FE74202EF582E43403F5836B
:10126C00EFF09000DFE0FF25E0FF9000DEE0FE7481
:10127C00002EF582E43402F583EFF09000DEE0FFFF
:10128C0074002FF582E43402F583E004F09000DE64
:10129C00E0FF74002FF582E43402F583C083C08232
:1012AC00E0FF9000E0E0FEC454F0FEEF4EFFD08271
:1012BC00D083F08581319000E1E0FFF5819000DC76
:1012CC00E0FEA3E0FFF532C0329000DCE0FEA3E0CC
:1012DC00FFEEFF7E00F532C0328531810213E290C1
:1012EC0000DFE0FFC39409400302139C9000DEE092
:1012FC00FF5401FFF09000E1E0FF2402FF9000DEBC
:10130C00E0FE74202EF582E43402F583EFF09000B9
:10131C00E1E0FF9000DEE0FE74402EF582E4340341
:10132C00F583EFF09000E0E0FF9000DEE0FE744209
:10133C002EF582E43403F583EFF09000DEE0FF70CD
:10134C0004D2068002D2079000DEE0FF04FF3333A4
:10135C003354F8FFE0FE75F005A42430F582E43434
:10136C0002F583EFF08581319000E1E0FFF581908B
:10137C0000DCE0FEA3E0FFF532C0329000DCE0FEC2
:10138C00A3E0FFEEFF7E00F532C03285318180464E
:10139C009000DFE0FFB4091C9000DCE0FEA3E0FF4E
:0313AC0090033576
:1013AF00F09000DCE0A3E0EEFF7E00900336F080CB
:1013BF00229000DFE0FFB40A1A9000DCE0FEA3E009
:1013CF00FF900337F09000DCE0A3E0EEFF7E00908B
:0613DF000338F07F01223B
:10195800900103EFF0E0FF6005C3941240037FFF9E
:1019680022C2AF900103E0FF74442FF582E43403F0
:10197800F583E0FF4401FFF0900103E0FFC39410FA
:101988004022E0B4100BC206900331E4F0A3F080CB
:1019980053900103E0FF6411704AC207900333F0CB
:1019A800A3F08040900103E0FF74002FF582E43437
:1019B80002F583E0FF54FEFFF0900103E0FF75F0AD
:1019C80009A42403F582E43400F5837404F090013B
:1019D80003E0FF75F009A42407F582E43400F583D9
:0919E800E4F0A3F0D2AF7F01226C
:1017B1009000F7EFF0E0FFD3941140037FFF2290F8
:1017C10000F7E0FFC394105062E074002FF582E44B
:1017D1003402F583E0FF70079000F8F002189D785D
:1017E100E3E6FF9000F7E0FEB50707A37401F002FE
:1017F100189D78E4E6FF9000F7E0FEB50707A374B3
:1018010004F002189D9000F7E0FF74002FF582E4C8
:101811003402F583E0FF30E0089000F87402F080B4
:101821007B9000F87403F08073807178E3E6FF9099
:1018310000F7E0FEB50706A37401F0805F78E4E6E7
:10184100FF9000F7E0FEB50706A37404F0804D9009
:1018510000F7E0FF24F0FF9000F9F0E0FF74402F63
:10186100F582E43403F583E0FF70069000F8F08020
:101871002B9000F9E0FF70133006089000F8740215
:10188100F080199000F87403F0801130070890007F
:10189100F87402F080069000F87403F09000F8E00C
:0218A100FF2224
:101B4D00900100EEF0A3EFF0900100E0FEA3E0FFA6
:101B5D004E601E78E3E6FFC394125015758A6675C4
:101B6D008CFC900100E0FAA3E0FB7DFF7F011213D6
:021B7D00E5225F
:0800030053A87F7530002101B4
:08000B0053A87F7530012101AB
:0800130053A87F7530022101A2
:08001B0053A87F753003210199
:0800230053A87F753004210190
:08002B0053A87F753005210187
:0800330053A87F75300621017E
:08003B0053A87F753007210175
:0800430053A87F75300821016C
:08004B0053A87F753009210163
:0800530053A87F75300A21015A
:08005B0053A87F75300B210151
:0800630053A87F75300C210148
:08006B0053A87F75300D21013F
:0800730053A87F75300E210136
:08007B0053A87F75300F21012D
:0800830053A87F753010210124
:08008B0053A87F75301121011B
:0800930053A87F753012210112
:08009B0053A87F753013210109
:0800A30053A87F753014210100
:0800AB0053A87F7530152101F7
:0800B30053A87F7530162101EE
:0800BB0053A87F7530172101E5
:0800C30053A87F7530182101DC
:0800CB0053A87F7530192101D3
:0800D30053A87F75301A2101CA
:0800DB0053A87F75301B2101C1
:0800E30053A87F75301C2101B8
:0800EB0053A87F75301D2101AF
:0800F30053A87F75301E2101A6
:0F00FB0053A87F75301F20050302010A021ADA8D
:101ADA00858132758135C0D0C0E0C0F0C083C08234
:101AEA00858134900336E0FFF533900335E0FFF546
:101AFA008285338375D018740073853481D082D07F
:0B1B0A0083D0F0D0E0D2AFD0D0322268
:101C0000300112300503021B04300006C20002013D
:061C100054220201A9228A
:10010A0030010BC0D0D20085304121288010858172
:10011A0032758135C0D08831D201D2AF217F75D0F6
:10012A001078DBF608A6F008A68308A682E58114F3
:10013A00FF08F6D0E078E0F6900337E0FFF515A364
:10014A00E0FFF58385158274007375D01078DCE6BC
:10015A00FFF5F008E6FFF58308E6FFF58208E6FFFB
:10016A00F58108E6FFF51578DBE6FF8515D08541B0
:10017A003043A88032C0E0C0F0C083C08275D01876
:10018A0078E5E6FFE5306F6016D20B900336E0FFA4
:10019A00F533900335E0FFF5828533837400737578
:1001AA00D01875813A300B062002030205A3C28DCE
:1001BA00C20B753300E533C39408400302033DAF15
:1001CA0033EF75F006A424B1F582E43400F583E038
:1001DA00FF7003020338AF33EF75F006A424B1F5BC
:1001EA0082E43400F583E0FFD3940050030203381D
:1001FA00753400E534C394104003020317AF34EF9B
:10020A0075F009A42406F582E43400F583E0FF655D
:10021A00336003020312AF34EF75F009A42404F526
:10022A0082E43400F583E0FF64047003020312AF32
:10023A0033EF75F006A424AFF582E43400F583C0E9
:10024A0083C082E0FCA3E0FDAF347E007401A807FE
:10025A00088005C333CE33CED8F9FFF4FFEEF4FE9F
:10026A00EC5EFEED5FFFD082D083EEF0A3EFF0AF3D
:10027A0033EF75F006A424AEF582E43400F583E08A
:10028A00FF6013AF33EF75F006A424AEF582E434B1
:10029A0000F583E014F0AF34EF75F009A42405F5F6
:1002AA0082E43400F5837402F0AF34EF75F009A4E8
:1002BA002403F582E43400F583E4F0AF34EF75F0FB
:1002CA0009A42404F582E43400F583E4F0AF34EFA2
:1002DA0075F009A42406F582E43400F58374FFF06E
:1002EA00AF34EF75F009A42407F582E43400F583EE
:1002FA00E4F0A3F0AF3474002FF582E43402F583FE
:10030A00E0FF4401FFF0800505340201FDE5346495
:10031A0010601BAF33EF75F006A424B1F582E43404
:10032A0000F583E014F00201E080030201E00533E6
:10033A000201BF7534032004067534030204083031
:10034A0006067534010204083007067534010204F2
:10035A0008300C0675340102040878E3E6FFC394FA
:10036A00104003020405E6FF74002FF582E434020C
:10037A00F583E0FF20E006753401020408753300B6
:10038A00E533C394105042AF3374002FF582E4343E
:10039A0002F583E0FF30E02D78E3E6FF74002FF5E5
:1003AA0082E43402F583E0FF540FFFAE3374002E6B
:1003BA00F582E43402F583E0FE540FFED39F400534
:1003CA007534018039053380B7753301E533C39439
:1003DA00105023AF3374002FF582E43402F583E022
:1003EA00FF30E00E78E3E6FFE5336F60057534030E
:1003FA00800C053380D67534028003753401E534E8
:10040A00B4010A900330E0FF78E6F68016E534B4CA
:10041A00020678E67600800BE534B4030620020370
:10042A0078E60630020302059F78E1E6FFF58A08BE
:10043A00E6FFF58C90033AE004F07006900339E089
:10044A0004F0900339E0FEA3E0FF4E700E90033CE7
:10045A00E004F0700690033BE004F0753300E533E6
:10046A00C39410400302054FAF33EF75F009A4247B
:0D047A0003F582E43400F583E0FF640160C7
:100487000302054AAF33EF75F009A42407F582E4A8
:100497003400F583E0FEA3E0FFD39400EE94005010
:1004A7000302054AAF33EF75F009A42407F582E488
:1004B7003400F58374FFF5F0121B7FAF33EF75F04F
:1004C70009A42407F582E43400F583E0FEA3E0FFE6
:1004D7004E7070AF33EF75F009A42405F582E4344C
:1004E70000F5837401F0AF33EF75F009A42404F528
:1004F70082E43400F583E4F0AF33EF75F009A42408
:1005070006F582E43400F58374FFF0AF33EF75F03E
:1005170009A42407F582E43400F583E4F0A3F0AFDF
:1005270033EF75F009A42403F582E43400F583E47E
:10053700F0AF3374002FF582E43402F583E0FF4413
:1005470001FFF00533020468900331E0FEA3E0FFEA
:10055700D39400EE94004018900332E024FFF0900B
:100567000331E034FFF0E0FEA3E0FF4E7002D20655
:10057700900333E0FEA3E0FFD39400EE940040180D
:10058700900334E024FFF0900333E034FFF0E0FE03
:10059700A3E0FF4E7002D207C2028005C20B020C15
:1005A7008C900330E0FF78E6E6FE6F6003020C8A6A
:1005B700F6E532C3947F400602194F0207AF300CAD
:1005C700030206C078E3E6FFC394105044E6FF74C5
:1005D700002FF582E43402F583E0FFC4540FFF7E59
:1005E700028EF0A4FFAEF0E6FD74202DF582E43410
:1005F70003F583E0FD7C00EF2DFFEE3CFEAD32D32B
:10060700ED9FEE6480F8EC748098404502194F80A6
:100617004078E3E6FF74302FF582E43403F583E096
:10062700FF7E028EF0A4FFAEF0E6FD74302DF5825A
:10063700E43403F583E0FD7C00EF2DFFEE3CFEADD7
:1006470032C3ED9FEE6480F8EC7480984003021982
:100657004F78E3E6FFC39410400302074DE6FF75AA
:10066700F00DA42445F582E43402F583E531F0C2A8
:10067700AF858133758107753001E530C394085024
:1006870030D031AF307E00C3740D9FFFE49EFE78FB
:10069700E3E6FD75F00DA42440F582E43402F5830A
:1006A700E5822FF582E5833EF583E531F00530805D
:1006B700C9853381D2AF02074D78E4E6FFC39410B2
:1006C7005044E6FF74002FF582E43402F583E0FF1F
:1006D700C4540FFF7E028EF0A4FFAEF0E6FD742037
:1006E7002DF582E43403F583E0FD7C00EF2DFFEE6A
:1006F7003CFEAD32D3ED9FEE6480F8EC74809840F9
:100707004502194F804078E4E6FF74302FF582E404
:100717003403F583E0FF7E028EF0A4FFAEF0E6FD22
:1007270074302DF582E43403F583E0FD7C00EF2D72
:10073700FFEE3CFEAD32C3ED9FEE6480F8EC7480B3
:1007470098400302194F78E4E6FFC394105059E626
:10075700FF75F00DA42445F582E43402F583E531F5
:10076700F0C2AF858133758107753001E530C394D9
:10077700085030D031AF307E00C3740D9FFFE49E28
:10078700FE78E4E6FD75F00DA42440F582E434021A
:10079700F583E5822FF582E5833EF583E531F005A4
:1007A7003080C9853381D2AF300C03020989753196
:1007B7000078E3E6FF08F63007034331023006030B
:1007C700433101E5316030E53164036017300607D6
:1007D70078E3761002098B20070302098B78E3760A
:1007E7001102098B78E3E6FFB41005761102098B35
:0D07F70078E3761002098B2004030208D17C
:10080400753300753100E531C394105034AF317441
:10081400002FF582E43402F583E0FF30E015AF31B8
:1008240074002FF582E43402F583E0FFC313FF5410
:1008340007F530E530D395334003853033053180F7
:10084400C578E4E6FF04F531E531C394105036AFC2
:100854003174002FF582E43402F583E0FFC313FF03
:100864005407F530E533B53018AF3174002FF582F5
:10087400E43402F583E0FF30E00778E3A6310209AF
:100884008B053180C375310078E4E6FFE531D39FF1
:10089400400302098BAF3174002FF582E43402F572
:1008A40083E0FFC313FF5407F530E533B53017AFCA
:1008B4003174002FF582E43402F583E0FF30E00662
:1008C40018A63102098B053180BE02098B78E4E653
:1008D400FF04F531E531C39410504EAF3174002F4D
:1008E400F582E43402F583E0FF30E039AF3174007F
:1008F4002FF582E43402F583E0FFC313FF5407FFAE
:10090400602378E3A631AF3174002FF582E434021A
:10091400F583E0FFC313FF5407F530E53004FF907F
:100924000330F08062053180AB75310078E4E6FF76
:10093400E531D39F5051AF3174002FF582E4340276
:10094400F583E0FF30E038AF3174002FF582E434F2
:1009540002F583E0FFC313FF5407FF602218A6319A
:10096400AF3174002FF582E43402F583E0FFC31342
:10097400FF5407F530E53004FF900330F08008059C
:100984003180A98002C20CC209C20A78E4E6FFC31E
:1009940094104002D20978E3E6FFC394104002D2D7
:1009A4000AA20A82094003020A3F78E4E6FF24F01F
:1009B400F530AF3074202FF582E43402F583E5324C
:1009C400F0753105E531D394004025D032AF31AE16
:1009D40030EE75F005A4242FF582E43402F583E5A6
:1009E400822FF582E43583F583E532F0153180D426
:1009F40078E3E6FF24F0F530753100E531C3940562
:100A04005026AF31AE30EE75F005A42430F582E403
:100A14003402F583E5822FF582E43583F583E0FF24
:100A2400F532C032053180D3AF3074202FF582E423
:100A34003402F583E0FFF532020C00A20A72095079
:100A440003020ACF78E4E6FF74102FF582E434023F
:100A5400F583E532F0753105E531D394004026D0B5
:100A640032AF3178E4E6FE75F00DA4243FF582E45C
:100A74003402F583E5822FF582E43583F583E5328C
:100A8400F0153180D3753100E531C394055027AF9B
:100A94003178E3E6FE75F00DA42440F582E43402D7
:100AA400F583E5822FF582E43583F583E0FFF532A3
:100AB400C032053180D278E3E6FF74102FF582E46A
:100AC4003402F583E0FFF532020C00A20AB00940BB
:100AD40003020B6478E4E6FF74102FF582E4340219
:100AE400F583E532F0753105E531D394004026D025
:100AF40032AF3178E4E6FE75F00DA4243FF582E4CC
:100B04003402F583E5822FF582E43583F583E532FB
:100B1400F0153180D378E3E6FF24F0F53075310029
:100B2400E531C394055026AF31AE30EE75F005A41F
:100B34002430F582E43402F583E5822FF582E4352E
:100B440083F583E0FFF532C032053180D3AF3074D2
:100B5400202FF582E43402F583E0FFF532020C0025
:100B6400A209B00A4003020C0078E4E6FF24F0F581
:0D0B740030AF3074202FF582E43402F58399
:100B8100E532F0753100E531C39405502FD032AF15
:100B9100317E00C374059FFFE49EFEAD30ED75F01C
:100BA10005A4242FF582E43402F583E5822FF58232
:100BB100E5833EF583E532F0053180CA753100E504
:100BC10031C394055027AF3178E3E6FE75F00DA4EB
:100BD1002440F582E43402F583E5822FF582E43581
:100BE10083F583E0FFF532C032053180D278E3E648
:100BF100FF74102FF582E43402F583E0FFF5323003
:100C01000A03020C8878E3E6FF75F00DA42445F58C
:100C110082E43402F583E0FFF532C03278E3E6FF87
:100C210075F00DA42446F582E43402F583E0FFF566
:100C310032C032C2AF858130758102753107E5312D
:100C4100C3940D5027AF3178E3E6FE75F00DA4246F
:100C510040F582E43402F583E5822FF582E43583A1
:100C6100F583E0FFF532D032053180D2853081D273
:100C7100AF78E3E6FF74102FF582E43402F583E0E8
:100C8100FFF532D001D000C20AC209D082D083D090
:100C9100F0D0E053A87FC201D0D085328143A88033
:020CA1003222FD
:101A7D009000E5EBF0A3EAF0A3E9F0A3EDF0900000
:101A8D00E5E0FBA3E0FAA3E0F9AE02FF9000EBEE78
:101A9D00F0A3EFF09000E9E0FEA3E0FFD39400EE99
:101AAD00940040289000E8E0FF9000EBE475F00111
:101ABD00121B95ADF0FC8D82F583EFF09000EAE0FE
:0D1ACD0024FFF09000E9E034FFF080C82213
:1018A300787FE4F6D8FD7B017A0279009000E97431
:1018B30001F0A374FFF07D00121A7D78E5760178BC
:1018C300E276D81876EFC205C20178E37600D20437
:1018D3007530009003307405F0900339E4F0A3F001
:1018E30090033BF0A3F078E7F67BFF7A167950AECE
:1018F30002AF019000E07402F07B007D0012105CE7
:101903007BFF7A1C7900AE02AF019000E0E4F07B2C
:1019130009FD12105C7BFF7A1C7900AE02AF0190C7
:1019230000E0E4F07B0AFD12105C900320E0FF244A
:10193300FEF58178E2E6FFF58C18E6FFF58A438928
:1019430001D2A9D28CD2AF12165080FE121BE180B5
:05195300FE121C002241
:1013E5009000EDEFF0A3EDF0A3EAF0A3EBF0C2AFB0
:1013F50078E3E6FFA3F09000EDE0FF6401600302EF
:1014050015179000EFE0FEA3E0FF4E7005D2AF7F09
:1014150001229000F1E0FFC39410404E9000EDE0F2
:10142500FF640170429000F1E0FFB4101AC206900B
:1014350000EFE0FEA3E0FF900331EEF0A3EFF0D262
:1014450002D2AFD28D80209000F1E0FFB41118C216
:10145500079000EFE0FEA3E0FF900333EEF0A3EF6B
:10146500F0D202D2AFD28D7F01229000EDE0FF9045
:1014750000F1E0FE75F009A42404F582E43400F5DA
:1014850083EFF09000EEE0FF9000F1E0FE75F009CB
:10149500A42406F582E43400F583EFF09000EFE034
:1014A500FEA3E0FFA3E0FD75F009A42407F582E49F
:1014B5003400F583EEF0A3EFF09000F1E0FF75F056
:1014C50009A42405F582E43400F583E4F09000F1E5
:1014D500E0FF75F009A42403F582E43400F5837474
:1014E50001F09000F1E0FF74002FF582E43402F57D
:1014F50083E0FF54FEFFF0D202D2AFD28D9000F10F
:10150500E0FF75F009A42405F582E43400F583E0D5
:10151500FF229000F1E0FF75F009A42404F582E4B0
:101525003400F583E0FF6005D2AF7F00229000ED27
:10153500E0FF6401600DA3E0FFC394084005D2AF4E
:101545007F00229000EDE0FF9000F1E0FE75F009CC
:10155500A42404F582E43400F583EFF09000EEE076
:10156500FF9000F1E0FE75F009A42406F582E4344D
:1015750000F583EFF09000EFE0FEA3E0FFA3E0FDB0
:1015850075F009A42407F582E43400F583EEF0A391
:10159500EFF09000F1E0FF75F009A42405F582E471
:1015A5003400F583E4F09000EDE0FF64016057A39B
:1015B500E0FFF46051E075F006A424AFF582E43451
:1015C50000F583C083C082E0FCA3E0FD9000F1E05C
:1015D500FF7E007401A807088005C333CE33CED83B
:1015E500F9FFEC4EFEED4FFFD082D083EEF0A3EF76
:1015F500F09000EEE0FF75F006A424AEF582E43429
:1016050000F583E004F09000F1E0FF75F009A424F3
:1016150003F582E43400F5837401F09000F1E0FFF6
:1016250074002FF582E43402F583E0FF54FEFFF0E9
:10163500D202D2AFD28D9000F1E0FF75F009A4245B
:0B16450005F582E43400F583E0FF228D
:10165000C2AF7B007A0079009000FAEBF0A3F0A310
:10166000F09000FDF0A3F0A3F0C202C208900104C4
:1016700004F0900104E0FFC394105043E075F009BA
:10168000A42404F582E43400F583E4F0900104E03E
:10169000FF75F009A42403F582E43400F583740493
:1016A000F0900104E0FF75F009A42407F582E4340A
:1016B00000F583E4F0A3F0900104E004F080B3901F
:1016C0000331E4F0A3F0A3F0A3F0900104F0900143
:1016D00004E0FFC39408506BE075F006A424ACF559
:1016E00082E43400F583E4F0900104E0FF75F00635
:1016F000A424ADF582E43400F58374FFF090010476
:10170000E0FF75F006A424AEF582E43400F583E42E
:10171000F0900104E0FF75F006A424AFF582E434F4
:1017200000F583E4F0A3F0900104E0FF75F006A457
:1017300024B1F582E43400F583E4F0900104E00480
:10174000F0808B121BB1D208D2AFC2AF90010474EB
:1017500001F0900104E0FFC394125035E074442F6F
:10176000F582E43403F583E0FF30E01D900104E0EE
:10177000FF74442FF582E43403F583E0FF54FEFF49
:10178000F0900104E0FF120CA3900104E004F0804B
:10179000C1D2AF9000FAE0FBA3E0FAA3E0F9EA4976
:1017A0004B60A79000FAE0A3E0A3E0121BAB809A85
:0117B0002216
:101BE1009000FDE0FBA3E0FAA3E0F9EA494B600CA9
:0F1BF1009000FDE0A3E0A3E0121BAB2280FE22D8
:100CA3009000F2EFF0E0FFD3941140037FFF229016
:100CB30000F2E0FF70037FFF229000F5E533F09030
:100CC30000F2E0FFC394104003020DA8E074202F4C
:100CD300F582E43403F583E0FF70037FFF22900085
:100CE300F2E0FF74202FF582E43403F583E024FE61
:100CF300F09000F2E0FF74002FF582E43402F583F4
:100D0300E0FFC4540FFF9000F3F09000F2E0FF7493
:100D1300202FF582E43403F583E0FF04F53374BE3A
:100D23002533F533C313FF04F5339000F3E0FF5489
:100D330007FFF0E02533F09000F2E0FF74002FF599
:100D430082E43402F583E4F09000F2E0FF74102FA4
:100D5300F582E43402F583E4F09000F2E0FF7420BE
:100D63002FF582E43403F583E4F09000F6F090006D
:100D7300F6E0FFC3940D4003020E87E09000F2E01B
:100D8300FE75F00DA42440F582E43402F583E58278
:100D93002FF582E43583F583E4F09000F6E004F068
:100DA30080CC020E879000F2E0FF6410706990031C
:100DB30040E0FF70037FFF22900342E024FEF0E057
:100DC300FF9000F3F0900340E0FF04F53374BE2579
:100DD30033F533C313FF04F5339000F3E02533F009
:100DE300C206900340E4F0900342F0900220F0909A
:100DF30000F6F09000F6E0FFC394054003020E876F
:100E0300E074302FF582E43402F583E4F09000F6C9
:100E1300E004F080DE806D9000F2E0FF6411706406
:100E2300900341E0FF70037FFF22900343E024FE21
:100E3300F0E0FF9000F3F0900341E0FF04F533741A
:100E4300BE2533F533C313FF04F5339000F3E025D8
:100E530033F0C207900341E4F0900343F090022182
:100E6300F09000F6F09000F6E0FFC394055015E013
:100E730074352FF582E43402F583E4F09000F6E054
:100E830004F080E19000F3E0FFE533C39F5044E5B5
:100E930033131313541FF532E5335407F531FFF8B9
:100EA3007480088002C313D8FCFFF4FF9000F4F0B1
:100EB300AF3274102FF582E43403F583C083C0820C
:100EC300E0FF9000F4E0FEEF5EFFD082D083F005F8
:100ED3003380B19000F2E0FFB41009900331E4F0E5
:100EE300A3F0800F9000F2E0FFB41107900333E406
:100EF300F0A3F09000F6E4F09000F6E0FFC394084E
:100F03004003020FE99000F2E0FF7E007401A8079E
:100F1300088005C333CE33CED8F9FF9000F6E0FD49
:100F230075F006A424AFF582E43400F583E0FCA356
:100F3300E0FDEE5CFEEF5DFF4E60709000F6E0FFBB
:100F430075F006A424AFF582E43400F583C083C0B2
:100F530082E0FCA3E0FD9000F2E0FF7E007401A8B4
:100F630007088005C333CE33CED8F9FFF4FFEEF480
:100F7300FEEC5EFEED5FFFD082D083EEF0A3EFF0D8
:100F83009000F6E0FF75F006A424AEF582E4340089
:100F9300F583E0FF60159000F6E0FF75F006A424EA
:100FA300AEF582E43400F583E014F09000F6E0FF40
:100FB30075F006A424ADF582E43400F583E0FF90D8
:100FC30000F2E0FEEFB506159000F6E0FF75F006BF
:100FD300A424ADF582E43400F58374FFF09000F6A9
:100FE300E004F0020EFB9000F2E0FF75F009A42488
:100FF30004F582E43400F583E4F09000F2E0FF7539
:10100300F009A42405F582E43400F5837401F0901B
:1010130000F2E0FF75F009A42406F582E43400F53C
:101023008374FFF09000F2E0FF75F009A42407F544
:1010330082E43400F583E4F0A3F09000F2E0FF755E
:10104300F009A42403F582E43400F5837404F090DA
:0910530000F5E0FFF5337F0122F6
:030000000219F1F1
:0C19F100787FE4F6D8FD7581E7021A3813
:101B7F00C5F0F8A3E028F0C5F0F8E58215827002F1
:061B8F001583E038F0228E
:101B9500A3F8E0C5F025F0F0E58215827002158303
:061BA500E0C838F0E82260
:061BAB008A838982E473C5
:1019FD000218A3E493A3F8E493A34003F68001F245
:101A0D0008DFF48029E493A3F85407240CC8C333EA
:101A1D00C4540F4420C8834004F456800146F6DFB9
:101A2D00E4800B0102040810204080901C23E47E0A
:101A3D00019360BCA3FF543F30E509541FFEE493AE
:101A4D00A360010ECF54C025E060A840B8E493A375
:101A5D00FAE493A3F8E493A3C8C582C8CAC583CAA0
:101A6D00F0A3C8C582C8CAC583CADFE9DEE780BE58
:011C270000BC
:00000001FF
