:082182004100E4004100EC0003
:1020BF00D2909000F17401F0A37401F0A3742FF08B
:1020CF00A37401F0FB7A0079E5E4FD1219D3BF0187
:1020DF00089000ECE004F0B2907F147E001220F123
:0220EF0080D09F
:10212300D2919000E4E004F07B017A0079E5E0903D
:102133000105F0A37401F0E4FD12181CBF0102B203
:0A214300917F327E001220F180D857
:102039009001157401F0A37400F0A374DCF0A3748B
:1020490008F07B017A0079E5121F5A7E207FBF9044
:1020590000FC7405F0FB7D0112105CEF6401600265
:1020690080FE7E217F239000FC7405F07B047D02B5
:0B20790012105CEF6401600280FE2288
:10105C009000F8EEF0A3EFF0A3EDF0A3EBF090010D
:10106C0000E4F03008037FFF229000FBE0FFD394F4
:10107C000A40037FFE229000FBE0FF64097003022C
:10108C0013A4E0640A70030213C89000FAE0FFD3C3
:10109C00941140037FFD229000F8E0FEA3E0FF4E88
:1010AC0070037FFC229000FBE0FFC394085022A346
:1010BC00E0FF940640037FFB229000FAE0FF7400EF
:1010CC002FF582E43402F583E0FF60127FFA228070
:1010DC000D9000FCE0FFD3941940037FF92290009F
:1010EC00FCE004F0A3E4F09000FDE0FFC3941E408C
:1010FC00030211EFE0131313541FFF9000FFF09045
:10110C0000FDE0FF5407F531FFF87480088002C33E
:10111C0013D8FCFF9000FFE0FE74102EF582E4342F
:10112C0003F583E0FEEF5EFF9000FFF0E0FF600848
:10113C009000FE7401F080059000FEE4F09000FE3B
:10114C00E0FF7070900100E004F09000FCE0FF9074
:10115C000100E0FEC39F50030211E6E0FF9000FD8A
:10116C00E0FE9FFF04FFA3F09000FDE0FFA3E0FE74
:10117C00D39F506FE0FF131313541FFFA3F0900085
:10118C00FEE0FF5407F531A3E0FF74102FF582E465
:10119C003403F583E0FFAE31A8067480088002C3E7
:1011AC0013D8FCFEEF4EFFF09000FEE004F080B888
:1011BC0080318026900100E4F09000FDE0FF7E007D
:1011CC009000FCE0FD7C002FFFEC33FEC3EF941E7F
:1011DC00EE6480948040037FF8229000FDE004F0E0
:1011EC000210F3900100E0FF9000FDE0FEC39FFFB2
:1011FC0025E0FF2443FFF0E0FF90033FE0FEC39F98
:10120C0050249000FCE0FF25E0FFA3E0FEEF2EFF52
:10121C0090033FF0E0FFD3947F400BE094804006B6
:10122C009000007400739000FBE0FFC3940840032F
:10123C000212EB9000FDE0FF2402FF9000FAE0FEAA
:10124C0074102EF582E43402F583EFF09000FDE08B
:10125C00FF9000FAE0FE74202EF582E43403F5834F
:10126C00EFF09000FBE0FF25E0FF9000FAE0FE7449
:10127C00002EF582E43402F583EFF09000FAE0FFE3
:10128C0074002FF582E43402F583E004F09000FA48
:10129C00E0FF74002FF582E43402F583C083C08232
:1012AC00E0FF9000FCE0FEC454F0FEEF4EFFD08255
:1012BC00D083F08581319000FDE0FFF5819000F83E
:1012CC00E0FEA3E0FFF532C0329000F8E0FEA3E0B0
:1012DC00FFEEFF7E00F532C0328531810213E290C1
:1012EC0000FBE0FFC39409400302139C9000FAE05A
:1012FC00FF5401FFF09000FDE0FF2402FF9000FA84
:10130C00E0FE74202EF582E43402F583EFF09000B9
:10131C00FDE0FF9000FAE0FE74402EF582E4340309
:10132C00F583EFF09000FCE0FF9000FAE0FE7442D1
:10133C002EF582E43403F583EFF09000FAE0FF70B1
:10134C0004D2068002D2079000FAE0FF04FF333388
:10135C003354F8FFE0FE75F005A42430F582E43434
:10136C0002F583EFF08581319000FDE0FFF581906F
:10137C0000F8E0FEA3E0FFF532C0329000F8E0FE8A
:10138C00A3E0FFEEFF7E00F532C03285318180464E
:10139C009000FBE0FFB4091C9000F8E0FEA3E0FF16
:0313AC0090033576
:1013AF00F09000F8E0A3E0EEFF7E00900336F080AF
:1013BF00229000FBE0FFB40A1A9000F8E0FEA3E0D1
:1013CF00FF900337F09000F8E0A3E0EEFF7E00906F
:0613DF000338F07F01223B
:1020F10090012CEEF0A3EFF090012CE0FEA3E0FFA5
:102101004E601E78E3E6FFC394125015758A66751A
:102111008CFC90012CE0FAA3E0FB7DFF7F01121300
:02212100E522B5
:101F5A00900112EBF0A3EAF0A3E9F0A3E0FBA3E0FF
:101F6A00FAA3E0F9C003C002C001900112E0FBA38A
:101F7A00E0FAA3E0F9121785900118E0FF90011228
:101F8A00E0FBA3E0FAA3E0F9758203758300EF1280
:101F9A0016C2900112E0FBA3E0FAA3E0F9758204ED
:101FAA00758300E41216C2900112E0FBA3E0FAA3C3
:101FBA00E0F9758205758300E41216C2900112E0F9
:101FCA00FBA3E0FAA3E0F9758206758300E4121612
:021FDA00C22221
:1019D3009000EDEBF0A3EAF0A3E9F0A3EDF0C2AFC2
:1019E3009000EDE0FBA3E0FAA3E0F97582067583AE
:1019F30000121650FF701FD2AF9000F4E0FF600397
:101A03007F00229000F0E0FD7B007A007F05121337
:101A1300E59000F5EFF09000EDE0FBA3E0FAA3E022
:101A2300F9758206758300121650FFD39400500394
:101A3300021B689000EDE0A3E0A3E07582057583C7
:101A430000121650FF9000EDE0A3E0A3E01217652B
:101A53008F82758300121650FF9000F1E0FBA3E024
:101A6300FAA3E0F9EF1216B09000EDE0FBA3E0FA61
:101A7300A3E0F9758205758300121650FF7E0024DA
:101A830001FFEE33FE9000EDE0A3E0A3E0758203D7
:101A9300758300121650FD7C001216E4AF0590000A
:101AA300EDE0A3E0A3E0758205758300EF1216C293
:101AB3009000EDE0FBA3E0FAA3E0F97582067583DD
:101AC3000074FF12167D9000F0E0FF75F006A42469
:101AD300AFF582E43400F583E0FEA3E0FF4E70032C
:101AE300021B639000F674FFF0A3E4F09000F7E0AC
:101AF300FFC39410505CE07E007401A807088005C2
:101B0300C333CE33CED8F9FF9000F0E0FD75F00675
:101B1300A424AFF582E43400F583E0FCA3E0FDEEFA
:101B23005CFEEF5DFF4E60229000F7E0FF75F00969
:101B3300A42404F582E43400F583E0FFB4040B909D
:101B430000F7E0FF9000F6F080089000F7E004F063
:101B5300809A9000F6E0FFF46006E07D02121CD14B
:0D1B6300D2AF7F0122D2AF9000F5E0FF224B
:10181C00900101EBF0A3EAF0A3E9F0A3EDF0C2AF65
:10182C00900101E0FBA3E0FAA3E0F9758203758354
:10183C0000121650FF900101E0A3E0A3E0758206B0
:10184C00758300121650FEB5071FD2AF900106E04B
:10185C00FF60037F0022900104E0FD7B007A007F93
:10186C00041213E5900107EFF0900101E0FBA3E0F7
:10187C00FAA3E0F9758203758300121650FF9001EC
:10188C0001E0A3E0A3E0758206758300121650FEFA
:10189C00C39F40030219CB900105E0FF900101E0CA
:1018AC00A3E0A3E0758204758300121650FE90012C
:1018BC0001E0A3E0A3E01217658E82758300EF129E
:1018CC0016C2900101E0FBA3E0FAA3E0F9758204D3
:1018DC00758300121650FF7E002401FFEE33FE903C
:1018EC000101E0A3E0A3E07582037583001216509A
:1018FC00FD7C001216E4AF05900101E0A3E0A3E02B
:10190C00758204758300EF1216C2900101E0FBA3EF
:10191C00E0FAA3E0F9758206758300740112167D56
:10192C00900104E0FF75F006A424AFF582E43400C6
:10193C00F583E0FEA3E0FF4E70030219C690010888
:10194C0074FFF0A3E4F0900109E0FFC39410505C25
:10195C00E07E007401A807088005C333CE33CED8CF
:10196C00F9FF900104E0FD75F006A424AFF582E4C4
:10197C003400F583E0FCA3E0FDEE5CFEEF5DFF4E72
:10198C006022900109E0FF75F009A42404F582E4BB
:10199C003400F583E0FFB4050B900109E0FF9001E2
:1019AC0008F08008900109E004F0809A900108E0AA
:1019BC00FFF46006E07D02121CD1D2AF7F0122D26F
:0719CC00AF900107E0FF22CC
:0800030053A87F7530002101B4
:08000B0053A87F7530012101AB
:0800130053A87F7530022101A2
:08001B0053A87F753003210199
:0800230053A87F753004210190
:08002B0053A87F753005210187
:0800330053A87F75300621017E
:08003B0053A87F753007210175
:0800430053A87F75300821016C
:08004B0053A87F753009210163
:0800530053A87F75300A21015A
:08005B0053A87F75300B210151
:0800630053A87F75300C210148
:08006B0053A87F75300D21013F
:0800730053A87F75300E210136
:08007B0053A87F75300F21012D
:0800830053A87F753010210124
:08008B0053A87F75301121011B
:0800930053A87F753012210112
:08009B0053A87F753013210109
:0800A30053A87F753014210100
:0800AB0053A87F7530152101F7
:0800B30053A87F7530162101EE
:0800BB0053A87F7530172101E5
:0800C30053A87F7530182101DC
:0800CB0053A87F7530192101D3
:0800D30053A87F75301A2101CA
:0800DB0053A87F75301B2101C1
:0800E30053A87F75301C2101B8
:0800EB0053A87F75301D2101AF
:0800F30053A87F75301E2101A6
:0F00FB0053A87F75301F20050302010A022084DD
:10208400858132758135C0D0C0E0C0F0C083C08284
:10209400858134900336E0FFF533900335E0FFF596
:1020A4008285338375D018740073853481D082D0CF
:0B20B40083D0F0D0E0D2AFD0D03222B9
:10216C003001123005030220AE300006C20002011D
:06217C0054220201A92219
:10010A0030010BC0D0D20085304121288010858172
:10011A0032758135C0D08831D201D2AF217F75D0F6
:10012A001078DBF608A6F008A68308A682E58114F3
:10013A00FF08F6D0E078E0F6900337E0FFF515A364
:10014A00E0FFF58385158274007375D01078DCE6BC
:10015A00FFF5F008E6FFF58308E6FFF58208E6FFFB
:10016A00F58108E6FFF51578DBE6FF8515D08541B0
:10017A003043A88032C0E0C0F0C083C08275D01876
:10018A0078E5E6FFE5306F6016D20B900336E0FFA4
:10019A00F533900335E0FFF5828533837400737578
:1001AA00D01875813A300B062002030205A3C28DCE
:1001BA00C20B753300E533C39408400302033DAF15
:1001CA0033EF75F006A424B1F582E43400F583E038
:1001DA00FF7003020338AF33EF75F006A424B1F5BC
:1001EA0082E43400F583E0FFD3940050030203381D
:1001FA00753400E534C394104003020317AF34EF9B
:10020A0075F009A42406F582E43400F583E0FF655D
:10021A00336003020312AF34EF75F009A42404F526
:10022A0082E43400F583E0FF64047003020312AF32
:10023A0033EF75F006A424AFF582E43400F583C0E9
:10024A0083C082E0FCA3E0FDAF347E007401A807FE
:10025A00088005C333CE33CED8F9FFF4FFEEF4FE9F
:10026A00EC5EFEED5FFFD082D083EEF0A3EFF0AF3D
:10027A0033EF75F006A424AEF582E43400F583E08A
:10028A00FF6013AF33EF75F006A424AEF582E434B1
:10029A0000F583E014F0AF34EF75F009A42405F5F6
:1002AA0082E43400F5837402F0AF34EF75F009A4E8
:1002BA002403F582E43400F583E4F0AF34EF75F0FB
:1002CA0009A42404F582E43400F583E4F0AF34EFA2
:1002DA0075F009A42406F582E43400F58374FFF06E
:1002EA00AF34EF75F009A42407F582E43400F583EE
:1002FA00E4F0A3F0AF3474002FF582E43402F583FE
:10030A00E0FF4401FFF0800505340201FDE5346495
:10031A0010601BAF33EF75F006A424B1F582E43404
:10032A0000F583E014F00201E080030201E00533E6
:10033A000201BF7534032004067534030204083031
:10034A0006067534010204083007067534010204F2
:10035A0008300C0675340102040878E3E6FFC394FA
:10036A00104003020405E6FF74002FF582E434020C
:10037A00F583E0FF20E006753401020408753300B6
:10038A00E533C394105042AF3374002FF582E4343E
:10039A0002F583E0FF30E02D78E3E6FF74002FF5E5
:1003AA0082E43402F583E0FF540FFFAE3374002E6B
:1003BA00F582E43402F583E0FE540FFED39F400534
:1003CA007534018039053380B7753301E533C39439
:1003DA00105023AF3374002FF582E43402F583E022
:1003EA00FF30E00E78E3E6FFE5336F60057534030E
:1003FA00800C053380D67534028003753401E534E8
:10040A00B4010A900330E0FF78E6F68016E534B4CA
:10041A00020678E67600800BE534B4030620020370
:10042A0078E60630020302059F78E1E6FFF58A08BE
:10043A00E6FFF58C90033AE004F07006900339E089
:10044A0004F0900339E0FEA3E0FF4E700E90033CE7
:10045A00E004F0700690033BE004F0753300E533E6
:10046A00C39410400302054FAF33EF75F009A4247B
:0D047A0003F582E43400F583E0FF640160C7
:100487000302054AAF33EF75F009A42407F582E4A8
:100497003400F583E0FEA3E0FFD39400EE94005010
:1004A7000302054AAF33EF75F009A42407F582E488
:1004B7003400F58374FFF5F0121739AF33EF75F099
:1004C70009A42407F582E43400F583E0FEA3E0FFE6
:1004D7004E7070AF33EF75F009A42405F582E4344C
:1004E70000F5837401F0AF33EF75F009A42404F528
:1004F70082E43400F583E4F0AF33EF75F009A42408
:1005070006F582E43400F58374FFF0AF33EF75F03E
:1005170009A42407F582E43400F583E4F0A3F0AFDF
:1005270033EF75F009A42403F582E43400F583E47E
:10053700F0AF3374002FF582E43402F583E0FF4413
:1005470001FFF00533020468900331E0FEA3E0FFEA
:10055700D39400EE94004018900332E024FFF0900B
:100567000331E034FFF0E0FEA3E0FF4E7002D20655
:10057700900333E0FEA3E0FFD39400EE940040180D
:10058700900334E024FFF0900333E034FFF0E0FE03
:10059700A3E0FF4E7002D207C2028005C20B020C15
:1005A7008C900330E0FF78E6E6FE6F6003020C8A6A
:1005B700F6E532C3947F4006021EC50207AF300C32
:1005C700030206C078E3E6FFC394105044E6FF74C5
:1005D700002FF582E43402F583E0FFC4540FFF7E59
:1005E700028EF0A4FFAEF0E6FD74202DF582E43410
:1005F70003F583E0FD7C00EF2DFFEE3CFEAD32D32B
:10060700ED9FEE6480F8EC7480984045021EC5802B
:100617004078E3E6FF74302FF582E43403F583E096
:10062700FF7E028EF0A4FFAEF0E6FD74302DF5825A
:10063700E43403F583E0FD7C00EF2DFFEE3CFEADD7
:1006470032C3ED9FEE6480F8EC7480984003021E7D
:10065700C578E3E6FFC39410400302074DE6FF7534
:10066700F00DA42445F582E43402F583E531F0C2A8
:10067700AF858133758107753001E530C394085024
:1006870030D031AF307E00C3740D9FFFE49EFE78FB
:10069700E3E6FD75F00DA42440F582E43402F5830A
:1006A700E5822FF582E5833EF583E531F00530805D
:1006B700C9853381D2AF02074D78E4E6FFC39410B2
:1006C7005044E6FF74002FF582E43402F583E0FF1F
:1006D700C4540FFF7E028EF0A4FFAEF0E6FD742037
:1006E7002DF582E43403F583E0FD7C00EF2DFFEE6A
:1006F7003CFEAD32D3ED9FEE6480F8EC74809840F9
:1007070045021EC5804078E4E6FF74302FF582E489
:100717003403F583E0FF7E028EF0A4FFAEF0E6FD22
:1007270074302DF582E43403F583E0FD7C00EF2D72
:10073700FFEE3CFEAD32C3ED9FEE6480F8EC7480B3
:10074700984003021EC578E4E6FFC394105059E6AB
:10075700FF75F00DA42445F582E43402F583E531F5
:10076700F0C2AF858133758107753001E530C394D9
:10077700085030D031AF307E00C3740D9FFFE49E28
:10078700FE78E4E6FD75F00DA42440F582E434021A
:10079700F583E5822FF582E5833EF583E531F005A4
:1007A7003080C9853381D2AF300C03020989753196
:1007B7000078E3E6FF08F63007034331023006030B
:1007C700433101E5316030E53164036017300607D6
:1007D70078E3761002098B20070302098B78E3760A
:1007E7001102098B78E3E6FFB41005761102098B35
:0D07F70078E3761002098B2004030208D17C
:10080400753300753100E531C394105034AF317441
:10081400002FF582E43402F583E0FF30E015AF31B8
:1008240074002FF582E43402F583E0FFC313FF5410
:1008340007F530E530D395334003853033053180F7
:10084400C578E4E6FF04F531E531C394105036AFC2
:100854003174002FF582E43402F583E0FFC313FF03
:100864005407F530E533B53018AF3174002FF582F5
:10087400E43402F583E0FF30E00778E3A6310209AF
:100884008B053180C375310078E4E6FFE531D39FF1
:10089400400302098BAF3174002FF582E43402F572
:1008A40083E0FFC313FF5407F530E533B53017AFCA
:1008B4003174002FF582E43402F583E0FF30E00662
:1008C40018A63102098B053180BE02098B78E4E653
:1008D400FF04F531E531C39410504EAF3174002F4D
:1008E400F582E43402F583E0FF30E039AF3174007F
:1008F4002FF582E43402F583E0FFC313FF5407FFAE
:10090400602378E3A631AF3174002FF582E434021A
:10091400F583E0FFC313FF5407F530E53004FF907F
:100924000330F08062053180AB75310078E4E6FF76
:10093400E531D39F5051AF3174002FF582E4340276
:10094400F583E0FF30E038AF3174002FF582E434F2
:1009540002F583E0FFC313FF5407FF602218A6319A
:10096400AF3174002FF582E43402F583E0FFC31342
:10097400FF5407F530E53004FF900330F08008059C
:100984003180A98002C20CC209C20A78E4E6FFC31E
:1009940094104002D20978E3E6FFC394104002D2D7
:1009A4000AA20A82094003020A3F78E4E6FF24F01F
:1009B400F530AF3074202FF582E43402F583E5324C
:1009C400F0753105E531D394004025D032AF31AE16
:1009D40030EE75F005A4242FF582E43402F583E5A6
:1009E400822FF582E43583F583E532F0153180D426
:1009F40078E3E6FF24F0F530753100E531C3940562
:100A04005026AF31AE30EE75F005A42430F582E403
:100A14003402F583E5822FF582E43583F583E0FF24
:100A2400F532C032053180D3AF3074202FF582E423
:100A34003402F583E0FFF532020C00A20A72095079
:100A440003020ACF78E4E6FF74102FF582E434023F
:100A5400F583E532F0753105E531D394004026D0B5
:100A640032AF3178E4E6FE75F00DA4243FF582E45C
:100A74003402F583E5822FF582E43583F583E5328C
:100A8400F0153180D3753100E531C394055027AF9B
:100A94003178E3E6FE75F00DA42440F582E43402D7
:100AA400F583E5822FF582E43583F583E0FFF532A3
:100AB400C032053180D278E3E6FF74102FF582E46A
:100AC4003402F583E0FFF532020C00A20AB00940BB
:100AD40003020B6478E4E6FF74102FF582E4340219
:100AE400F583E532F0753105E531D394004026D025
:100AF40032AF3178E4E6FE75F00DA4243FF582E4CC
:100B04003402F583E5822FF582E43583F583E532FB
:100B1400F0153180D378E3E6FF24F0F53075310029
:100B2400E531C394055026AF31AE30EE75F005A41F
:100B34002430F582E43402F583E5822FF582E4352E
:100B440083F583E0FFF532C032053180D3AF3074D2
:100B5400202FF582E43402F583E0FFF532020C0025
:100B6400A209B00A4003020C0078E4E6FF24F0F581
:0D0B740030AF3074202FF582E43402F58399
:100B8100E532F0753100E531C39405502FD032AF15
:100B9100317E00C374059FFFE49EFEAD30ED75F01C
:100BA10005A4242FF582E43402F583E5822FF58232
:100BB100E5833EF583E532F0053180CA753100E504
:100BC10031C394055027AF3178E3E6FE75F00DA4EB
:100BD1002440F582E43402F583E5822FF582E43581
:100BE10083F583E0FFF532C032053180D278E3E648
:100BF100FF74102FF582E43402F583E0FFF5323003
:100C01000A03020C8878E3E6FF75F00DA42445F58C
:100C110082E43402F583E0FFF532C03278E3E6FF87
:100C210075F00DA42446F582E43402F583E0FFF566
:100C310032C032C2AF858130758102753107E5312D
:100C4100C3940D5027AF3178E3E6FE75F00DA4246F
:100C510040F582E43402F583E5822FF582E43583A1
:100C6100F583E0FFF532D032053180D2853081D273
:100C7100AF78E3E6FF74102FF582E43402F583E0E8
:100C8100FFF532D001D000C20AC209D082D083D090
:100C9100F0D0E053A87FC201D0D085328143A88033
:020CA1003222FD
:101FDC0090010AEBF0A3EAF0A3E9F0A3EDF0900175
:101FEC000AE0FBA3E0FAA3E0F9AE02FF900110EEC9
:101FFC00F0A3EFF090010EE0FEA3E0FFD39400EE0F
:10200C009400402890010DE0FF900110E475F00160
:10201C0012174FADF0FC8D82F583EFF090010FE0BD
:0D202C0024FFF090010EE034FFF080C82288
:101E1900787FE4F6D8FD7B017A02790090010E748F
:101E290001F0A374FFF07D00121FDC78E5760178DC
:101E3900E276D81876EFC205C20178E37600D204BB
:101E49007530009003307405F0900339E4F0A3F085
:101E590090033BF0A3F078E7F67BFF7A1B7970AE2D
:101E690002AF019000FC7402F07B007D0012105C4F
:101E79007BFF7A21796CAE02AF019000FCE4F07B24
:101E890009FD12105C7BFF7A21796CAE02AF0190DB
:101E990000FCE4F07B0AFD12105C900320E0FF24B3
:101EA900FEF58178E2E6FFF58C18E6FFF58A4389AD
:101EB90001D2A9D28CD2AF121B7080FE12214D80A3
:051EC900FE12216C2255
:1013E500900119EFF0A3EDF0A3EAF0A3EBF0C2AF83
:1013F50078E3E6FFA3F0900119E0FF6401600302C2
:10140500151790011BE0FEA3E0FF4E7005D2AF7FDC
:10141500012290011DE0FFC39410404E900119E098
:10142500FF6401704290011DE0FFB4101AC20690DE
:10143500011BE0FEA3E0FF900331EEF0A3EFF0D235
:1014450002D2AFD28D802090011DE0FFB41118C2E9
:101455000790011BE0FEA3E0FF900333EEF0A3EF3E
:10146500F0D202D2AFD28D7F0122900119E0FF9018
:10147500011DE0FE75F009A42404F582E43400F5AD
:1014850083EFF090011AE0FF90011DE0FE75F00971
:10149500A42406F582E43400F583EFF090011BE007
:1014A500FEA3E0FFA3E0FD75F009A42407F582E49F
:1014B5003400F583EEF0A3EFF090011DE0FF75F029
:1014C50009A42405F582E43400F583E4F090011DB8
:1014D500E0FF75F009A42403F582E43400F5837474
:1014E50001F090011DE0FF74002FF582E43402F550
:1014F50083E0FF54FEFFF0D202D2AFD28D90011DE2
:10150500E0FF75F009A42405F582E43400F583E0D5
:10151500FF2290011DE0FF75F009A42404F582E483
:101525003400F583E0FF6005D2AF7F0022900119FA
:10153500E0FF6401600DA3E0FFC394084005D2AF4E
:101545007F0022900119E0FF90011DE0FE75F00972
:10155500A42404F582E43400F583EFF090011AE049
:10156500FF90011DE0FE75F009A42406F582E43420
:1015750000F583EFF090011BE0FEA3E0FFA3E0FD83
:1015850075F009A42407F582E43400F583EEF0A391
:10159500EFF090011DE0FF75F009A42405F582E444
:1015A5003400F583E4F0900119E0FF64016057A36E
:1015B500E0FFF46051E075F006A424AFF582E43451
:1015C50000F583C083C082E0FCA3E0FD90011DE02F
:1015D500FF7E007401A807088005C333CE33CED83B
:1015E500F9FFEC4EFEED4FFFD082D083EEF0A3EF76
:1015F500F090011AE0FF75F006A424AEF582E434FC
:1016050000F583E004F090011DE0FF75F009A424C6
:1016150003F582E43400F5837401F090011DE0FFC9
:1016250074002FF582E43402F583E0FF54FEFFF0E9
:10163500D202D2AFD28D90011DE0FF75F009A4242E
:0B16450005F582E43400F583E0FF228D
:101CD100900123EFF0A3EDF0C2AF900123E0FF7577
:101CE100F009A42406F582E43400F583E0FF9001B5
:101CF10025F0E0FFF4606CE075F006A424AFF582F6
:101D0100E43400F583C083C082E0FCA3E0FD9001D0
:101D110023E0FF7E007401A807088005C333CE339A
:101D2100CED8F9FFF4FFEEF4FEEC5EFEED5FFFD0DE
:101D310082D083EEF0A3EFF0900125E0FF75F0066D
:101D4100A424AEF582E43400F583E0FF6015900130
:101D510025E0FF75F006A424AEF582E43400F58396
:101D6100E014F0900123E0FF74002FF582E43402C7
:101D7100F583E0FF7003D2AF22900123E0FF7444AA
:101D81002FF582E43403F583E0FF30E003D2AF2284
:101D9100900124E0FF900123E0FE75F009A42405E1
:101DA100F582E43400F583EFF0900123E0FF75F054
:101DB10009A42404F582E43400F583E4F0900123BE
:101DC100E0FF75F009A42406F582E43400F583747C
:101DD100FFF0900123E0FF75F009A42407F582E4E8
:101DE1003400F583E4F0A3F0900123E0FF75F009DE
:101DF100A42403F582E43400F583E4F0900123E0A8
:101E0100FF74002FF582E43402F583E0FF4401FF03
:081E1100F0D202D2AFD28D2203
:101B7000C2AF7B007A007900900126EBF0A3F0A3BE
:101B8000F0900129F0A3F0A3F0C202C20890012E48
:101B900004F090012EE0FFC394105043E075F0096B
:101BA000A42404F582E43400F583E4F090012EE0EF
:101BB000FF75F009A42403F582E43400F58374046E
:101BC000F090012EE0FF75F009A42407F582E434BB
:101BD00000F583E4F0A3F090012EE004F080B390D0
:101BE0000331E4F0A3F0A3F0A3F090012EF09001F4
:101BF0002EE0FFC39408506BE075F006A424ACF50A
:101C000082E43400F583E4F090012EE0FF75F006E5
:101C1000A424ADF582E43400F58374FFF090012E26
:101C2000E0FF75F006A424AEF582E43400F583E409
:101C3000F090012EE0FF75F006A424AFF582E434A5
:101C400000F583E4F0A3F090012EE0FF75F006A408
:101C500024B1F582E43400F583E4F090012EE00431
:101C6000F0808B122039D208D2AFC2AF90012E740F
:101C700001F090012EE0FFC394125035E074442F20
:101C8000F582E43403F583E0FF30E01D90012EE09F
:101C9000FF74442FF582E43403F583E0FF54FEFF24
:101CA000F090012EE0FF120CA390012EE004F080D2
:101CB000C1D2AF900126E0FBA3E0FAA3E0F9EA4924
:101CC0004B60A7900126E0A3E0A3E01217D4809A0E
:011CD00022F1
:10214D00900129E0FBA3E0FAA3E0F9EA494B600C0A
:0F215D00900129E0A3E0A3E01217D42280FE2214
:100CA30090011EEFF0E0FFD3941140037FFF2290E9
:100CB300011EE0FF70037FFF22900121E533F090D6
:100CC300011EE0FFC394104003020DA8E074202F1F
:100CD300F582E43403F583E0FF70037FFF22900184
:100CE3001EE0FF74202FF582E43403F583E024FE35
:100CF300F090011EE0FF74002FF582E43402F583C7
:100D0300E0FFC4540FFF90011FF090011EE0FF7439
:100D1300202FF582E43403F583E0FF04F53374BE3A
:100D23002533F533C313FF04F53390011FE0FF545C
:100D330007FFF0E02533F090011EE0FF74002FF56C
:100D430082E43402F583E4F090011EE0FF74102F77
:100D5300F582E43402F583E4F090011EE0FF742091
:100D63002FF582E43403F583E4F0900122F090013F
:100D730022E0FFC3940D4003020E87E090011EE0C2
:100D8300FE75F00DA42440F582E43402F583E58278
:100D93002FF582E43583F583E4F0900122E004F03B
:100DA30080CC020E8790011EE0FF641070699003EF
:100DB30040E0FF70037FFF22900342E024FEF0E057
:100DC300FF90011FF0900340E0FF04F53374BE254C
:100DD30033F533C313FF04F53390011FE02533F0DC
:100DE300C206900340E4F0900342F0900220F0909A
:100DF3000122F0900122E0FFC394054003020E8715
:100E0300E074302FF582E43402F583E4F09001229C
:100E1300E004F080DE806D90011EE0FF64117064D9
:100E2300900341E0FF70037FFF22900343E024FE21
:100E3300F0E0FF90011FF0900341E0FF04F53374ED
:100E4300BE2533F533C313FF04F53390011FE025AB
:100E530033F0C207900341E4F0900343F090022182
:100E6300F0900122F0900122E0FFC394055015E0B9
:100E730074352FF582E43402F583E4F0900122E027
:100E830004F080E190011FE0FFE533C39F5044E588
:100E930033131313541FF532E5335407F531FFF8B9
:100EA3007480088002C313D8FCFFF4FF900120F084
:100EB300AF3274102FF582E43403F583C083C0820C
:100EC300E0FF900120E0FEEF5EFFD082D083F005CB
:100ED3003380B190011EE0FFB41009900331E4F0B8
:100EE300A3F0800F90011EE0FFB41107900333E4D9
:100EF300F0A3F0900122E4F0900122E0FFC39408F4
:100F03004003020FE990011EE0FF7E007401A80771
:100F1300088005C333CE33CED8F9FF900122E0FD1C
:100F230075F006A424AFF582E43400F583E0FCA356
:100F3300E0FDEE5CFEEF5DFF4E6070900122E0FF8E
:100F430075F006A424AFF582E43400F583C083C0B2
:100F530082E0FCA3E0FD90011EE0FF7E007401A887
:100F630007088005C333CE33CED8F9FFF4FFEEF480
:100F7300FEEC5EFEED5FFFD082D083EEF0A3EFF0D8
:100F8300900122E0FF75F006A424AEF582E434005C
:100F9300F583E0FF6015900122E0FF75F006A424BD
:100FA300AEF582E43400F583E014F0900122E0FF13
:100FB30075F006A424ADF582E43400F583E0FF90D8
:100FC300011EE0FEEFB50615900122E0FF75F00665
:100FD300A424ADF582E43400F58374FFF09001227C
:100FE300E004F0020EFB90011EE0FF75F009A4245B
:100FF30004F582E43400F583E4F090011EE0FF750C
:10100300F009A42405F582E43400F5837401F0901B
:10101300011EE0FF75F009A42406F582E43400F50F
:101023008374FFF090011EE0FF75F009A42407F517
:1010330082E43400F583E4F0A3F090011EE0FF7531
:10104300F009A42403F582E43400F5837404F090DA
:091053000121E0FFF5337F0122C9
:03000000021ECE0F
:0C1ECE00787FE4F6D8FD7581E7021F154F
:10165000BB010CE58229F582E5833AF583E022504F
:1016600006E92582F8E622BBFE06E92582F8E22299
:0D167000E58229F582E5833AF583E49322B3
:10167D00BB010FF8E58229F582E5833AF583E02871
:10168D00F0225009C58229F8E58226F622BBFE0913
:10169D00C58229F8E22582F222F8EA2583F583E94D
:0316AD009328225D
:1016B000BB010689828A83F0225002F722BBFE0119
:0216C000F32213
:1016C200F8BB010DE58229F582E5833AF583E8F05E
:1016D200225006E92582C8F622BBFE05E92582C80A
:0216E200F222F2
:1016E400BC000BBE0029EF8DF084FFADF022E4CCEA
:1016F400F875F008EF2FFFEE33FEEC33FCEE9DECB3
:10170400984005FCEE9DFE0FD5F0E9E4CEFD22EDF8
:10171400F8F5F0EE8420D21CFEADF075F008EF2F42
:10172400FFED33FD4007985006D5F0F222C398FD33
:051734000FD5F0EA22D0
:10173900C5F0F8A3E028F0C5F0F8E582158270023B
:061749001583E038F022D8
:10174F00A3F8E0C5F025F0F0E5821582700215834D
:06175F00E0C838F0E822AA
:10176500BB010789828A830217EC5005E9F8021745
:10177500DABBFE05E9F80217FE89828A8302181092
:10178500BB011A89828A83D0F0D0E0F8D0E0F9D085
:10179500E0FAD0E0FBE8C0E0C0F00217F55016E92A
:1017A500F8D083D082D0E0F9D0E0FAD0E0FBC08257
:1017B500C0830217E3BBFE16E9F8D083D082D0E0E0
:0F17C500F9D0E0FAD0E0FBC082C08302180722FF
:0617D4008A838982E473A0
:101EDA00021E19E493A3F8E493A34003F68001F2E7
:101EEA0008DFF48029E493A3F85407240CC8C33309
:101EFA00C4540F4420C8834004F456800146F6DFD8
:101F0A00E4800B0102040810204080902182E47EC4
:101F1A00019360BCA3FF543F30E509541FFEE493CC
:101F2A00A360010ECF54C025E060A840B8E493A393
:101F3A00FAE493A3F8E493A3C8C582C8CAC583CABE
:101F4A00F0A3C8C582C8CAC583CADFE9DEE780BE76
:01218A000054
:0917DA00E6FB08E6FA08E6F92234
:0917E300EBF608EAF608E9F6222B
:0917EC00E0FBA3E0FAA3E0F922FE
:0917F500EBF0A3EAF0A3E9F022F5
:0917FE00E2FB08E2FA08E2F9221C
:09180700EBF208EAF208E9F22212
:0C181000E493FB740193FA740293F92234
:00000001FF
