:041D2F0041010C0062
:101C6D007F00121B5790010CEFF07F647E00121C59
:101C7D000B90010CE004F0E0FD7F00121C3D7F6431
:081C8D007E00121C0B80D9221D
:1019A50090010CE0FF7E00900100EEF0A3EFF090B7
:1019B5000100E0FEA3E0FF7C037DE812186CAD0793
:1019C5007F00121B1A900100E0FEA3E0FF7C007D62
:1019D5006412186C7C007D0A12186C7F01121B1AA8
:1019E500900100E0FEA3E0FF7C007D0A12186C7CEC
:1019F500007D0A12186C7F02121B1A900100E0FE8E
:101A0500A3E0FF7C007D0A12186C7F03121B1A806D
:011A15008F41
:011A160022AD
:101B94007F00121B5790010CEFF0121D237BFF7A7C
:101BA4001C796DAE02AF019000E07404F07B027DFD
:101BB400021210627BFF7A1979A5AE02AF01900080
:0C1BC400E07404F07B027D03121062222A
:101062009000DCEEF0A3EFF0A3EDF0A3EBF0900024
:10107200E4E4F03008037FFF229000DFE0FFD39426
:101082000A40037FFE229000DFE0FF640970030242
:1010920013AAE0640A70030213CE9000DEE0FFD3CD
:1010A200941140037FFD229000DCE0FEA3E0FF4E9E
:1010B20070037FFC229000DFE0FFC394085022A35C
:1010C200E0FF940640037FFB229000DEE0FF740005
:1010D2002FF582E43402F583E0FF60127FFA22806A
:1010E2000D9000E0E0FFD3941940037FF9229000B5
:1010F200E0E004F0A3E4F09000E1E0FFC3941E40BE
:10110200030211F5E0131313541FFF9000E3F09054
:1011120000E1E0FF5407F531FFF87480088002C354
:1011220013D8FCFF9000E3E0FE74102EF582E43445
:1011320003F583E0FEEF5EFF9000E3F0E0FF60085E
:101142009000E27401F080059000E2E4F09000E289
:10115200E0FF70709000E4E004F09000E0E0FF90A7
:1011620000E4E0FEC39F50030211ECE0FF9000E1B7
:10117200E0FE9FFF04FFA3F09000E1E0FFA3E0FE8A
:10118200D39F506FE0FF131313541FFFA3F090007F
:10119200E2E0FF5407F531A3E0FF74102FF582E47B
:1011A2003403F583E0FFAE31A8067480088002C3E1
:1011B20013D8FCFEEF4EFFF09000E2E004F080B89E
:1011C200803180269000E4E4F09000E1E0FF7E00B0
:1011D2009000E0E0FD7C002FFFEC33FEC3EF941E95
:1011E200EE6480948040037FF8229000E1E004F0F6
:1011F2000210F99000E4E0FF9000E1E0FEC39FFFDF
:1012020025E0FF2443FFF0E0FF90033FE0FEC39F91
:1012120050249000E0E0FF25E0FFA3E0FEEF2EFF68
:1012220090033FF0E0FFD3947F400BE094804006B0
:101232009000007400739000DFE0FFC39408400345
:101242000212F19000E1E0FF2402FF9000DEE0FED6
:1012520074102EF582E43402F583EFF09000E1E0A1
:10126200FF9000DEE0FE74202EF582E43403F58365
:10127200EFF09000DFE0FF25E0FF9000DEE0FE747B
:10128200002EF582E43402F583EFF09000DEE0FFF9
:1012920074002FF582E43402F583E004F09000DE5E
:1012A200E0FF74002FF582E43402F583C083C0822C
:1012B200E0FF9000E0E0FEC454F0FEEF4EFFD0826B
:1012C200D083F08581319000E1E0FFF5819000DC70
:1012D200E0FEA3E0FFF532C0329000DCE0FEA3E0C6
:1012E200FFEEFF7E00F532C0328531810213E890B5
:1012F20000DFE0FFC3940940030213A29000DEE086
:10130200FF5401FFF09000E1E0FF2402FF9000DEB5
:10131200E0FE74202EF582E43402F583EFF09000B3
:10132200E1E0FF9000DEE0FE74402EF582E434033B
:10133200F583EFF09000E0E0FF9000DEE0FE744203
:101342002EF582E43403F583EFF09000DEE0FF70C7
:1013520004D2068002D2079000DEE0FF04FF33339E
:101362003354F8FFE0FE75F005A42430F582E4342E
:1013720002F583EFF08581319000E1E0FFF5819085
:1013820000DCE0FEA3E0FFF532C0329000DCE0FEBC
:10139200A3E0FFEEFF7E00F532C032853181804648
:1013A2009000DFE0FFB4091C9000DCE0FEA3E0FF48
:0313B20090033570
:1013B500F09000DCE0A3E0EEFF7E00900336F080C5
:1013C500229000DFE0FFB40A1A9000DCE0FEA3E003
:1013D500FF900337F09000DCE0A3E0EEFF7E009085
:0613E5000338F07F012235
:101C0B00900102EEF0A3EFF0900102E0FEA3E0FFE3
:101C1B004E601E78E3E6FFC394125015758A667505
:101C2B008CFC900102E0FAA3E0FB7DFF7F01121315
:021C3B00EB229A
:0800030053A87F7530002101B4
:08000B0053A87F7530012101AB
:0800130053A87F7530022101A2
:08001B0053A87F753003210199
:0800230053A87F753004210190
:08002B0053A87F753005210187
:0800330053A87F75300621017E
:08003B0053A87F753007210175
:0800430053A87F75300821016C
:08004B0053A87F753009210163
:0800530053A87F75300A21015A
:08005B0053A87F75300B210151
:0800630053A87F75300C210148
:08006B0053A87F75300D21013F
:0800730053A87F75300E210136
:08007B0053A87F75300F21012D
:0800830053A87F753010210124
:08008B0053A87F75301121011B
:0800930053A87F753012210112
:08009B0053A87F753013210109
:0800A30053A87F753014210100
:0800AB0053A87F7530152101F7
:0800B30053A87F7530162101EE
:0800BB0053A87F7530172101E5
:0800C30053A87F7530182101DC
:0800CB0053A87F7530192101D3
:0800D30053A87F75301A2101CA
:0800DB0053A87F75301B2101C1
:0800E30053A87F75301C2101B8
:0800EB0053A87F75301D2101AF
:0800F30053A87F75301E2101A6
:0F00FB0053A87F75301F20050302010A021BD096
:101BD000858132758135C0D0C0E0C0F0C083C0823D
:101BE000858134900336E0FFF533900335E0FFF54F
:101BF0008285338375D018740073853481D082D088
:0B1C000083D0F0D0E0D2AFD0D0322271
:101CFF00300110300503021BFA3000040201582294
:041D0F000201AF22FC
:10010A003000013230010BC0D0D200853041212CA1
:10011A008010858132758135C0D08831D201D2AF45
:10012A00218575D01078DBF608A6F008A68308A604
:10013A0082E58114FF08F6D0E078E0F6900337E014
:10014A00FFF515A3E0FFF58385158274007375D05A
:10015A001078DCE6FFF5F008E6FFF58308E6FFF520
:10016A008208E6FFF58108E6FFF51578DBE6FF85EC
:10017A0015D0854130C20043A88032C0E0C0F0C02B
:10018A0083C08275D01878E5E6FFE5306F6016D235
:10019A000B900336E0FFF533900335E0FFF58285D7
:1001AA00338374007375D01875813A300B062002B8
:1001BA00030205A9C28DC20B753300E533C3940847
:1001CA004003020343AF33EF75F006A424B1F5826E
:1001DA00E43400F583E0FF700302033EAF33EF75AA
:1001EA00F006A424B1F582E43400F583E0FFD39449
:1001FA0000500302033E753400E534C394104003F3
:10020A0002031DAF34EF75F009A42406F582E43425
:10021A0000F583E0FF65336003020318AF34EF751E
:10022A00F009A42404F582E43400F583E0FF6404B1
:10023A007003020318AF33EF75F006A424AFF582FA
:10024A00E43400F583C083C082E0FCA3E0FDAF3450
:10025A007E007401A807088005C333CE33CED8F9CF
:10026A00FFF4FFEEF4FEEC5EFEED5FFFD082D0837A
:10027A00EEF0A3EFF0AF33EF75F006A424AEF582EB
:10028A00E43400F583E0FF6013AF33EF75F006A4A2
:10029A0024AEF582E43400F583E014F0AF34EF7550
:1002AA00F009A42405F582E43400F5837402F0AF62
:1002BA0034EF75F009A42403F582E43400F583E4ED
:1002CA00F0AF34EF75F009A42404F582E43400F5A4
:1002DA0083E4F0AF34EF75F009A42406F582E43420
:1002EA0000F58374FFF0AF34EF75F009A42407F525
:1002FA0082E43400F583E4F0A3F0AF3474002FF500
:10030A0082E43402F583E0FF4401FFF080050534FE
:10031A00020203E5346410601BAF33EF75F006A4E4
:10032A0024B1F582E43400F583E014F00201E6809A
:10033A00030201E605330201C5753403200406757C
:10034A00340302040E30060675340102040E300727
:10035A000675340102040E300C0675340102040ECF
:10036A0078E3E6FFC39410400302040BE6FF74002F
:10037A002FF582E43402F583E0FF20E006753401AC
:10038A0002040E753300E533C394105042AF337440
:10039A00002FF582E43402F583E0FF30E02D78E3A4
:1003AA00E6FF74002FF582E43402F583E0FF540F70
:1003BA00FFAE3374002EF582E43402F583E0FE5476
:1003CA000FFED39F40057534018039053380B77518
:1003DA003301E533C394105023AF3374002FF582F1
:1003EA00E43402F583E0FF30E00E78E3E6FFE5331C
:1003FA006F6005753403800C053380D6753402802E
:10040A0003753401E534B4010A900330E0FF78E65D
:10041A00F68016E534B4020678E67600800BE534F9
:10042A00B4030620020378E6063002030205A57823
:10043A00E1E6FFF58A08E6FFF58C90033AE004F05E
:10044A007006900339E004F0900339E0FEA3E0FF60
:10045A004E700E90033CE004F0700690033BE004FB
:10046A00F0753300E533C394104003020555AF33EA
:0D047A00EF75F009A42403F582E43400F5C9
:1004870083E0FF64016003020550AF33EF75F009A5
:10049700A42407F582E43400F583E0FEA3E0FFD34C
:1004A7009400EE94005003020550AF33EF75F00946
:1004B700A42407F582E43400F58374FFF5F01218DD
:1004C700C1AF33EF75F009A42407F582E43400F5D2
:1004D70083E0FEA3E0FF4E7070AF33EF75F009A421
:1004E7002405F582E43400F5837401F0AF33EF752A
:1004F700F009A42404F582E43400F583E4F0AF3373
:10050700EF75F009A42406F582E43400F58374FF3F
:10051700F0AF33EF75F009A42407F582E43400F552
:1005270083E4F0A3F0AF33EF75F009A42403F58259
:10053700E43400F583E4F0AF3374002FF582E4343C
:1005470002F583E0FF4401FFF0053302046E9003D8
:1005570031E0FEA3E0FFD39400EE9400401890032F
:1005670032E024FFF0900331E034FFF0E0FEA3E037
:10057700FF4E7002D206900333E0FEA3E0FFD39450
:1005870000EE94004018900334E024FFF09003330A
:10059700E034FFF0E0FEA3E0FF4E7002D207C20294
:1005A7008005C20B020C92900330E0FF78E6E6FE6E
:1005B7006F6003020C90F6E532C3947F4006021881
:1005C700630207B5300C030206C678E3E6FFC3945F
:1005D700105044E6FF74002FF582E43402F583E0FF
:1005E700FFC4540FFF7E028EF0A4FFAEF0E6FD7449
:1005F700202DF582E43403F583E0FD7C00EF2DFF29
:10060700EE3CFEAD32D3ED9FEE6480F8EC7480983B
:100617004045021863804078E3E6FF74302FF58287
:10062700E43403F583E0FF7E028EF0A4FFAEF0E62C
:10063700FD74302DF582E43403F583E0FD7C00EF93
:100647002DFFEE3CFEAD32C3ED9FEE6480F8EC74F7
:100657008098400302186378E3E6FFC394104003D1
:10066700020753E6FF75F00DA42445F582E4340232
:10067700F583E531F0C2AF858133758107753001A8
:10068700E530C394085030D031AF307E00C3740DCD
:100697009FFFE49EFE78E3E6FD75F00DA42440F588
:1006A70082E43402F583E5822FF582E5833EF58304
:1006B700E531F0053080C9853381D2AF0207537821
:1006C700E4E6FFC394105044E6FF74002FF582E47C
:1006D7003402F583E0FFC4540FFF7E028EF0A4FFBF
:1006E700AEF0E6FD74202DF582E43403F583E0FDDA
:1006F7007C00EF2DFFEE3CFEAD32D3ED9FEE648024
:10070700F8EC7480984045021863804078E4E6FF6F
:1007170074302FF582E43403F583E0FF7E028EF018
:10072700A4FFAEF0E6FD74302DF582E43403F583C3
:10073700E0FD7C00EF2DFFEE3CFEAD32C3ED9FEEFA
:100747006480F8EC748098400302186378E4E6FF4D
:10075700C394105059E6FF75F00DA42445F582E4C3
:100767003402F583E531F0C2AF85813375810775B2
:100777003001E530C394085030D031AF307E00C32C
:10078700740D9FFFE49EFE78E4E6FD75F00DA4244A
:1007970040F582E43402F583E5822FF582E5833E56
:1007A700F583E531F0053080C9853381D2AF300C50
:1007B7000302098F75310078E3E6FF08F630070377
:1007C700433102300603433101E5316030E53164DE
:1007D70003601730060778E37610020991200703B4
:1007E70002099178E3761102099178E3E6FFB410E4
:0D07F70005761102099178E3761002099150
:100804002004030208D7753300753100E531C39421
:10081400105034AF3174002FF582E43402F583E0D4
:10082400FF30E015AF3174002FF582E43402F58314
:10083400E0FFC313FF5407F530E530D3953340038D
:10084400853033053180C578E4E6FF04F531E531C0
:10085400C394105036AF3174002FF582E43402F59E
:1008640083E0FFC313FF5407F530E533B53018AF09
:100874003174002FF582E43402F583E0FF30E007A1
:1008840078E3A631020991053180C375310078E41B
:10089400E6FFE531D39F4003020991AF3174002F85
:1008A400F582E43402F583E0FFC313FF5407F53007
:1008B400E533B53017AF3174002FF582E43402F517
:1008C40083E0FF30E00618A631020991053180BEAD
:1008D40002099178E4E6FF04F531E531C394105040
:1008E4004EAF3174002FF582E43402F583E0FF301B
:1008F400E039AF3174002FF582E43402F583E0FF70
:10090400C313FF5407FF602378E3A631AF317400AB
:100914002FF582E43402F583E0FFC313FF5407F597
:1009240030E53004FF900330F08062053180AB7510
:10093400310078E4E6FFE531D39F5051AF317400C4
:100944002FF582E43402F583E0FF30E038AF3174F0
:10095400002FF582E43402F583E0FFC313FF54074C
:10096400FF602218A631AF3174002FF582E43402FF
:10097400F583E0FFC313FF5407F530E53004FF901F
:100984000330F08008053180A98002C20CC209C27C
:100994000A78E4E6FFC394104002D20978E3E6FF44
:1009A400C394104002D20AA20A82094003020A45F3
:1009B40078E4E6FF24F0F530AF3074202FF582E4BC
:1009C4003402F583E532F0753105E531D394004006
:1009D40025D032AF31AE30EE75F005A4242FF58268
:1009E400E43402F583E5822FF582E43583F583E56B
:1009F40032F0153180D478E3E6FF24F0F530753118
:100A040000E531C394055026AF31AE30EE75F005E4
:100A1400A42430F582E43402F583E5822FF582E4E0
:100A24003583F583E0FFF532C032053180D3AF3032
:100A340074202FF582E43402F583E0FFF532020CD2
:100A440006A20A72095003020AD578E4E6FF74107C
:100A54002FF582E43402F583E532F0753105E53192
:100A6400D394004026D032AF3178E4E6FE75F00D21
:100A7400A4243FF582E43402F583E5822FF582E471
:100A84003583F583E532F0153180D3753100E531D6
:100A9400C394055027AF3178E3E6FE75F00DA42426
:100AA40040F582E43402F583E5822FF582E4358350
:100AB400F583E0FFF532C032053180D278E3E6FFFA
:100AC40074102FF582E43402F583E0FFF532020C52
:100AD40006A20AB0094003020B6A78E4E6FF741028
:100AE4002FF582E43402F583E532F0753105E53102
:100AF400D394004026D032AF3178E4E6FE75F00D91
:100B0400A4243FF582E43402F583E5822FF582E4E0
:100B14003583F583E532F0153180D378E3E6FF249D
:100B2400F0F530753100E531C394055026AF31AE90
:100B340030EE75F005A42430F582E43402F583E543
:100B4400822FF582E43583F583E0FFF532C0320568
:100B54003180D3AF3074202FF582E43402F583E082
:100B6400FFF532020C06A209B00A4003020C067813
:0D0B7400E4E6FF24F0F530AF3074202FF5DB
:100B810082E43402F583E532F0753100E531C39436
:100B910005502FD032AF317E00C374059FFFE49E14
:100BA100FEAD30ED75F005A4242FF582E43402F595
:100BB10083E5822FF582E5833EF583E532F0053149
:100BC10080CA753100E531C394055027AF3178E310
:100BD100E6FE75F00DA42440F582E43402F583E5C8
:100BE100822FF582E43583F583E0FFF532C03205CB
:100BF1003180D278E3E6FF74102FF582E43402F5F8
:100C010083E0FFF532300A03020C8E78E3E6FF75CC
:100C1100F00DA42445F582E43402F583E0FFF532BA
:100C2100C03278E3E6FF75F00DA42446F582E43482
:100C310002F583E0FFF532C032C2AF8581307581A4
:100C410002753107E531C3940D5027AF3178E3E6E2
:100C5100FE75F00DA42440F582E43402F583E582AB
:100C61002FF582E43583F583E0FFF532D03205318B
:100C710080D2853081D2AF78E3E6FF74102FF58200
:100C8100E43402F583E0FFF532D001D000C20AC29C
:100C910009D082D083D0F0D0E053A87FC201D0D058
:080CA10085328143A880322254
:101A7C009000E5EBF0A3EAF0A3E9F0A3EDF0900001
:101A8C00E5E0FBA3E0FAA3E0F9AE02FF9000EBEE79
:101A9C00F0A3EFF09000E9E0FEA3E0FFD39400EE9A
:101AAC00940040289000E8E0FF9000EBE475F00112
:101ABC001218D7ADF0FC8D82F583EFF09000EAE0C0
:0D1ACC0024FFF09000E9E034FFF080C82214
:1017B700787FE4F6D8FD7B017A0279009000E9741E
:1017C70001F0A374FFF07D00121A7C78E5760178AA
:1017D700E276D81876EFC205C20178E37600D20424
:1017E7007530009003307405F0900339E4F0A3F0EE
:1017F70090033BF0A3F078E7F67BFF7A167956AEB5
:1018070002AF019000E07402F07B007D00121062CD
:101817007BFF7A1C79FFAE02AF019000E0E4F07B1A
:1018270009FD1210627BFF7A1C79FFAE02AF0190AF
:1018370000E0E4F07B0AFD121062900320E0FF2431
:10184700FEF58178E2E6FFF58C18E6FFF58A438915
:1018570001D2A9D28CD2AF12165680FE121CB580C7
:05186700FE121CFF222F
:1013EB009000EDEFF0A3EDF0A3EAF0A3EBF0C2AFAA
:1013FB0078E3E6FFA3F09000EDE0FF6401600302E9
:10140B00151D9000EFE0FEA3E0FF4E7005D2AF7FFD
:10141B0001229000F1E0FFC39410404E9000EDE0EC
:10142B00FF640170429000F1E0FFB4101AC2069005
:10143B0000EFE0FEA3E0FF900331EEF0A3EFF0D25C
:10144B0002D2AFD28D80209000F1E0FFB41118C210
:10145B00079000EFE0FEA3E0FF900333EEF0A3EF65
:10146B00F0D202D2AFD28D7F01229000EDE0FF903F
:10147B0000F1E0FE75F009A42404F582E43400F5D4
:10148B0083EFF09000EEE0FF9000F1E0FE75F009C5
:10149B00A42406F582E43400F583EFF09000EFE02E
:1014AB00FEA3E0FFA3E0FD75F009A42407F582E499
:1014BB003400F583EEF0A3EFF09000F1E0FF75F050
:1014CB0009A42405F582E43400F583E4F09000F1DF
:1014DB00E0FF75F009A42403F582E43400F583746E
:1014EB0001F09000F1E0FF74002FF582E43402F577
:1014FB0083E0FF54FEFFF0D202D2AFD28D9000F109
:10150B00E0FF75F009A42405F582E43400F583E0CF
:10151B00FF229000F1E0FF75F009A42404F582E4AA
:10152B003400F583E0FF6005D2AF7F00229000ED21
:10153B00E0FF6401600DA3E0FFC394084005D2AF48
:10154B007F00229000EDE0FF9000F1E0FE75F009C6
:10155B00A42404F582E43400F583EFF09000EEE070
:10156B00FF9000F1E0FE75F009A42406F582E43447
:10157B0000F583EFF09000EFE0FEA3E0FFA3E0FDAA
:10158B0075F009A42407F582E43400F583EEF0A38B
:10159B00EFF09000F1E0FF75F009A42405F582E46B
:1015AB003400F583E4F09000EDE0FF64016057A395
:1015BB00E0FFF46051E075F006A424AFF582E4344B
:1015CB0000F583C083C082E0FCA3E0FD9000F1E056
:1015DB00FF7E007401A807088005C333CE33CED835
:1015EB00F9FFEC4EFEED4FFFD082D083EEF0A3EF70
:1015FB00F09000EEE0FF75F006A424AEF582E43423
:10160B0000F583E004F09000F1E0FF75F009A424ED
:10161B0003F582E43400F5837401F09000F1E0FFF0
:10162B0074002FF582E43402F583E0FF54FEFFF0E3
:10163B00D202D2AFD28D9000F1E0FF75F009A42455
:0B164B0005F582E43400F583E0FF2287
:10165600C2AF7B007A0079009000F7EBF0A3F0A30D
:10166600F09000FAF0A3F0A3F0C202C20890010DB8
:1016760004F090010DE0FFC394105043E075F009AB
:10168600A42404F582E43400F583E4F090010DE02F
:10169600FF75F009A42403F582E43400F58374048D
:1016A600F090010DE0FF75F009A42407F582E434FB
:1016B60000F583E4F0A3F090010DE004F080B39010
:1016C6000331E4F0A3F0A3F0A3F090010DF0900134
:1016D6000DE0FFC39408506BE075F006A424ACF54A
:1016E60082E43400F583E4F090010DE0FF75F00626
:1016F600A424ADF582E43400F58374FFF090010D67
:10170600E0FF75F006A424AEF582E43400F583E428
:10171600F090010DE0FF75F006A424AFF582E434E5
:1017260000F583E4F0A3F090010DE0FF75F006A448
:1017360024B1F582E43400F583E4F090010DE00471
:10174600F0808B121B94D208D2AFC2AF90010D74F9
:1017560001F090010DE0FFC394125035E074442F60
:10176600F582E43403F583E0FF30E01D90010DE0DF
:10177600FF74442FF582E43403F583E0FF54FEFF43
:10178600F090010DE0FF120CA990010DE004F0802D
:10179600C1D2AF9000F7E0FBA3E0FAA3E0F9EA4973
:1017A6004B60A79000F7E0A3E0A3E0121913809A1C
:0117B6002210
:101CB5009000FAE0FBA3E0FAA3E0F9EA494B600CD7
:0F1CC5009000FAE0A3E0A3E01219132280FE22A0
:100CA9009000F2EFF0E0FFD3941140037FFF229010
:100CB90000F2E0FF70037FFF229000F5E533F0902A
:100CC90000F2E0FFC394104003020DAEE074202F40
:100CD900F582E43403F583E0FF70037FFF2290007F
:100CE900F2E0FF74202FF582E43403F583E024FE5B
:100CF900F09000F2E0FF74002FF582E43402F583EE
:100D0900E0FFC4540FFF9000F3F09000F2E0FF748D
:100D1900202FF582E43403F583E0FF04F53374BE34
:100D29002533F533C313FF04F5339000F3E0FF5483
:100D390007FFF0E02533F09000F2E0FF74002FF593
:100D490082E43402F583E4F09000F2E0FF74102F9E
:100D5900F582E43402F583E4F09000F2E0FF7420B8
:100D69002FF582E43403F583E4F09000F6F0900067
:100D7900F6E0FFC3940D4003020E8DE09000F2E00F
:100D8900FE75F00DA42440F582E43402F583E58272
:100D99002FF582E43583F583E4F09000F6E004F062
:100DA90080CC020E8D9000F2E0FF64107069900310
:100DB90040E0FF70037FFF22900342E024FEF0E051
:100DC900FF9000F3F0900340E0FF04F53374BE2573
:100DD90033F533C313FF04F5339000F3E02533F003
:100DE900C206900340E4F0900342F0900220F09094
:100DF90000F6F09000F6E0FFC394054003020E8D63
:100E0900E074302FF582E43402F583E4F09000F6C3
:100E1900E004F080DE806D9000F2E0FF6411706400
:100E2900900341E0FF70037FFF22900343E024FE1B
:100E3900F0E0FF9000F3F0900341E0FF04F5337414
:100E4900BE2533F533C313FF04F5339000F3E025D2
:100E590033F0C207900341E4F0900343F09002217C
:100E6900F09000F6F09000F6E0FFC394055015E00D
:100E790074352FF582E43402F583E4F09000F6E04E
:100E890004F080E19000F3E0FFE533C39F5044E5AF
:100E990033131313541FF532E5335407F531FFF8B3
:100EA9007480088002C313D8FCFFF4FF9000F4F0AB
:100EB900AF3274102FF582E43403F583C083C08206
:100EC900E0FF9000F4E0FEEF5EFFD082D083F005F2
:100ED9003380B19000F2E0FFB41009900331E4F0DF
:100EE900A3F0800F9000F2E0FFB41107900333E400
:100EF900F0A3F09000F6E4F09000F6E0FFC3940848
:100F09004003020FEF9000F2E0FF7E007401A80792
:100F1900088005C333CE33CED8F9FF9000F6E0FD43
:100F290075F006A424AFF582E43400F583E0FCA350
:100F3900E0FDEE5CFEEF5DFF4E60709000F6E0FFB5
:100F490075F006A424AFF582E43400F583C083C0AC
:100F590082E0FCA3E0FD9000F2E0FF7E007401A8AE
:100F690007088005C333CE33CED8F9FFF4FFEEF47A
:100F7900FEEC5EFEED5FFFD082D083EEF0A3EFF0D2
:100F89009000F6E0FF75F006A424AEF582E4340083
:100F9900F583E0FF60159000F6E0FF75F006A424E4
:100FA900AEF582E43400F583E014F09000F6E0FF3A
:100FB90075F006A424ADF582E43400F583E0FF90D2
:100FC90000F2E0FEEFB506159000F6E0FF75F006B9
:100FD900A424ADF582E43400F58374FFF09000F6A3
:100FE900E004F0020F019000F2E0FF75F009A4247B
:100FF90004F582E43400F583E4F09000F2E0FF7533
:10100900F009A42405F582E43400F5837401F09015
:1010190000F2E0FF75F009A42406F582E43400F536
:101029008374FFF09000F2E0FF75F009A42407F53E
:1010390082E43400F583E4F0A3F09000F2E0FF7558
:10104900F009A42403F582E43400F5837404F090D4
:0910590000F5E0FFF5337F0122F0
:101B1A00900104EFF0A3EDF0D2A0D2A1D2A2D2A3F9
:101B2A00E0FF901CA593FFF580900104E0FF1218D6
:101B3A00ED1B4B001B4E011B51021B540300001BE3
:0D1B4A0056C2A022C2A122C2A222C2A32222
:101C95003F065B4F666D7D077F6F777C395E797197
:101CA500C0F9A4B0999282F880908883C6A1868EE7
:0C1D2300758000D2A0D2A1D2A2D2A322CF
:051B5700900106EFF013
:101B5C00121CEA7FA0121A17900106E0FF121A1746
:101B6C00121CEA7FA1121A17121AD9900107EFF072
:101B7C00D290121CD4D291121CD4C291121CD41229
:071B8C001D13900107E0FFAB
:011B9300222F
:101C3D00900108EFF0A3EDF0121CEA7FA0121A1725
:101C4D00900108E0FF121A17900109E0FF121A1710
:101C5D00121D13121CD4121CD4121CD4121CD4220B
:101AD90090010BE4F0D29090010AF090010AE0FF26
:101AE900C394085026D291121CD490010BE0FF2513
:101AF900E0FFF0E0FFA290E433FEEF4EFFF0C29169
:101B0900121CD490010AE004F080D090010BE0FF90
:011B190022A9
:101CEA00D290121CD4D291121CD4C290121CD4C20B
:051CFA0091121CD42230
:101D1300C290121CD4D291121CD4D290121CD42281
:051A17009000FDEFF05E
:101A1C00A3E4F09000FEE0FFC3940850229000FD78
:101A2C00E0FF339290E025E0FFF0121CD4D291122B
:101A3C001CD4C291121CD49000FEE004F080D4D2CD
:101A4C0090121CD4D291121CD49000FFE4F0309070
:101A5C00179000FFE004F0E0FFD394C840F0C2916F
:0F1A6C00121CD47F002280E6C291121CD47F018D
:011A7B002248
:101CD40090010EE4F090010EE0FFC3940250060060
:051CE400E004F080F0B7
:011CE90022D8
:03000000021919C9
:0C191900787FE4F6D8FD7581E7021960C4
:10186C00BC000BBE0029EF8DF084FFADF022E4CC60
:10187C00F875F008EF2FFFEE33FEEC33FCEE9DEC29
:10188C00984005FCEE9DFE0FD5F0E9E4CEFD22ED6F
:10189C00F8F5F0EE8420D21CFEADF075F008EF2FB9
:1018AC00FFED33FD4007985006D5F0F222C398FDAA
:0518BC000FD5F0EA2247
:1018C100C5F0F8A3E028F0C5F0F8E58215827002B2
:0618D1001583E038F0224F
:1018D700A3F8E0C5F025F0F0E582158270021583C4
:0618E700E0C838F0E82221
:1018ED00D083D082F8E4937012740193700DA3A38A
:1018FD0093F8740193F5828883E47374029368609E
:06190D00EFA3A3A380DF9D
:061913008A838982E4735F
:101925000217B7E493A3F8E493A34003F68001F20A
:1019350008DFF48029E493A3F85407240CC8C333C3
:10194500C4540F4420C8834004F456800146F6DF92
:10195500E4800B0102040810204080901D2FE47ED6
:10196500019360BCA3FF543F30E509541FFEE49387
:10197500A360010ECF54C025E060A840B8E493A34E
:10198500FAE493A3F8E493A3C8C582C8CAC583CA79
:10199500F0A3C8C582C8CAC583CADFE9DEE780BE31
:011D330000AF
:00000001FF
